{"contracts/CrowdfundingMarketplace.sol":{"CrowdfundingMarketplace":{"abi":[{"inputs":[],"stateMutability":"nonpayable","type":"constructor"},{"anonymous":false,"inputs":[{"indexed":true,"internalType":"uint256","name":"campaignId","type":"uint256"},{"indexed":true,"internalType":"address","name":"creator","type":"address"},{"indexed":false,"internalType":"uint256","name":"targetAmount","type":"uint256"},{"indexed":false,"internalType":"uint256","name":"deadline","type":"uint256"},{"indexed":false,"internalType":"string","name":"metadataHash","type":"string"}],"name":"CampaignCreated","type":"event"},{"anonymous":false,"inputs":[{"indexed":true,"internalType":"uint256","name":"campaignId","type":"uint256"},{"indexed":false,"internalType":"uint256","name":"totalRaised","type":"uint256"}],"name":"CampaignFunded","type":"event"},{"anonymous":false,"inputs":[{"indexed":true,"internalType":"uint256","name":"campaignId","type":"uint256"},{"indexed":true,"internalType":"address","name":"creator","type":"address"},{"indexed":false,"internalType":"uint256","name":"amount","type":"uint256"}],"name":"CampaignWithdrawn","type":"event"},{"anonymous":false,"inputs":[{"indexed":false,"internalType":"uint256","name":"oldCommission","type":"uint256"},{"indexed":false,"internalType":"uint256","name":"newCommission","type":"uint256"}],"name":"CommissionUpdated","type":"event"},{"anonymous":false,"inputs":[{"indexed":true,"internalType":"uint256","name":"campaignId","type":"uint256"},{"indexed":true,"internalType":"address","name":"contributor","type":"address"},{"indexed":false,"internalType":"uint256","name":"amount","type":"uint256"}],"name":"ContributionMade","type":"event"},{"anonymous":false,"inputs":[{"indexed":true,"internalType":"address","name":"admin","type":"address"},{"indexed":false,"internalType":"uint256","name":"amount","type":"uint256"}],"name":"FeesWithdrawn","type":"event"},{"anonymous":false,"inputs":[{"indexed":true,"internalType":"uint256","name":"campaignId","type":"uint256"},{"indexed":true,"internalType":"uint256","name":"milestoneIndex","type":"uint256"},{"indexed":false,"internalType":"uint256","name":"amount","type":"uint256"}],"name":"MilestoneCreated","type":"event"},{"anonymous":false,"inputs":[{"indexed":true,"internalType":"uint256","name":"campaignId","type":"uint256"},{"indexed":true,"internalType":"uint256","name":"milestoneIndex","type":"uint256"},{"indexed":false,"internalType":"uint256","name":"amount","type":"uint256"}],"name":"MilestoneReleased","type":"event"},{"anonymous":false,"inputs":[{"indexed":true,"internalType":"address","name":"previousOwner","type":"address"},{"indexed":true,"internalType":"address","name":"newOwner","type":"address"}],"name":"OwnershipTransferred","type":"event"},{"anonymous":false,"inputs":[{"indexed":false,"internalType":"address","name":"account","type":"address"}],"name":"Paused","type":"event"},{"anonymous":false,"inputs":[{"indexed":true,"internalType":"uint256","name":"campaignId","type":"uint256"},{"indexed":true,"internalType":"address","name":"contributor","type":"address"},{"indexed":false,"internalType":"uint256","name":"amount","type":"uint256"}],"name":"RefundIssued","type":"event"},{"anonymous":false,"inputs":[{"indexed":false,"internalType":"address","name":"account","type":"address"}],"name":"Unpaused","type":"event"},{"inputs":[],"name":"CAMPAIGN_CREATION_FEE","outputs":[{"internalType":"uint256","name":"","type":"uint256"}],"stateMutability":"view","type":"function"},{"inputs":[{"internalType":"uint256","name":"","type":"uint256"}],"name":"allContributors","outputs":[{"internalType":"address","name":"","type":"address"}],"stateMutability":"view","type":"function"},{"inputs":[{"internalType":"uint256","name":"","type":"uint256"},{"internalType":"uint256","name":"","type":"uint256"}],"name":"campaignContributions","outputs":[{"internalType":"address","name":"contributor","type":"address"},{"internalType":"uint256","name":"amount","type":"uint256"},{"internalType":"uint256","name":"timestamp","type":"uint256"}],"stateMutability":"view","type":"function"},{"inputs":[],"name":"campaignCounter","outputs":[{"internalType":"uint256","name":"","type":"uint256"}],"stateMutability":"view","type":"function"},{"inputs":[{"internalType":"uint256","name":"","type":"uint256"},{"internalType":"uint256","name":"","type":"uint256"}],"name":"campaignMilestones","outputs":[{"internalType":"uint256","name":"id","type":"uint256"},{"internalType":"string","name":"title","type":"string"},{"internalType":"string","name":"description","type":"string"},{"internalType":"uint256","name":"amount","type":"uint256"},{"internalType":"uint256","name":"releaseTime","type":"uint256"},{"internalType":"bool","name":"released","type":"bool"}],"stateMutability":"view","type":"function"},{"inputs":[{"internalType":"uint256","name":"","type":"uint256"}],"name":"campaignReleasedAmount","outputs":[{"internalType":"uint256","name":"","type":"uint256"}],"stateMutability":"view","type":"function"},{"inputs":[{"internalType":"uint256","name":"","type":"uint256"}],"name":"campaigns","outputs":[{"internalType":"uint256","name":"id","type":"uint256"},{"internalType":"address payable","name":"creator","type":"address"},{"internalType":"string","name":"title","type":"string"},{"internalType":"string","name":"description","type":"string"},{"internalType":"string","name":"metadataHash","type":"string"},{"internalType":"uint256","name":"targetAmount","type":"uint256"},{"internalType":"uint256","name":"raisedAmount","type":"uint256"},{"internalType":"uint256","name":"deadline","type":"uint256"},{"internalType":"bool","name":"withdrawn","type":"bool"},{"internalType":"bool","name":"active","type":"bool"},{"internalType":"uint256","name":"createdAt","type":"uint256"},{"internalType":"uint256","name":"contributorsCount","type":"uint256"}],"stateMutability":"view","type":"function"},{"inputs":[],"name":"claimRewards","outputs":[],"stateMutability":"nonpayable","type":"function"},{"inputs":[{"internalType":"uint256","name":"_campaignId","type":"uint256"}],"name":"contributeToCampaign","outputs":[],"stateMutability":"payable","type":"function"},{"inputs":[{"internalType":"uint256","name":"","type":"uint256"},{"internalType":"address","name":"","type":"address"}],"name":"contributions","outputs":[{"internalType":"uint256","name":"","type":"uint256"}],"stateMutability":"view","type":"function"},{"inputs":[{"internalType":"string","name":"_title","type":"string"},{"internalType":"string","name":"_description","type":"string"},{"internalType":"string","name":"_metadataHash","type":"string"},{"internalType":"uint256","name":"_targetAmount","type":"uint256"},{"internalType":"uint256","name":"_duration","type":"uint256"}],"name":"createCampaign","outputs":[],"stateMutability":"payable","type":"function"},{"inputs":[{"internalType":"string","name":"_title","type":"string"},{"internalType":"string","name":"_description","type":"string"},{"internalType":"string","name":"_metadataHash","type":"string"},{"internalType":"uint256","name":"_targetAmount","type":"uint256"},{"internalType":"uint256","name":"_duration","type":"uint256"},{"internalType":"uint256[]","name":"_milestoneAmounts","type":"uint256[]"},{"internalType":"string[]","name":"_milestoneTitles","type":"string[]"},{"internalType":"string[]","name":"_milestoneDescriptions","type":"string[]"},{"internalType":"uint256[]","name":"_milestoneReleaseTimes","type":"uint256[]"}],"name":"createCampaignWithMilestones","outputs":[],"stateMutability":"payable","type":"function"},{"inputs":[{"internalType":"uint256","name":"_campaignId","type":"uint256"}],"name":"deactivateCampaign","outputs":[],"stateMutability":"nonpayable","type":"function"},{"inputs":[{"internalType":"uint256","name":"_campaignId","type":"uint256"},{"internalType":"address","name":"_contributor","type":"address"}],"name":"emergencyRefund","outputs":[],"stateMutability":"nonpayable","type":"function"},{"inputs":[],"name":"emergencyWithdraw","outputs":[],"stateMutability":"nonpayable","type":"function"},{"inputs":[{"internalType":"uint256","name":"_offset","type":"uint256"},{"internalType":"uint256","name":"_limit","type":"uint256"}],"name":"getActiveCampaigns","outputs":[{"components":[{"internalType":"uint256","name":"id","type":"uint256"},{"internalType":"address payable","name":"creator","type":"address"},{"internalType":"string","name":"title","type":"string"},{"internalType":"string","name":"description","type":"string"},{"internalType":"string","name":"metadataHash","type":"string"},{"internalType":"uint256","name":"targetAmount","type":"uint256"},{"internalType":"uint256","name":"raisedAmount","type":"uint256"},{"internalType":"uint256","name":"deadline","type":"uint256"},{"internalType":"bool","name":"withdrawn","type":"bool"},{"internalType":"bool","name":"active","type":"bool"},{"internalType":"uint256","name":"createdAt","type":"uint256"},{"internalType":"uint256","name":"contributorsCount","type":"uint256"}],"internalType":"struct CrowdfundingMarketplace.Campaign[]","name":"","type":"tuple[]"}],"stateMutability":"view","type":"function"},{"inputs":[{"internalType":"uint256","name":"_campaignId","type":"uint256"}],"name":"getCampaign","outputs":[{"components":[{"internalType":"uint256","name":"id","type":"uint256"},{"internalType":"address payable","name":"creator","type":"address"},{"internalType":"string","name":"title","type":"string"},{"internalType":"string","name":"description","type":"string"},{"internalType":"string","name":"metadataHash","type":"string"},{"internalType":"uint256","name":"targetAmount","type":"uint256"},{"internalType":"uint256","name":"raisedAmount","type":"uint256"},{"internalType":"uint256","name":"deadline","type":"uint256"},{"internalType":"bool","name":"withdrawn","type":"bool"},{"internalType":"bool","name":"active","type":"bool"},{"internalType":"uint256","name":"createdAt","type":"uint256"},{"internalType":"uint256","name":"contributorsCount","type":"uint256"}],"internalType":"struct CrowdfundingMarketplace.Campaign","name":"","type":"tuple"}],"stateMutability":"view","type":"function"},{"inputs":[{"internalType":"uint256","name":"_campaignId","type":"uint256"}],"name":"getCampaignContributions","outputs":[{"components":[{"internalType":"address","name":"contributor","type":"address"},{"internalType":"uint256","name":"amount","type":"uint256"},{"internalType":"uint256","name":"timestamp","type":"uint256"}],"internalType":"struct CrowdfundingMarketplace.Contribution[]","name":"","type":"tuple[]"}],"stateMutability":"view","type":"function"},{"inputs":[{"internalType":"uint256","name":"_campaignId","type":"uint256"}],"name":"getCampaignMilestones","outputs":[{"components":[{"internalType":"uint256","name":"id","type":"uint256"},{"internalType":"string","name":"title","type":"string"},{"internalType":"string","name":"description","type":"string"},{"internalType":"uint256","name":"amount","type":"uint256"},{"internalType":"uint256","name":"releaseTime","type":"uint256"},{"internalType":"bool","name":"released","type":"bool"}],"internalType":"struct CrowdfundingMarketplace.Milestone[]","name":"","type":"tuple[]"}],"stateMutability":"view","type":"function"},{"inputs":[{"internalType":"uint256","name":"_campaignId","type":"uint256"}],"name":"getCampaignStats","outputs":[{"internalType":"uint256","name":"raisedAmount","type":"uint256"},{"internalType":"uint256","name":"targetAmount","type":"uint256"},{"internalType":"uint256","name":"contributorsCount","type":"uint256"},{"internalType":"uint256","name":"timeLeft","type":"uint256"},{"internalType":"bool","name":"isActive","type":"bool"},{"internalType":"bool","name":"isSuccessful","type":"bool"}],"stateMutability":"view","type":"function"},{"inputs":[],"name":"getContractStats","outputs":[{"internalType":"uint256","name":"totalCampaigns","type":"uint256"},{"internalType":"uint256","name":"totalFees","type":"uint256"},{"internalType":"uint256","name":"contractBalance","type":"uint256"}],"stateMutability":"view","type":"function"},{"inputs":[{"internalType":"uint256","name":"_campaignId","type":"uint256"},{"internalType":"address","name":"_contributor","type":"address"}],"name":"getContribution","outputs":[{"internalType":"uint256","name":"","type":"uint256"}],"stateMutability":"view","type":"function"},{"inputs":[{"internalType":"uint256","name":"_campaignId","type":"uint256"}],"name":"getRefund","outputs":[],"stateMutability":"nonpayable","type":"function"},{"inputs":[{"internalType":"uint256","name":"topN","type":"uint256"}],"name":"getTopContributors","outputs":[{"internalType":"address[]","name":"","type":"address[]"},{"internalType":"uint256[]","name":"","type":"uint256[]"}],"stateMutability":"view","type":"function"},{"inputs":[{"internalType":"address","name":"_user","type":"address"}],"name":"getUserCampaigns","outputs":[{"internalType":"uint256[]","name":"","type":"uint256[]"}],"stateMutability":"view","type":"function"},{"inputs":[{"internalType":"address","name":"_user","type":"address"}],"name":"getUserContributions","outputs":[{"internalType":"uint256[]","name":"","type":"uint256[]"}],"stateMutability":"view","type":"function"},{"inputs":[{"internalType":"address","name":"user","type":"address"}],"name":"getUserRewards","outputs":[{"components":[{"internalType":"uint256","name":"id","type":"uint256"},{"internalType":"uint256","name":"amount","type":"uint256"},{"internalType":"bool","name":"claimed","type":"bool"}],"internalType":"struct CrowdfundingMarketplace.Reward[]","name":"","type":"tuple[]"}],"stateMutability":"view","type":"function"},{"inputs":[{"internalType":"uint256","name":"_campaignId","type":"uint256"}],"name":"isCampaignSuccessful","outputs":[{"internalType":"bool","name":"","type":"bool"}],"stateMutability":"view","type":"function"},{"inputs":[],"name":"owner","outputs":[{"internalType":"address","name":"","type":"address"}],"stateMutability":"view","type":"function"},{"inputs":[],"name":"pause","outputs":[],"stateMutability":"nonpayable","type":"function"},{"inputs":[],"name":"paused","outputs":[{"internalType":"bool","name":"","type":"bool"}],"stateMutability":"view","type":"function"},{"inputs":[{"internalType":"uint256","name":"_campaignId","type":"uint256"}],"name":"reactivateCampaign","outputs":[],"stateMutability":"nonpayable","type":"function"},{"inputs":[{"internalType":"uint256","name":"_campaignId","type":"uint256"},{"internalType":"uint256","name":"_milestoneIndex","type":"uint256"}],"name":"releaseMilestone","outputs":[],"stateMutability":"nonpayable","type":"function"},{"inputs":[],"name":"renounceOwnership","outputs":[],"stateMutability":"nonpayable","type":"function"},{"inputs":[{"internalType":"address","name":"","type":"address"}],"name":"totalContributions","outputs":[{"internalType":"uint256","name":"","type":"uint256"}],"stateMutability":"view","type":"function"},{"inputs":[],"name":"totalFeesCollected","outputs":[{"internalType":"uint256","name":"","type":"uint256"}],"stateMutability":"view","type":"function"},{"inputs":[{"internalType":"address","name":"newOwner","type":"address"}],"name":"transferOwnership","outputs":[],"stateMutability":"nonpayable","type":"function"},{"inputs":[],"name":"unpause","outputs":[],"stateMutability":"nonpayable","type":"function"},{"inputs":[{"internalType":"address","name":"","type":"address"},{"internalType":"uint256","name":"","type":"uint256"}],"name":"userCampaigns","outputs":[{"internalType":"uint256","name":"","type":"uint256"}],"stateMutability":"view","type":"function"},{"inputs":[{"internalType":"address","name":"","type":"address"},{"internalType":"uint256","name":"","type":"uint256"}],"name":"userContributions","outputs":[{"internalType":"uint256","name":"","type":"uint256"}],"stateMutability":"view","type":"function"},{"inputs":[{"internalType":"address","name":"","type":"address"},{"internalType":"uint256","name":"","type":"uint256"}],"name":"userRewards","outputs":[{"internalType":"uint256","name":"id","type":"uint256"},{"internalType":"uint256","name":"amount","type":"uint256"},{"internalType":"bool","name":"claimed","type":"bool"}],"stateMutability":"view","type":"function"},{"inputs":[{"internalType":"uint256","name":"_campaignId","type":"uint256"}],"name":"withdrawCampaignFunds","outputs":[],"stateMutability":"nonpayable","type":"function"},{"inputs":[{"internalType":"uint256","name":"_amount","type":"uint256"}],"name":"withdrawFees","outputs":[],"stateMutability":"nonpayable","type":"function"},{"stateMutability":"payable","type":"receive"}],"evm":{"bytecode":{"linkReferences":{},"object":"608080604052346100635760016000556001543360018060a01b0382167f8be0079c531659141344cd1fd0a4f28419497f9722a3daafe3b4186f6b6457e0600080a36001600160a81b0319163360ff60a01b19161760015561400990816100698239f35b600080fdfe6080604052600436101561001b575b361561001957600080fd5b005b60003560e01c806306db57bb146133cf578063078b0fb7146132e05780630b7ef89b14612f2757806314169e2a14612d09578063141961bc14612c0f57806319ac74bd14612bc55780631fdc217c14612b1a5780633178492a14612a78578063372500ab146129385780633d891f59146105035780633f4ba83a1461289c578063539157bd146128425780635598f8cc1461273b5780635c975abb146127155780635e318e07146125ee57806360c6d8ae146125d057806363c2a20a14612560578063660bf9de1461241d578063715018a6146123c05780637331fa951461236857806377719516146118525780637eca30fe146117fc5780637ed3deba146117c25780638456cb59146117605780638da5cb5b14611737578063980f2e6614610ffc578063a1e5084c14610f85578063b653145814610f0d578063c4b8d53d14610eea578063d2f0be9914610d67578063d3b0c32c14610c7d578063dae21c5814610b7c578063db2e21bc14610b20578063dbaf0910146107c3578063de710365146105ba578063dfe6b5d61461058d578063e07439f71461054b578063e081dbf914610503578063e36465a314610474578063f2fde38b146103b0578063f755a8fb14610384578063f91e4b291461021c5763fca604d70361000e5734610217576000366003190112610217576020600354604051908152f35b600080fd5b346102175760208060031936011261021757600435600052600590818152604060002080549161024b83613843565b92610259604051948561357c565b8084528184018093600052826000206000915b8383106103185750505050604051928184019082855251809152604081818601961b85010192916000955b8287106102a45785850386f35b909192938280600192603f19898203018552875190815181526102e86102d68484015160c08087860152840190613643565b60408401518382036040850152613643565b91606080820151908301526080808201519083015260a08091015115159101529601920196019592919092610297565b60068560019260409997995161032d81613561565b8554815261033c85870161359d565b8382015261034c6002870161359d565b6040820152600386015460608201526004860154608082015260ff8c87015416151560a082015281520192019201919095939561026c565b346102175760203660031901126102175760043560005260066020526020604060002054604051908152f35b34610217576020366003190112610217576103c96134c4565b6103d161396c565b6001600160a01b0390811690811561042057600154826001600160601b0360a01b821617600155167f8be0079c531659141344cd1fd0a4f28419497f9722a3daafe3b4186f6b6457e0600080a3005b60405162461bcd60e51b815260206004820152602660248201527f4f776e61626c653a206e6577206f776e657220697320746865207a65726f206160448201526564647265737360d01b6064820152608490fd5b3461021757602080600319360112610217576001600160a01b036104966134c4565b16600052600a8152604060002090604051808383829554938481520190600052836000209260005b858282106104ed575050506104d59250038361357c565b6104e9604051928284938452830190613938565b0390f35b85548452600195860195889550930192016104be565b346102175760403660031901126102175761051c6134da565b600435600052600760205260406000209060018060a01b03166000526020526020604060002054604051908152f35b3461021757602036600319011261021757600435600d5481101561021757610574602091613683565b905460405160039290921b1c6001600160a01b03168152f35b34610217576000366003190112610217576060600354600254479060405192835260208301526040820152f35b34610217576020806003193601126102175760043590600d548083116107bb575b6105e483613fa1565b926105ee81613843565b916105fc604051938461357c565b818352601f1961060b83613843565b01368585013761061a81613fa1565b60005b82811061078d575060005b83811061068657505050506040519160408301604084528451809152816060850195019060005b818110610669578587038487015285806104e98988613938565b82516001600160a01b03168752958301959183019160010161064f565b806001600160a01b038061069a8386613b35565b5116600052600c918289526040600020549260018501808611610777575b878110610724575050908392916106f7826106d661071f9789613b35565b511691836106e4828a613b35565b51166106f0878a613b35565b5287613b35565b526107028386613b35565b511661070e838b613b35565b526107198288613b35565b52613a1b565b610628565b8361072f8289613b35565b5116600052818b528460406000205411610752575b61074d90613a1b565b6106b8565b91509250816107618287613b35565b51166000908152838a5260409020549281610744565b634e487b7160e01b600052601160045260246000fd5b8061079a6107b692613683565b905460039190911b1c6001600160a01b03166107198285613b35565b61061d565b9150816105db565b34610217576107d1366136e8565b906107da613adf565b80151580610b14575b15610ad957806000526020600481526040600020600181019060018060a01b0390610812828454163314613bd0565b6005600682015491015411610a945783600052600583526108378560406000206136fe565b5091600583019283549360ff8516610a4f57876109db575b60048201548061097f575b50600347920194855480931061093a5793600094938594938594936001869560ff19161790558984526006895261089660408520918254613a2a565b905554168554905af13d15610935573d6108af816137e1565b906108bd604051928361357c565b81526000843d92013e5b156108fe57907fd33fcd27cbfb73a2d9058c968b560ccb306500bf536133802048489ecc7355e99154604051908152a36001600055005b60405162461bcd60e51b815260048101839052600f60248201526e151c985b9cd9995c8819985a5b1959608a1b6044820152606490fd5b6108c7565b60405162461bcd60e51b815260048101889052601d60248201527f436f6e74726163742062616c616e636520696e73756666696369656e740000006044820152606490fd5b421061098b578861085a565b60405162461bcd60e51b815260048101879052602260248201527f4d696c6573746f6e65206c6f636b656420756e74696c2072656c6561736554696044820152616d6560f01b6064820152608490fd5b86600052600586526040600020600019890189811161077757610a0260059160ff936136fe565b5001541661084f5760405162461bcd60e51b815260048101879052601c60248201527f52656c656173652070726576206d696c6573746f6e65206669727374000000006044820152606490fd5b60405162461bcd60e51b815260048101879052601a60248201527f4d696c6573746f6e6520616c72656164792072656c65617365640000000000006044820152606490fd5b60405162461bcd60e51b815260048101849052601960248201527f43616d706169676e206e6f742066756c6c792066756e646564000000000000006044820152606490fd5b60405162461bcd60e51b8152602060048201526013602482015272125b9d985b1a590818d85b5c185a59db881a59606a1b6044820152606490fd5b506003548111156107e3565b3461021757600036600319011261021757610b3961396c565b610b41613adf565b60008080804760018060a01b0360015416828215610b73575bf115610b67576001600055005b6040513d6000823e3d90fd5b506108fc610b5a565b3461021757604036600319011261021757600435610b986134da565b90610ba161396c565b610ba9613adf565b8060005260206007815260406000209260018060a01b031692836000528152610bd86040600020541515613c57565b8160005260078152604060002083600052815260406000205490826000526007815260406000208460005281526000604081205582600052600481526006604060002001610c27838254613a6c565b9055600082858115610c73575b600092839283928392f115610b67577f7a482fdeb6bc9a1376f597068a214a7a39472bb2eff1b8cad21ba04f49ddca1b91604051908152a36001600055005b6108fc9250610c34565b346102175760208060031936011261021757600435600052600881526040600020908154610caa81613843565b90610cb8604051928361357c565b8082528282018094600052836000206000915b838310610d2a5760408051878152865181890181905289928201908960005b828110610cf75784840385f35b855180516001600160a01b0316855280830151858401526040908101519085015294810194606090930192600101610cea565b600386600192604051610d3c81613546565b848060a01b038654168152848601548382015260028601546040820152815201920192019190610ccb565b34610217576020806003193601126102175760043580151580610ede575b610d8e90613b49565b8060005260048252610dad60ff60086040600020015460081c16613b8b565b8060005260048252610dc9600760406000200154421015613c13565b610dd1613adf565b80600052600482526040600020600560068201549101541115610e995780600052600782526040600020336000528252610e116040600020541515613c57565b806000526007825260406000203360005282526040600020549181600052600781526040600020336000528152600060408120558260008115610e90575b600080809381933390f115610b67577f7a482fdeb6bc9a1376f597068a214a7a39472bb2eff1b8cad21ba04f49ddca1b906040519384523393a36001600055005b506108fc610e4f565b60405162461bcd60e51b815260048101839052601760248201527f43616d706169676e20776173207375636365737366756c0000000000000000006044820152606490fd5b50600354811115610d85565b34610217576000366003190112610217576020604051670de0b6b3a76400008152f35b3461021757610f24610f1e366136e8565b90613cf7565b60405160209182820192808352815180945260408301938160408260051b8601019301916000955b828710610f595785850386f35b909192938280610f75600193603f198a82030186528851613736565b9601920196019592919092610f4c565b3461021757602080600319360112610217576001600160a01b03610fa76134c4565b1660005260098152604060002090604051808383829554938481520190600052836000209260005b85828210610fe6575050506104d59250038361357c565b8554845260019586019588955093019201610fcf565b60a0366003190112610217576004356001600160401b038111610217576110279036906004016137fc565b6024356001600160401b038111610217576110469036906004016137fc565b906044356001600160401b038111610217576110669036906004016137fc565b90608435611072613a98565b61107a613adf565b61108e670de0b6b3a76400003410156139c4565b606435156116e65780156116a1578151156116645782511561161f576110c36110b8600354613a1b565b918260035542613a2a565b93604051926110d18461352a565b8284523360208501526040840152606083015282608083015260643560a0830152600060c08301528360e0830152600061010083015260016101208301524261014083015260006101608301526000526004602052604060002090805182556001820160018060a01b036020830151166001600160601b0360a01b82541617905560408101518051906001600160401b03821161146957819061117760028601546134f0565b601f81116115cc575b50602090601f831160011461155a5760009261154f575b50508160011b916000199060031b1c19161760028301555b60608101518051906001600160401b0382116114695781906111d460038601546134f0565b601f81116114fc575b50602090601f831160011461148a5760009261147f575b50508160011b916000199060031b1c19161760038301555b60808101518051906001600160401b0382116114695761122f60048501546134f0565b601f8111611422575b50602090601f83116001146113ac579180600a9492610160946000926113a1575b50508160011b916000199060031b1c19161760048501555b60a0810151600585015560c0810151600685015560e081015160078501556112cf600885016112b36101008401511515829060ff801983541691151516179055565b610120830151815461ff00191690151560081b61ff0016179055565b610140810151600985015501519101553360005260096020526112f9604060002060035490613a37565b600254670de0b6b3a7640000810180911161077757600255670de0b6b3a76400003411611364575b7f2e64da7e06e88ccd84d69eccb21119ca81e40e5648611e89edfe888c8fa6259761135a60035492604051918291339660643584613a79565b0390a36001600055005b670de0b6b3a763ffff19340134811161077757600080808093818115611398575b3390f1611321576040513d6000823e3d90fd5b506108fc611385565b015190508880611259565b906004850160005260206000209160005b601f198516811061140a575092600a94926001926101609583601f198116106113f1575b505050811b016004850155611271565b015160001960f88460031b161c191690558880806113e1565b919260206001819286850151815501940192016113bd565b600485016000526020600020601f840160051c810160208510611462575b601f830160051c82018110611456575050611238565b60008155600101611440565b5080611440565b634e487b7160e01b600052604160045260246000fd5b0151905086806111f4565b9250600385016000526020600020906000935b601f19841685106114e1576001945083601f198116106114c8575b505050811b01600383015561120c565b015160001960f88460031b161c191690558680806114b8565b8181015183556020948501946001909301929091019061149d565b909150600385016000526020600020601f840160051c810160208510611548575b90849392915b601f830160051c820181106115395750506111dd565b60008155859450600101611523565b508061151d565b015190508680611197565b9250600285016000526020600020906000935b601f19841685106115b1576001945083601f19811610611598575b505050811b0160028301556111af565b015160001960f88460031b161c19169055868080611588565b8181015183556020948501946001909301929091019061156d565b909150600285016000526020600020601f840160051c810160208510611618575b90849392915b601f830160051c82018110611609575050611180565b600081558594506001016115f3565b50806115ed565b60405162461bcd60e51b815260206004820152601d60248201527f4d6574616461746120686173682063616e6e6f7420626520656d7074790000006044820152606490fd5b60405162461bcd60e51b81526020600482015260156024820152745469746c652063616e6e6f7420626520656d70747960581b6044820152606490fd5b60405162461bcd60e51b815260206004820152601f60248201527f4475726174696f6e206d7573742062652067726561746572207468616e2030006044820152606490fd5b60405162461bcd60e51b8152602060048201526024808201527f54617267657420616d6f756e74206d75737420626520677265617465722074686044820152630616e20360e41b6064820152608490fd5b34610217576000366003190112610217576001546040516001600160a01b039091168152602090f35b346102175760003660031901126102175761177961396c565b611781613a98565b6001805460ff60a01b1916600160a01b1790556040513381527f62e78cea01bee320cd4e420270b5ea74000d11b0c9f74754ebdbfc544b05a25890602090a1005b34610217576020366003190112610217576001600160a01b036117e36134c4565b16600052600c6020526020604060002054604051908152f35b346102175760203660031901126102175760043561181861396c565b80151580611846575b61182a90613b49565b6000908152600460205260409020600801805461ff0019169055005b50600354811115611821565b610120366003190112610217576004356001600160401b0381116102175761187e9036906004016137fc565b6024356001600160401b0381116102175761189d9036906004016137fc565b906044356001600160401b038111610217576118bd9036906004016137fc565b9160a4356001600160401b038111610217576118dd90369060040161385a565b9260c4356001600160401b038111610217576118fd9036906004016138b8565b60e4356001600160401b0381116102175761191c9036906004016138b8565b90610104356001600160401b0381116102175761193d90369060040161385a565b90611946613a98565b61194e613adf565b611962670de0b6b3a76400003410156139c4565b6064351561232e57608435156122f2578651156122ad5786518151811490816122a2575b81612297575b501561224857600094855b88518710156119c4576119b86119be916119b1898c613b35565b5190613a2a565b96613a1b565b95611997565b8896508790606435036121f8576119dc600354613a1b565b806003556119ec60843542613a2a565b92604051926119fa8461352a565b8284523360208501526040840152606083015286608083015260643560a0830152600060c08301528260e0830152600061010083015260016101208301524261014083015260006101608301526000526004602052604060002090805182556001820160018060a01b036020830151166001600160601b0360a01b82541617905560408101518051906001600160401b038211611469578190611aa060028601546134f0565b601f81116121a5575b50602090601f831160011461213357600092612128575b50508160011b916000199060031b1c19161760028301555b60608101518051906001600160401b038211611469578190611afd60038601546134f0565b601f81116120d5575b50602090601f831160011461206357600092612058575b50508160011b916000199060031b1c19161760038301555b60808101518051906001600160401b03821161146957611b5860048501546134f0565b601f8111612011575b50602090601f8311600114611f9b579180600a949261016094600092611f90575b50508160011b916000199060031b1c19161760048501555b60a0810151600585015560c0810151600685015560e08101516007850155611bdc600885016112b36101008401511515829060ff801983541691151516179055565b6101408101516009850155015191015560005b8651811015611f7457611c028184613b35565b51611c0d8287613b35565b51611c18838a613b35565b51611c238488613b35565b519160405193611c3285613561565b8585526020850152604084015260608301526080820152600060a0820152600354600052600560205260406000208054600160401b81101561146957611c7d916001820181556136fe565b919091611f5e578051825560208101518051906001600160401b038211611469578190611cad60018601546134f0565b601f8111611f0b575b50602090601f8311600114611e9957600092611e8e575b50508160011b916000199060031b1c19161760018301555b60408101518051906001600160401b03821161146957611d0860028501546134f0565b601f8111611e47575b50602090601f8311600114611dca57611d7c9383611dba97969460059460a094600092611dbf575b50508160011b916000199060031b1c19161760028501555b60608101516003850155608081015160048501550151151591019060ff801983541691151516179055565b806003547fb59c2d823e6ca395c24829d80f43a97d9c6fd711596372c5a4663af872f4b9d26020611dad848d613b35565b51604051908152a3613a1b565b611bef565b015190508f80611d39565b906002850160005260206000209160005b601f1985168110611e2f57509360018460059460a094611d7c98611dba9b9a98601f19811610611e16575b505050811b016002850155611d51565b015160001960f88460031b161c191690558f8080611e06565b91926020600181928685015181550194019201611ddb565b600285016000526020600020601f840160051c810160208510611e87575b601f830160051c82018110611e7b575050611d11565b60008155600101611e65565b5080611e65565b015190508b80611ccd565b9250600185016000526020600020906000935b601f1984168510611ef0576001945083601f19811610611ed7575b505050811b016001830155611ce5565b015160001960f88460031b161c191690558b8080611ec7565b81810151835560209485019460019093019290910190611eac565b909150600185016000526020600020601f840160051c810160208510611f57575b90849392915b601f830160051c82018110611f48575050611cb6565b60008155859450600101611f32565b5080611f2c565b634e487b7160e01b600052600060045260246000fd5b50843360005260096020526112f9604060002060035490613a37565b015190508c80611b82565b906004850160005260206000209160005b601f1985168110611ff9575092600a94926001926101609583601f19811610611fe0575b505050811b016004850155611b9a565b015160001960f88460031b161c191690558c8080611fd0565b91926020600181928685015181550194019201611fac565b600485016000526020600020601f840160051c810160208510612051575b601f830160051c82018110612045575050611b61565b6000815560010161202f565b508061202f565b015190508a80611b1d565b9250600385016000526020600020906000935b601f19841685106120ba576001945083601f198116106120a1575b505050811b016003830155611b35565b015160001960f88460031b161c191690558a8080612091565b81810151835560209485019460019093019290910190612076565b909150600385016000526020600020601f840160051c810160208510612121575b90849392915b601f830160051c82018110612112575050611b06565b600081558594506001016120fc565b50806120f6565b015190508a80611ac0565b9250600285016000526020600020906000935b601f198416851061218a576001945083601f19811610612171575b505050811b016002830155611ad8565b015160001960f88460031b161c191690558a8080612161565b81810151835560209485019460019093019290910190612146565b909150600285016000526020600020601f840160051c8101602085106121f1575b90849392915b601f830160051c820181106121e2575050611aa9565b600081558594506001016121cc565b50806121c6565b60405162461bcd60e51b815260206004820152602260248201527f4d696c6573746f6e657320746f74616c206d75737420657175616c2074617267604482015261195d60f21b6064820152608490fd5b60405162461bcd60e51b815260206004820152602160248201527f4d696c6573746f6e657320617272617973206c656e677468206d69736d6174636044820152600d60fb1b6064820152608490fd5b90508251148861198c565b845181149150611986565b60405162461bcd60e51b815260206004820152601a60248201527f416464206174206c65617374206f6e65206d696c6573746f6e650000000000006044820152606490fd5b60405162461bcd60e51b815260206004820152601460248201527304475726174696f6e206d757374206265203e20360641b6044820152606490fd5b60405162461bcd60e51b81526020600482015260126024820152710546172676574206d757374206265203e20360741b6044820152606490fd5b34610217576040366003190112610217576123816134c4565b6001600160a01b03166000908152600a6020526040902080546024359190821015610217576020916123b2916136d0565b90546040519160031b1c8152f35b34610217576000366003190112610217576123d961396c565b600180546001600160a01b031981169091556000906001600160a01b03167f8be0079c531659141344cd1fd0a4f28419497f9722a3daafe3b4186f6b6457e08280a3005b346102175760203660031901126102175760043580151580612554575b61244390613b49565b600052600460205260c0604060002060405161245e8161352a565b8154815260018201546001600160a01b031660208201526124816002830161359d565b60408201526124926003830161359d565b60608201526124a36004830161359d565b608082015260058201549060a0810192828452610160600682015494868401938685526007840154908160e0820152600a60088601549560ff8716151561010084015260ff61012084019760081c16151587526009810154610140840152015493849101528042101560001461254357506000925b51151593519051111593604051958652602086015260408501526060840152608083015260a0820152f35b61254e904290613a6c565b92612518565b5060035481111561243a565b34610217576040366003190112610217576125796134c4565b6001600160a01b03166000908152600b6020526040902080546024359190821015610217576060916125aa9161371a565b5080549060ff600260018301549201541690604051928352602083015215156040820152f35b34610217576000366003190112610217576020600254604051908152f35b346102175760203660031901126102175760043561260a61396c565b612612613adf565b6002548082116126d05747821161268b578161262d91613a6c565b60025560008080808460018060a01b0360015416828215612682575bf115610b67576040519081527fc0819c13be868895eb93e40eaceb96de976442fa1d404e5c55f14bb65a8c489a60203392a26001600055005b506108fc612649565b60405162461bcd60e51b815260206004820152601d60248201527f496e73756666696369656e7420636f6e74726163742062616c616e63650000006044820152606490fd5b60405162461bcd60e51b815260206004820152601860248201527f496e73756666696369656e74206665652062616c616e636500000000000000006044820152606490fd5b3461021757600036600319011261021757602060ff60015460a01c166040519015158152f35b3461021757602036600319011261021757600435612757613c9b565b5080151580612836575b61276a90613b49565b60005260046020526104e96040600020600a604051916127898361352a565b8054835260018101546001600160a01b031660208401526127ac6002820161359d565b60408401526127bd6003820161359d565b60608401526127ce6004820161359d565b6080840152600581015460a0840152600681015460c0840152600781015460e084015260ff6008820154818116151561010086015260081c16151561012084015260098101546101408401520154610160820152604051918291602083526020830190613736565b50600354811115612761565b3461021757612850366136e8565b90600052600860205260406000208054821015610217576060916128739161371a565b5060018060a01b0381541690600260018201549101549060405192835260208301526040820152f35b34610217576000366003190112610217576128b561396c565b60015460ff8160a01c16156128fc5760ff60a01b19166001556040513381527f5db9ee0a495bf2e6ff9c91a7834c1ba4fdd244a5e8aa4e537bd38aeae4b073aa90602090a1005b60405162461bcd60e51b815260206004820152601460248201527314185d5cd8589b194e881b9bdd081c185d5cd95960621b6044820152606490fd5b3461021757600036600319011261021757612951613adf565b33600052600b602052604060002060009060005b81548110156129d557612978818361371a565b5060ff6002809201541615612997575b5061299290613a1b565b612965565b9290612992916129b86129aa838661371a565b509160018093015490613a2a565b946129c3838661371a565b50019060ff1982541617905590612988565b828015612a3d578047106129f8576000808080933382f115610b67576001600055005b60405162461bcd60e51b815260206004820152601f60248201527f436f6e74726163742068617320696e73756666696369656e742066756e6473006044820152606490fd5b60405162461bcd60e51b81526020600482015260136024820152724e6f207265776172647320746f20636c61696d60681b6044820152606490fd5b3461021757612a86366136e8565b906000526005602052604060002090815481101561021757612aa7916136fe565b508054612ab66001830161359d565b91612ac36002820161359d565b600382015491612b0460ff600560048401549301541692612af6604051978897885260c0602089015260c0880190613643565b908682036040880152613643565b9260608501526080840152151560a08301520390f35b3461021757602036600319011261021757600435612b3661396c565b80151580612bb9575b612b4890613b49565b806000526004602052600760406000200154421015612b81576000908152600460205260409020600801805461ff001916610100179055005b60405162461bcd60e51b815260206004820152601060248201526f10d85b5c185a59db88195e1c1a5c995960821b6044820152606490fd5b50600354811115612b3f565b3461021757604036600319011261021757612bde6134c4565b6001600160a01b0316600090815260096020526040902080546024359190821015610217576020916123b2916136d0565b346102175760203660031901126102175760048035600090815260209190915260409020805460018201546001600160a01b031691612c506002820161359d565b612c5c6003830161359d565b91612c696004820161359d565b926005820154936006830154600784015491600885015493600986015495600a0154966040519a8b9a8b5260208b01526101808060408c01528a01612cad91613643565b89810360608b0152612cbe91613643565b88810360808a0152612ccf91613643565b9560a088015260c087015260e086015260ff8116151561010086015260081c60ff1615156101208501526101408401526101608301520390f35b34610217576020806003193601126102175760043580151580612f1b575b612d3090613b49565b8060005260048252612d4f60ff60086040600020015460081c16613b8b565b806000526004825260018060a01b03612d7381600160406000200154163314613bd0565b8160005260048352612d8f600760406000200154421015613c13565b612d97613adf565b81600052600483526040600020600881019182549160ff8316612ed657600681019384549360058301548510612e91578660005260058852604060002054612e3c5760ff1916600190811790915501546000928392839283929116828215612e33575bf115610b67575460405190815233927f076f7a439d190ed0f7882eacff83199cda95f20b1cf940a11192a967e6e7cdcf91a36001600055005b506108fc612dfa565b60405162461bcd60e51b815260048101899052602760248201527f57697468647261772064697361626c6564207768656e206d696c6573746f6e656044820152661cc8195e1a5cdd60ca1b6064820152608490fd5b60405162461bcd60e51b815260048101899052601b60248201527f43616d706169676e20746172676574206e6f74207265616368656400000000006044820152606490fd5b60405162461bcd60e51b815260048101879052601760248201527f46756e647320616c72656164792077697468647261776e0000000000000000006044820152606490fd5b50600354811115612d27565b60208060031936011261021757600435801515806132d4575b612f4990613b49565b8060005260048252612f6860ff60086040600020015460081c16613b8b565b806000526004825260076040600020015442101561329a57612f88613a98565b612f90613adf565b341561324957806000526004825260018060a01b036001928184604060002001541633146131fb578260005260048152604060002091600782526040600020336000528252604060002054156131d0575b33600052600c82526040600020541561319b575b33600052600c8252604060002061300d348254613a2a565b9055836000526007825260406000203360005282526040600020613032348254613a2a565b905560068301613043348254613a2a565b8155846000526008835260406000209160405161305f81613546565b3381528481013481526040820190428252855495600160401b96878110156114695761308f918c8201815561371a565b949094611f5e5760029351166001600160601b0360a01b85541617845551898401555191015533600052600b835260406000206040516130ce81613546565b87815284810191600a34048352604082019460008652815490811015611469576130fc918a8201815561371a565b919091611f5e5760059461312b93600292518455518a84015551151591019060ff801983541691151516179055565b604051348152857f0a4a91237423e0a1766a761c7cb029311d8b95d6b1b81db1b949a70c98b4e08e853393a35492015482101561316a575b6000849055005b7f318daf69d77e946364e804495b2184222324b99fddeb42ab5fd25a919f596e8c91604051908152a2818080613163565b600d54600160401b8110156114695780866131b99201600d55613683565b81549060031b908333831b921b1916179055612ff5565b600a83016131de8154613a1b565b905533600052600a82526131f6846040600020613a37565b612fe1565b6084906040519062461bcd60e51b82526004820152602160248201527f43616e6e6f7420636f6e7472696275746520746f206f776e2063616d706169676044820152603760f91b6064820152fd5b60405162461bcd60e51b815260048101839052602360248201527f436f6e747269627574696f6e206d75737420626520677265617465722074686160448201526206e20360ec1b6064820152608490fd5b60405162461bcd60e51b815260048101839052601260248201527110d85b5c185a59db881a185cc8195b99195960721b6044820152606490fd5b50600354811115612f40565b3461021757602080600319360112610217576001600160a01b036133026134c4565b16600052600b8152604060002090815461331b81613843565b90613329604051928361357c565b8082528282018094600052836000206000915b8383106133945760408051878152865181890181905289928201908960005b8281106133685784840385f35b85518051855280830151858401526040908101511515908501529481019460609093019260010161335b565b6003866001926040516133a681613546565b85548152848601548382015260ff6002870154161515604082015281520192019201919061333c565b3461021757602036600319011261021757600435801515806134b8575b6133f590613b49565b6000526004602052602060406000206040516134108161352a565b8154815260018201546001600160a01b0316838201526134326002830161359d565b60408201526134436003830161359d565b60608201526134546004830161359d565b60808201526005820154908160a0820152610160600a6006850154948560c0850152600781015460e085015260ff6008820154818116151561010087015260081c161515610120850152600981015461014085015201549101526040519110158152f35b506003548111156133ec565b600435906001600160a01b038216820361021757565b602435906001600160a01b038216820361021757565b90600182811c92168015613520575b602083101461350a57565b634e487b7160e01b600052602260045260246000fd5b91607f16916134ff565b61018081019081106001600160401b0382111761146957604052565b606081019081106001600160401b0382111761146957604052565b60c081019081106001600160401b0382111761146957604052565b90601f801991011681019081106001600160401b0382111761146957604052565b90604051918260008254926135b1846134f0565b90818452600194858116908160001461362057506001146135dd575b50506135db9250038361357c565b565b9093915060005260209081600020936000915b8183106136085750506135db935082010138806135cd565b855488840185015294850194879450918301916135f0565b9150506135db94506020925060ff191682840152151560051b82010138806135cd565b919082519283825260005b84811061366f575050826000602080949584010152601f8019910116010190565b60208183018101518483018201520161364e565b600d548110156136ba57600d6000527fd7b6990105719101dabeb77144f2a3385c8033acd3af97e9423a695e81ad1eb50190600090565b634e487b7160e01b600052603260045260246000fd5b80548210156136ba5760005260206000200190600090565b6040906003190112610217576004359060243590565b80548210156136ba576000526006602060002091020190600090565b80548210156136ba576000526003602060002091020190600090565b908151815260018060a01b03602083015116602082015261379061377e61376c6040850151610180806040870152850190613643565b60608501518482036060860152613643565b60808401518382036080850152613643565b9160a081015160a083015260c081015160c083015260e081015160e0830152610100808201511515908301526101208082015115159083015261014080820151908301526101608091015191015290565b6001600160401b03811161146957601f01601f191660200190565b81601f8201121561021757803590613813826137e1565b92613821604051948561357c565b8284526020838301011161021757816000926020809301838601378301015290565b6001600160401b0381116114695760051b60200190565b81601f820112156102175780359161387183613843565b9261387f604051948561357c565b808452602092838086019260051b820101928311610217578301905b8282106138a9575050505090565b8135815290830190830161389b565b9080601f83011215610217578135906138d082613843565b926138de604051948561357c565b828452602092838086019160051b8301019280841161021757848301915b84831061390c5750505050505090565b82356001600160401b03811161021757869161392d848480948901016137fc565b8152019201916138fc565b90815180825260208080930193019160005b828110613958575050505090565b83518552938101939281019260010161394a565b6001546001600160a01b0316330361398057565b606460405162461bcd60e51b815260206004820152602060248201527f4f776e61626c653a2063616c6c6572206973206e6f7420746865206f776e65726044820152fd5b156139cb57565b60405162461bcd60e51b815260206004820152602260248201527f496e73756666696369656e742063616d706169676e206372656174696f6e2066604482015261656560f01b6064820152608490fd5b60001981146107775760010190565b9190820180921161077757565b8054600160401b81101561146957613a54916001820181556136d0565b819291549060031b91821b91600019901b1916179055565b9190820391821161077757565b613a959392606092825260208201528160408201520190613643565b90565b60ff60015460a01c16613aa757565b60405162461bcd60e51b815260206004820152601060248201526f14185d5cd8589b194e881c185d5cd95960821b6044820152606490fd5b600260005414613af0576002600055565b60405162461bcd60e51b815260206004820152601f60248201527f5265656e7472616e637947756172643a207265656e7472616e742063616c6c006044820152606490fd5b80518210156136ba5760209160051b010190565b15613b5057565b60405162461bcd60e51b8152602060048201526013602482015272125b9d985b1a590818d85b5c185a59db881251606a1b6044820152606490fd5b15613b9257565b60405162461bcd60e51b815260206004820152601660248201527543616d706169676e206973206e6f742061637469766560501b6044820152606490fd5b15613bd757565b60405162461bcd60e51b81526020600482015260146024820152732737ba1031b0b6b830b4b3b71031b932b0ba37b960611b6044820152606490fd5b15613c1a57565b60405162461bcd60e51b815260206004820152601560248201527443616d706169676e207374696c6c2061637469766560581b6044820152606490fd5b15613c5e57565b60405162461bcd60e51b8152602060048201526015602482015274139bc818dbdb9d1c9a589d5d1a5bdb88199bdd5b99605a1b6044820152606490fd5b60405190613ca88261352a565b8161016060009182815282602082015260606040820152606080820152606060808201528260a08201528260c08201528260e08201528261010082015282610120820152826101408201520152565b81151580613f96575b15613f6157600380549290600060015b85811115613f21575080841015613ef957808491613d2e8584613a2a565b11613ee6575b5050613d3f82613843565b604091613d4e8351928361357c565b838252601f19613d5d85613843565b0160005b818110613ecf575050600091829460015b8881111580613ec6575b15613eba5780600052600460209080825289886000209160088084015491829160ff9384911c169384613dbf575b50505050505050613dba90613a1b565b613d72565b8c908e989e1015613deb575b50505050505050613dde613dba91613a1b565b969038808080808d613daa565b93613dde9693600a93613e4c613eae9894613dba9b9f988f81613e4092519a613e138c61352a565b89548c5260018a01546001600160a01b0316908c0152613e3560028a0161359d565b908b0152870161359d565b6060890152850161359d565b6080870152600584015460a0870152600684015460c0870152600784015460e0870152161515610100850152151561012084015260098101546101408401520154610160820152613e9d8288613b35565b52613ea88187613b35565b50613a1b565b9591388080808b613dcb565b50509550505050505090565b50818510613d7c565b602090613eda613c9b565b82828701015201613d61565b613ef1929350613a6c565b908238613d34565b5050505050604051602081018181106001600160401b03821117611469576040526000815290565b80600052600460205260ff60088060406000200154901c16613f4c575b613f4790613a1b565b613d10565b90613f59613f4791613a1b565b919050613f3e565b60405162461bcd60e51b815260206004820152600d60248201526c125b9d985b1a59081b1a5b5a5d609a1b6044820152606490fd5b506064821115613d00565b90613fab82613843565b613fb8604051918261357c565b8281528092613fc9601f1991613843565b019060203691013756fea2646970667358221220b406b88d0dd9b146e3f8b00ec3c7baf8ede5edb09759586bc619b8a18930a8a064736f6c63430008130033","opcodes":"PUSH1 0x80 DUP1 PUSH1 0x40 MSTORE CALLVALUE PUSH2 0x63 JUMPI PUSH1 0x1 PUSH1 0x0 SSTORE PUSH1 0x1 SLOAD CALLER PUSH1 0x1 DUP1 PUSH1 0xA0 SHL SUB DUP3 AND PUSH32 0x8BE0079C531659141344CD1FD0A4F28419497F9722A3DAAFE3B4186F6B6457E0 PUSH1 0x0 DUP1 LOG3 PUSH1 0x1 PUSH1 0x1 PUSH1 0xA8 SHL SUB NOT AND CALLER PUSH1 0xFF PUSH1 0xA0 SHL NOT AND OR PUSH1 0x1 SSTORE PUSH2 0x4009 SWAP1 DUP2 PUSH2 0x69 DUP3 CODECOPY RETURN JUMPDEST PUSH1 0x0 DUP1 REVERT INVALID PUSH1 0x80 PUSH1 0x40 MSTORE PUSH1 0x4 CALLDATASIZE LT ISZERO PUSH2 0x1B JUMPI JUMPDEST CALLDATASIZE ISZERO PUSH2 0x19 JUMPI PUSH1 0x0 DUP1 REVERT JUMPDEST STOP JUMPDEST PUSH1 0x0 CALLDATALOAD PUSH1 0xE0 SHR DUP1 PUSH4 0x6DB57BB EQ PUSH2 0x33CF JUMPI DUP1 PUSH4 0x78B0FB7 EQ PUSH2 0x32E0 JUMPI DUP1 PUSH4 0xB7EF89B EQ PUSH2 0x2F27 JUMPI DUP1 PUSH4 0x14169E2A EQ PUSH2 0x2D09 JUMPI DUP1 PUSH4 0x141961BC EQ PUSH2 0x2C0F JUMPI DUP1 PUSH4 0x19AC74BD EQ PUSH2 0x2BC5 JUMPI DUP1 PUSH4 0x1FDC217C EQ PUSH2 0x2B1A JUMPI DUP1 PUSH4 0x3178492A EQ PUSH2 0x2A78 JUMPI DUP1 PUSH4 0x372500AB EQ PUSH2 0x2938 JUMPI DUP1 PUSH4 0x3D891F59 EQ PUSH2 0x503 JUMPI DUP1 PUSH4 0x3F4BA83A EQ PUSH2 0x289C JUMPI DUP1 PUSH4 0x539157BD EQ PUSH2 0x2842 JUMPI DUP1 PUSH4 0x5598F8CC EQ PUSH2 0x273B JUMPI DUP1 PUSH4 0x5C975ABB EQ PUSH2 0x2715 JUMPI DUP1 PUSH4 0x5E318E07 EQ PUSH2 0x25EE JUMPI DUP1 PUSH4 0x60C6D8AE EQ PUSH2 0x25D0 JUMPI DUP1 PUSH4 0x63C2A20A EQ PUSH2 0x2560 JUMPI DUP1 PUSH4 0x660BF9DE EQ PUSH2 0x241D JUMPI DUP1 PUSH4 0x715018A6 EQ PUSH2 0x23C0 JUMPI DUP1 PUSH4 0x7331FA95 EQ PUSH2 0x2368 JUMPI DUP1 PUSH4 0x77719516 EQ PUSH2 0x1852 JUMPI DUP1 PUSH4 0x7ECA30FE EQ PUSH2 0x17FC JUMPI DUP1 PUSH4 0x7ED3DEBA EQ PUSH2 0x17C2 JUMPI DUP1 PUSH4 0x8456CB59 EQ PUSH2 0x1760 JUMPI DUP1 PUSH4 0x8DA5CB5B EQ PUSH2 0x1737 JUMPI DUP1 PUSH4 0x980F2E66 EQ PUSH2 0xFFC JUMPI DUP1 PUSH4 0xA1E5084C EQ PUSH2 0xF85 JUMPI DUP1 PUSH4 0xB6531458 EQ PUSH2 0xF0D JUMPI DUP1 PUSH4 0xC4B8D53D EQ PUSH2 0xEEA JUMPI DUP1 PUSH4 0xD2F0BE99 EQ PUSH2 0xD67 JUMPI DUP1 PUSH4 0xD3B0C32C EQ PUSH2 0xC7D JUMPI DUP1 PUSH4 0xDAE21C58 EQ PUSH2 0xB7C JUMPI DUP1 PUSH4 0xDB2E21BC EQ PUSH2 0xB20 JUMPI DUP1 PUSH4 0xDBAF0910 EQ PUSH2 0x7C3 JUMPI DUP1 PUSH4 0xDE710365 EQ PUSH2 0x5BA JUMPI DUP1 PUSH4 0xDFE6B5D6 EQ PUSH2 0x58D JUMPI DUP1 PUSH4 0xE07439F7 EQ PUSH2 0x54B JUMPI DUP1 PUSH4 0xE081DBF9 EQ PUSH2 0x503 JUMPI DUP1 PUSH4 0xE36465A3 EQ PUSH2 0x474 JUMPI DUP1 PUSH4 0xF2FDE38B EQ PUSH2 0x3B0 JUMPI DUP1 PUSH4 0xF755A8FB EQ PUSH2 0x384 JUMPI DUP1 PUSH4 0xF91E4B29 EQ PUSH2 0x21C JUMPI PUSH4 0xFCA604D7 SUB PUSH2 0xE JUMPI CALLVALUE PUSH2 0x217 JUMPI PUSH1 0x0 CALLDATASIZE PUSH1 0x3 NOT ADD SLT PUSH2 0x217 JUMPI PUSH1 0x20 PUSH1 0x3 SLOAD PUSH1 0x40 MLOAD SWAP1 DUP2 MSTORE RETURN JUMPDEST PUSH1 0x0 DUP1 REVERT JUMPDEST CALLVALUE PUSH2 0x217 JUMPI PUSH1 0x20 DUP1 PUSH1 0x3 NOT CALLDATASIZE ADD SLT PUSH2 0x217 JUMPI PUSH1 0x4 CALLDATALOAD PUSH1 0x0 MSTORE PUSH1 0x5 SWAP1 DUP2 DUP2 MSTORE PUSH1 0x40 PUSH1 0x0 KECCAK256 DUP1 SLOAD SWAP2 PUSH2 0x24B DUP4 PUSH2 0x3843 JUMP JUMPDEST SWAP3 PUSH2 0x259 PUSH1 0x40 MLOAD SWAP5 DUP6 PUSH2 0x357C JUMP JUMPDEST DUP1 DUP5 MSTORE DUP2 DUP5 ADD DUP1 SWAP4 PUSH1 0x0 MSTORE DUP3 PUSH1 0x0 KECCAK256 PUSH1 0x0 SWAP2 JUMPDEST DUP4 DUP4 LT PUSH2 0x318 JUMPI POP POP POP POP PUSH1 0x40 MLOAD SWAP3 DUP2 DUP5 ADD SWAP1 DUP3 DUP6 MSTORE MLOAD DUP1 SWAP2 MSTORE PUSH1 0x40 DUP2 DUP2 DUP7 ADD SWAP7 SHL DUP6 ADD ADD SWAP3 SWAP2 PUSH1 0x0 SWAP6 JUMPDEST DUP3 DUP8 LT PUSH2 0x2A4 JUMPI DUP6 DUP6 SUB DUP7 RETURN JUMPDEST SWAP1 SWAP2 SWAP3 SWAP4 DUP3 DUP1 PUSH1 0x1 SWAP3 PUSH1 0x3F NOT DUP10 DUP3 SUB ADD DUP6 MSTORE DUP8 MLOAD SWAP1 DUP2 MLOAD DUP2 MSTORE PUSH2 0x2E8 PUSH2 0x2D6 DUP5 DUP5 ADD MLOAD PUSH1 0xC0 DUP1 DUP8 DUP7 ADD MSTORE DUP5 ADD SWAP1 PUSH2 0x3643 JUMP JUMPDEST PUSH1 0x40 DUP5 ADD MLOAD DUP4 DUP3 SUB PUSH1 0x40 DUP6 ADD MSTORE PUSH2 0x3643 JUMP JUMPDEST SWAP2 PUSH1 0x60 DUP1 DUP3 ADD MLOAD SWAP1 DUP4 ADD MSTORE PUSH1 0x80 DUP1 DUP3 ADD MLOAD SWAP1 DUP4 ADD MSTORE PUSH1 0xA0 DUP1 SWAP2 ADD MLOAD ISZERO ISZERO SWAP2 ADD MSTORE SWAP7 ADD SWAP3 ADD SWAP7 ADD SWAP6 SWAP3 SWAP2 SWAP1 SWAP3 PUSH2 0x297 JUMP JUMPDEST PUSH1 0x6 DUP6 PUSH1 0x1 SWAP3 PUSH1 0x40 SWAP10 SWAP8 SWAP10 MLOAD PUSH2 0x32D DUP2 PUSH2 0x3561 JUMP JUMPDEST DUP6 SLOAD DUP2 MSTORE PUSH2 0x33C DUP6 DUP8 ADD PUSH2 0x359D JUMP JUMPDEST DUP4 DUP3 ADD MSTORE PUSH2 0x34C PUSH1 0x2 DUP8 ADD PUSH2 0x359D JUMP JUMPDEST PUSH1 0x40 DUP3 ADD MSTORE PUSH1 0x3 DUP7 ADD SLOAD PUSH1 0x60 DUP3 ADD MSTORE PUSH1 0x4 DUP7 ADD SLOAD PUSH1 0x80 DUP3 ADD MSTORE PUSH1 0xFF DUP13 DUP8 ADD SLOAD AND ISZERO ISZERO PUSH1 0xA0 DUP3 ADD MSTORE DUP2 MSTORE ADD SWAP3 ADD SWAP3 ADD SWAP2 SWAP1 SWAP6 SWAP4 SWAP6 PUSH2 0x26C JUMP JUMPDEST CALLVALUE PUSH2 0x217 JUMPI PUSH1 0x20 CALLDATASIZE PUSH1 0x3 NOT ADD SLT PUSH2 0x217 JUMPI PUSH1 0x4 CALLDATALOAD PUSH1 0x0 MSTORE PUSH1 0x6 PUSH1 0x20 MSTORE PUSH1 0x20 PUSH1 0x40 PUSH1 0x0 KECCAK256 SLOAD PUSH1 0x40 MLOAD SWAP1 DUP2 MSTORE RETURN JUMPDEST CALLVALUE PUSH2 0x217 JUMPI PUSH1 0x20 CALLDATASIZE PUSH1 0x3 NOT ADD SLT PUSH2 0x217 JUMPI PUSH2 0x3C9 PUSH2 0x34C4 JUMP JUMPDEST PUSH2 0x3D1 PUSH2 0x396C JUMP JUMPDEST PUSH1 0x1 PUSH1 0x1 PUSH1 0xA0 SHL SUB SWAP1 DUP2 AND SWAP1 DUP2 ISZERO PUSH2 0x420 JUMPI PUSH1 0x1 SLOAD DUP3 PUSH1 0x1 PUSH1 0x1 PUSH1 0x60 SHL SUB PUSH1 0xA0 SHL DUP3 AND OR PUSH1 0x1 SSTORE AND PUSH32 0x8BE0079C531659141344CD1FD0A4F28419497F9722A3DAAFE3B4186F6B6457E0 PUSH1 0x0 DUP1 LOG3 STOP JUMPDEST PUSH1 0x40 MLOAD PUSH3 0x461BCD PUSH1 0xE5 SHL DUP2 MSTORE PUSH1 0x20 PUSH1 0x4 DUP3 ADD MSTORE PUSH1 0x26 PUSH1 0x24 DUP3 ADD MSTORE PUSH32 0x4F776E61626C653A206E6577206F776E657220697320746865207A65726F2061 PUSH1 0x44 DUP3 ADD MSTORE PUSH6 0x646472657373 PUSH1 0xD0 SHL PUSH1 0x64 DUP3 ADD MSTORE PUSH1 0x84 SWAP1 REVERT JUMPDEST CALLVALUE PUSH2 0x217 JUMPI PUSH1 0x20 DUP1 PUSH1 0x3 NOT CALLDATASIZE ADD SLT PUSH2 0x217 JUMPI PUSH1 0x1 PUSH1 0x1 PUSH1 0xA0 SHL SUB PUSH2 0x496 PUSH2 0x34C4 JUMP JUMPDEST AND PUSH1 0x0 MSTORE PUSH1 0xA DUP2 MSTORE PUSH1 0x40 PUSH1 0x0 KECCAK256 SWAP1 PUSH1 0x40 MLOAD DUP1 DUP4 DUP4 DUP3 SWAP6 SLOAD SWAP4 DUP5 DUP2 MSTORE ADD SWAP1 PUSH1 0x0 MSTORE DUP4 PUSH1 0x0 KECCAK256 SWAP3 PUSH1 0x0 JUMPDEST DUP6 DUP3 DUP3 LT PUSH2 0x4ED JUMPI POP POP POP PUSH2 0x4D5 SWAP3 POP SUB DUP4 PUSH2 0x357C JUMP JUMPDEST PUSH2 0x4E9 PUSH1 0x40 MLOAD SWAP3 DUP3 DUP5 SWAP4 DUP5 MSTORE DUP4 ADD SWAP1 PUSH2 0x3938 JUMP JUMPDEST SUB SWAP1 RETURN JUMPDEST DUP6 SLOAD DUP5 MSTORE PUSH1 0x1 SWAP6 DUP7 ADD SWAP6 DUP9 SWAP6 POP SWAP4 ADD SWAP3 ADD PUSH2 0x4BE JUMP JUMPDEST CALLVALUE PUSH2 0x217 JUMPI PUSH1 0x40 CALLDATASIZE PUSH1 0x3 NOT ADD SLT PUSH2 0x217 JUMPI PUSH2 0x51C PUSH2 0x34DA JUMP JUMPDEST PUSH1 0x4 CALLDATALOAD PUSH1 0x0 MSTORE PUSH1 0x7 PUSH1 0x20 MSTORE PUSH1 0x40 PUSH1 0x0 KECCAK256 SWAP1 PUSH1 0x1 DUP1 PUSH1 0xA0 SHL SUB AND PUSH1 0x0 MSTORE PUSH1 0x20 MSTORE PUSH1 0x20 PUSH1 0x40 PUSH1 0x0 KECCAK256 SLOAD PUSH1 0x40 MLOAD SWAP1 DUP2 MSTORE RETURN JUMPDEST CALLVALUE PUSH2 0x217 JUMPI PUSH1 0x20 CALLDATASIZE PUSH1 0x3 NOT ADD SLT PUSH2 0x217 JUMPI PUSH1 0x4 CALLDATALOAD PUSH1 0xD SLOAD DUP2 LT ISZERO PUSH2 0x217 JUMPI PUSH2 0x574 PUSH1 0x20 SWAP2 PUSH2 0x3683 JUMP JUMPDEST SWAP1 SLOAD PUSH1 0x40 MLOAD PUSH1 0x3 SWAP3 SWAP1 SWAP3 SHL SHR PUSH1 0x1 PUSH1 0x1 PUSH1 0xA0 SHL SUB AND DUP2 MSTORE RETURN JUMPDEST CALLVALUE PUSH2 0x217 JUMPI PUSH1 0x0 CALLDATASIZE PUSH1 0x3 NOT ADD SLT PUSH2 0x217 JUMPI PUSH1 0x60 PUSH1 0x3 SLOAD PUSH1 0x2 SLOAD SELFBALANCE SWAP1 PUSH1 0x40 MLOAD SWAP3 DUP4 MSTORE PUSH1 0x20 DUP4 ADD MSTORE PUSH1 0x40 DUP3 ADD MSTORE RETURN JUMPDEST CALLVALUE PUSH2 0x217 JUMPI PUSH1 0x20 DUP1 PUSH1 0x3 NOT CALLDATASIZE ADD SLT PUSH2 0x217 JUMPI PUSH1 0x4 CALLDATALOAD SWAP1 PUSH1 0xD SLOAD DUP1 DUP4 GT PUSH2 0x7BB JUMPI JUMPDEST PUSH2 0x5E4 DUP4 PUSH2 0x3FA1 JUMP JUMPDEST SWAP3 PUSH2 0x5EE DUP2 PUSH2 0x3843 JUMP JUMPDEST SWAP2 PUSH2 0x5FC PUSH1 0x40 MLOAD SWAP4 DUP5 PUSH2 0x357C JUMP JUMPDEST DUP2 DUP4 MSTORE PUSH1 0x1F NOT PUSH2 0x60B DUP4 PUSH2 0x3843 JUMP JUMPDEST ADD CALLDATASIZE DUP6 DUP6 ADD CALLDATACOPY PUSH2 0x61A DUP2 PUSH2 0x3FA1 JUMP JUMPDEST PUSH1 0x0 JUMPDEST DUP3 DUP2 LT PUSH2 0x78D JUMPI POP PUSH1 0x0 JUMPDEST DUP4 DUP2 LT PUSH2 0x686 JUMPI POP POP POP POP PUSH1 0x40 MLOAD SWAP2 PUSH1 0x40 DUP4 ADD PUSH1 0x40 DUP5 MSTORE DUP5 MLOAD DUP1 SWAP2 MSTORE DUP2 PUSH1 0x60 DUP6 ADD SWAP6 ADD SWAP1 PUSH1 0x0 JUMPDEST DUP2 DUP2 LT PUSH2 0x669 JUMPI DUP6 DUP8 SUB DUP5 DUP8 ADD MSTORE DUP6 DUP1 PUSH2 0x4E9 DUP10 DUP9 PUSH2 0x3938 JUMP JUMPDEST DUP3 MLOAD PUSH1 0x1 PUSH1 0x1 PUSH1 0xA0 SHL SUB AND DUP8 MSTORE SWAP6 DUP4 ADD SWAP6 SWAP2 DUP4 ADD SWAP2 PUSH1 0x1 ADD PUSH2 0x64F JUMP JUMPDEST DUP1 PUSH1 0x1 PUSH1 0x1 PUSH1 0xA0 SHL SUB DUP1 PUSH2 0x69A DUP4 DUP7 PUSH2 0x3B35 JUMP JUMPDEST MLOAD AND PUSH1 0x0 MSTORE PUSH1 0xC SWAP2 DUP3 DUP10 MSTORE PUSH1 0x40 PUSH1 0x0 KECCAK256 SLOAD SWAP3 PUSH1 0x1 DUP6 ADD DUP1 DUP7 GT PUSH2 0x777 JUMPI JUMPDEST DUP8 DUP2 LT PUSH2 0x724 JUMPI POP POP SWAP1 DUP4 SWAP3 SWAP2 PUSH2 0x6F7 DUP3 PUSH2 0x6D6 PUSH2 0x71F SWAP8 DUP10 PUSH2 0x3B35 JUMP JUMPDEST MLOAD AND SWAP2 DUP4 PUSH2 0x6E4 DUP3 DUP11 PUSH2 0x3B35 JUMP JUMPDEST MLOAD AND PUSH2 0x6F0 DUP8 DUP11 PUSH2 0x3B35 JUMP JUMPDEST MSTORE DUP8 PUSH2 0x3B35 JUMP JUMPDEST MSTORE PUSH2 0x702 DUP4 DUP7 PUSH2 0x3B35 JUMP JUMPDEST MLOAD AND PUSH2 0x70E DUP4 DUP12 PUSH2 0x3B35 JUMP JUMPDEST MSTORE PUSH2 0x719 DUP3 DUP9 PUSH2 0x3B35 JUMP JUMPDEST MSTORE PUSH2 0x3A1B JUMP JUMPDEST PUSH2 0x628 JUMP JUMPDEST DUP4 PUSH2 0x72F DUP3 DUP10 PUSH2 0x3B35 JUMP JUMPDEST MLOAD AND PUSH1 0x0 MSTORE DUP2 DUP12 MSTORE DUP5 PUSH1 0x40 PUSH1 0x0 KECCAK256 SLOAD GT PUSH2 0x752 JUMPI JUMPDEST PUSH2 0x74D SWAP1 PUSH2 0x3A1B JUMP JUMPDEST PUSH2 0x6B8 JUMP JUMPDEST SWAP2 POP SWAP3 POP DUP2 PUSH2 0x761 DUP3 DUP8 PUSH2 0x3B35 JUMP JUMPDEST MLOAD AND PUSH1 0x0 SWAP1 DUP2 MSTORE DUP4 DUP11 MSTORE PUSH1 0x40 SWAP1 KECCAK256 SLOAD SWAP3 DUP2 PUSH2 0x744 JUMP JUMPDEST PUSH4 0x4E487B71 PUSH1 0xE0 SHL PUSH1 0x0 MSTORE PUSH1 0x11 PUSH1 0x4 MSTORE PUSH1 0x24 PUSH1 0x0 REVERT JUMPDEST DUP1 PUSH2 0x79A PUSH2 0x7B6 SWAP3 PUSH2 0x3683 JUMP JUMPDEST SWAP1 SLOAD PUSH1 0x3 SWAP2 SWAP1 SWAP2 SHL SHR PUSH1 0x1 PUSH1 0x1 PUSH1 0xA0 SHL SUB AND PUSH2 0x719 DUP3 DUP6 PUSH2 0x3B35 JUMP JUMPDEST PUSH2 0x61D JUMP JUMPDEST SWAP2 POP DUP2 PUSH2 0x5DB JUMP JUMPDEST CALLVALUE PUSH2 0x217 JUMPI PUSH2 0x7D1 CALLDATASIZE PUSH2 0x36E8 JUMP JUMPDEST SWAP1 PUSH2 0x7DA PUSH2 0x3ADF JUMP JUMPDEST DUP1 ISZERO ISZERO DUP1 PUSH2 0xB14 JUMPI JUMPDEST ISZERO PUSH2 0xAD9 JUMPI DUP1 PUSH1 0x0 MSTORE PUSH1 0x20 PUSH1 0x4 DUP2 MSTORE PUSH1 0x40 PUSH1 0x0 KECCAK256 PUSH1 0x1 DUP2 ADD SWAP1 PUSH1 0x1 DUP1 PUSH1 0xA0 SHL SUB SWAP1 PUSH2 0x812 DUP3 DUP5 SLOAD AND CALLER EQ PUSH2 0x3BD0 JUMP JUMPDEST PUSH1 0x5 PUSH1 0x6 DUP3 ADD SLOAD SWAP2 ADD SLOAD GT PUSH2 0xA94 JUMPI DUP4 PUSH1 0x0 MSTORE PUSH1 0x5 DUP4 MSTORE PUSH2 0x837 DUP6 PUSH1 0x40 PUSH1 0x0 KECCAK256 PUSH2 0x36FE JUMP JUMPDEST POP SWAP2 PUSH1 0x5 DUP4 ADD SWAP3 DUP4 SLOAD SWAP4 PUSH1 0xFF DUP6 AND PUSH2 0xA4F JUMPI DUP8 PUSH2 0x9DB JUMPI JUMPDEST PUSH1 0x4 DUP3 ADD SLOAD DUP1 PUSH2 0x97F JUMPI JUMPDEST POP PUSH1 0x3 SELFBALANCE SWAP3 ADD SWAP5 DUP6 SLOAD DUP1 SWAP4 LT PUSH2 0x93A JUMPI SWAP4 PUSH1 0x0 SWAP5 SWAP4 DUP6 SWAP5 SWAP4 DUP6 SWAP5 SWAP4 PUSH1 0x1 DUP7 SWAP6 PUSH1 0xFF NOT AND OR SWAP1 SSTORE DUP10 DUP5 MSTORE PUSH1 0x6 DUP10 MSTORE PUSH2 0x896 PUSH1 0x40 DUP6 KECCAK256 SWAP2 DUP3 SLOAD PUSH2 0x3A2A JUMP JUMPDEST SWAP1 SSTORE SLOAD AND DUP6 SLOAD SWAP1 GAS CALL RETURNDATASIZE ISZERO PUSH2 0x935 JUMPI RETURNDATASIZE PUSH2 0x8AF DUP2 PUSH2 0x37E1 JUMP JUMPDEST SWAP1 PUSH2 0x8BD PUSH1 0x40 MLOAD SWAP3 DUP4 PUSH2 0x357C JUMP JUMPDEST DUP2 MSTORE PUSH1 0x0 DUP5 RETURNDATASIZE SWAP3 ADD RETURNDATACOPY JUMPDEST ISZERO PUSH2 0x8FE JUMPI SWAP1 PUSH32 0xD33FCD27CBFB73A2D9058C968B560CCB306500BF536133802048489ECC7355E9 SWAP2 SLOAD PUSH1 0x40 MLOAD SWAP1 DUP2 MSTORE LOG3 PUSH1 0x1 PUSH1 0x0 SSTORE STOP JUMPDEST PUSH1 0x40 MLOAD PUSH3 0x461BCD PUSH1 0xE5 SHL DUP2 MSTORE PUSH1 0x4 DUP2 ADD DUP4 SWAP1 MSTORE PUSH1 0xF PUSH1 0x24 DUP3 ADD MSTORE PUSH15 0x151C985B9CD9995C8819985A5B1959 PUSH1 0x8A SHL PUSH1 0x44 DUP3 ADD MSTORE PUSH1 0x64 SWAP1 REVERT JUMPDEST PUSH2 0x8C7 JUMP JUMPDEST PUSH1 0x40 MLOAD PUSH3 0x461BCD PUSH1 0xE5 SHL DUP2 MSTORE PUSH1 0x4 DUP2 ADD DUP9 SWAP1 MSTORE PUSH1 0x1D PUSH1 0x24 DUP3 ADD MSTORE PUSH32 0x436F6E74726163742062616C616E636520696E73756666696369656E74000000 PUSH1 0x44 DUP3 ADD MSTORE PUSH1 0x64 SWAP1 REVERT JUMPDEST TIMESTAMP LT PUSH2 0x98B JUMPI DUP9 PUSH2 0x85A JUMP JUMPDEST PUSH1 0x40 MLOAD PUSH3 0x461BCD PUSH1 0xE5 SHL DUP2 MSTORE PUSH1 0x4 DUP2 ADD DUP8 SWAP1 MSTORE PUSH1 0x22 PUSH1 0x24 DUP3 ADD MSTORE PUSH32 0x4D696C6573746F6E65206C6F636B656420756E74696C2072656C656173655469 PUSH1 0x44 DUP3 ADD MSTORE PUSH2 0x6D65 PUSH1 0xF0 SHL PUSH1 0x64 DUP3 ADD MSTORE PUSH1 0x84 SWAP1 REVERT JUMPDEST DUP7 PUSH1 0x0 MSTORE PUSH1 0x5 DUP7 MSTORE PUSH1 0x40 PUSH1 0x0 KECCAK256 PUSH1 0x0 NOT DUP10 ADD DUP10 DUP2 GT PUSH2 0x777 JUMPI PUSH2 0xA02 PUSH1 0x5 SWAP2 PUSH1 0xFF SWAP4 PUSH2 0x36FE JUMP JUMPDEST POP ADD SLOAD AND PUSH2 0x84F JUMPI PUSH1 0x40 MLOAD PUSH3 0x461BCD PUSH1 0xE5 SHL DUP2 MSTORE PUSH1 0x4 DUP2 ADD DUP8 SWAP1 MSTORE PUSH1 0x1C PUSH1 0x24 DUP3 ADD MSTORE PUSH32 0x52656C656173652070726576206D696C6573746F6E6520666972737400000000 PUSH1 0x44 DUP3 ADD MSTORE PUSH1 0x64 SWAP1 REVERT JUMPDEST PUSH1 0x40 MLOAD PUSH3 0x461BCD PUSH1 0xE5 SHL DUP2 MSTORE PUSH1 0x4 DUP2 ADD DUP8 SWAP1 MSTORE PUSH1 0x1A PUSH1 0x24 DUP3 ADD MSTORE PUSH32 0x4D696C6573746F6E6520616C72656164792072656C6561736564000000000000 PUSH1 0x44 DUP3 ADD MSTORE PUSH1 0x64 SWAP1 REVERT JUMPDEST PUSH1 0x40 MLOAD PUSH3 0x461BCD PUSH1 0xE5 SHL DUP2 MSTORE PUSH1 0x4 DUP2 ADD DUP5 SWAP1 MSTORE PUSH1 0x19 PUSH1 0x24 DUP3 ADD MSTORE PUSH32 0x43616D706169676E206E6F742066756C6C792066756E64656400000000000000 PUSH1 0x44 DUP3 ADD MSTORE PUSH1 0x64 SWAP1 REVERT JUMPDEST PUSH1 0x40 MLOAD PUSH3 0x461BCD PUSH1 0xE5 SHL DUP2 MSTORE PUSH1 0x20 PUSH1 0x4 DUP3 ADD MSTORE PUSH1 0x13 PUSH1 0x24 DUP3 ADD MSTORE PUSH19 0x125B9D985B1A590818D85B5C185A59DB881A59 PUSH1 0x6A SHL PUSH1 0x44 DUP3 ADD MSTORE PUSH1 0x64 SWAP1 REVERT JUMPDEST POP PUSH1 0x3 SLOAD DUP2 GT ISZERO PUSH2 0x7E3 JUMP JUMPDEST CALLVALUE PUSH2 0x217 JUMPI PUSH1 0x0 CALLDATASIZE PUSH1 0x3 NOT ADD SLT PUSH2 0x217 JUMPI PUSH2 0xB39 PUSH2 0x396C JUMP JUMPDEST PUSH2 0xB41 PUSH2 0x3ADF JUMP JUMPDEST PUSH1 0x0 DUP1 DUP1 DUP1 SELFBALANCE PUSH1 0x1 DUP1 PUSH1 0xA0 SHL SUB PUSH1 0x1 SLOAD AND DUP3 DUP3 ISZERO PUSH2 0xB73 JUMPI JUMPDEST CALL ISZERO PUSH2 0xB67 JUMPI PUSH1 0x1 PUSH1 0x0 SSTORE STOP JUMPDEST PUSH1 0x40 MLOAD RETURNDATASIZE PUSH1 0x0 DUP3 RETURNDATACOPY RETURNDATASIZE SWAP1 REVERT JUMPDEST POP PUSH2 0x8FC PUSH2 0xB5A JUMP JUMPDEST CALLVALUE PUSH2 0x217 JUMPI PUSH1 0x40 CALLDATASIZE PUSH1 0x3 NOT ADD SLT PUSH2 0x217 JUMPI PUSH1 0x4 CALLDATALOAD PUSH2 0xB98 PUSH2 0x34DA JUMP JUMPDEST SWAP1 PUSH2 0xBA1 PUSH2 0x396C JUMP JUMPDEST PUSH2 0xBA9 PUSH2 0x3ADF JUMP JUMPDEST DUP1 PUSH1 0x0 MSTORE PUSH1 0x20 PUSH1 0x7 DUP2 MSTORE PUSH1 0x40 PUSH1 0x0 KECCAK256 SWAP3 PUSH1 0x1 DUP1 PUSH1 0xA0 SHL SUB AND SWAP3 DUP4 PUSH1 0x0 MSTORE DUP2 MSTORE PUSH2 0xBD8 PUSH1 0x40 PUSH1 0x0 KECCAK256 SLOAD ISZERO ISZERO PUSH2 0x3C57 JUMP JUMPDEST DUP2 PUSH1 0x0 MSTORE PUSH1 0x7 DUP2 MSTORE PUSH1 0x40 PUSH1 0x0 KECCAK256 DUP4 PUSH1 0x0 MSTORE DUP2 MSTORE PUSH1 0x40 PUSH1 0x0 KECCAK256 SLOAD SWAP1 DUP3 PUSH1 0x0 MSTORE PUSH1 0x7 DUP2 MSTORE PUSH1 0x40 PUSH1 0x0 KECCAK256 DUP5 PUSH1 0x0 MSTORE DUP2 MSTORE PUSH1 0x0 PUSH1 0x40 DUP2 KECCAK256 SSTORE DUP3 PUSH1 0x0 MSTORE PUSH1 0x4 DUP2 MSTORE PUSH1 0x6 PUSH1 0x40 PUSH1 0x0 KECCAK256 ADD PUSH2 0xC27 DUP4 DUP3 SLOAD PUSH2 0x3A6C JUMP JUMPDEST SWAP1 SSTORE PUSH1 0x0 DUP3 DUP6 DUP2 ISZERO PUSH2 0xC73 JUMPI JUMPDEST PUSH1 0x0 SWAP3 DUP4 SWAP3 DUP4 SWAP3 DUP4 SWAP3 CALL ISZERO PUSH2 0xB67 JUMPI PUSH32 0x7A482FDEB6BC9A1376F597068A214A7A39472BB2EFF1B8CAD21BA04F49DDCA1B SWAP2 PUSH1 0x40 MLOAD SWAP1 DUP2 MSTORE LOG3 PUSH1 0x1 PUSH1 0x0 SSTORE STOP JUMPDEST PUSH2 0x8FC SWAP3 POP PUSH2 0xC34 JUMP JUMPDEST CALLVALUE PUSH2 0x217 JUMPI PUSH1 0x20 DUP1 PUSH1 0x3 NOT CALLDATASIZE ADD SLT PUSH2 0x217 JUMPI PUSH1 0x4 CALLDATALOAD PUSH1 0x0 MSTORE PUSH1 0x8 DUP2 MSTORE PUSH1 0x40 PUSH1 0x0 KECCAK256 SWAP1 DUP2 SLOAD PUSH2 0xCAA DUP2 PUSH2 0x3843 JUMP JUMPDEST SWAP1 PUSH2 0xCB8 PUSH1 0x40 MLOAD SWAP3 DUP4 PUSH2 0x357C JUMP JUMPDEST DUP1 DUP3 MSTORE DUP3 DUP3 ADD DUP1 SWAP5 PUSH1 0x0 MSTORE DUP4 PUSH1 0x0 KECCAK256 PUSH1 0x0 SWAP2 JUMPDEST DUP4 DUP4 LT PUSH2 0xD2A JUMPI PUSH1 0x40 DUP1 MLOAD DUP8 DUP2 MSTORE DUP7 MLOAD DUP2 DUP10 ADD DUP2 SWAP1 MSTORE DUP10 SWAP3 DUP3 ADD SWAP1 DUP10 PUSH1 0x0 JUMPDEST DUP3 DUP2 LT PUSH2 0xCF7 JUMPI DUP5 DUP5 SUB DUP6 RETURN JUMPDEST DUP6 MLOAD DUP1 MLOAD PUSH1 0x1 PUSH1 0x1 PUSH1 0xA0 SHL SUB AND DUP6 MSTORE DUP1 DUP4 ADD MLOAD DUP6 DUP5 ADD MSTORE PUSH1 0x40 SWAP1 DUP2 ADD MLOAD SWAP1 DUP6 ADD MSTORE SWAP5 DUP2 ADD SWAP5 PUSH1 0x60 SWAP1 SWAP4 ADD SWAP3 PUSH1 0x1 ADD PUSH2 0xCEA JUMP JUMPDEST PUSH1 0x3 DUP7 PUSH1 0x1 SWAP3 PUSH1 0x40 MLOAD PUSH2 0xD3C DUP2 PUSH2 0x3546 JUMP JUMPDEST DUP5 DUP1 PUSH1 0xA0 SHL SUB DUP7 SLOAD AND DUP2 MSTORE DUP5 DUP7 ADD SLOAD DUP4 DUP3 ADD MSTORE PUSH1 0x2 DUP7 ADD SLOAD PUSH1 0x40 DUP3 ADD MSTORE DUP2 MSTORE ADD SWAP3 ADD SWAP3 ADD SWAP2 SWAP1 PUSH2 0xCCB JUMP JUMPDEST CALLVALUE PUSH2 0x217 JUMPI PUSH1 0x20 DUP1 PUSH1 0x3 NOT CALLDATASIZE ADD SLT PUSH2 0x217 JUMPI PUSH1 0x4 CALLDATALOAD DUP1 ISZERO ISZERO DUP1 PUSH2 0xEDE JUMPI JUMPDEST PUSH2 0xD8E SWAP1 PUSH2 0x3B49 JUMP JUMPDEST DUP1 PUSH1 0x0 MSTORE PUSH1 0x4 DUP3 MSTORE PUSH2 0xDAD PUSH1 0xFF PUSH1 0x8 PUSH1 0x40 PUSH1 0x0 KECCAK256 ADD SLOAD PUSH1 0x8 SHR AND PUSH2 0x3B8B JUMP JUMPDEST DUP1 PUSH1 0x0 MSTORE PUSH1 0x4 DUP3 MSTORE PUSH2 0xDC9 PUSH1 0x7 PUSH1 0x40 PUSH1 0x0 KECCAK256 ADD SLOAD TIMESTAMP LT ISZERO PUSH2 0x3C13 JUMP JUMPDEST PUSH2 0xDD1 PUSH2 0x3ADF JUMP JUMPDEST DUP1 PUSH1 0x0 MSTORE PUSH1 0x4 DUP3 MSTORE PUSH1 0x40 PUSH1 0x0 KECCAK256 PUSH1 0x5 PUSH1 0x6 DUP3 ADD SLOAD SWAP2 ADD SLOAD GT ISZERO PUSH2 0xE99 JUMPI DUP1 PUSH1 0x0 MSTORE PUSH1 0x7 DUP3 MSTORE PUSH1 0x40 PUSH1 0x0 KECCAK256 CALLER PUSH1 0x0 MSTORE DUP3 MSTORE PUSH2 0xE11 PUSH1 0x40 PUSH1 0x0 KECCAK256 SLOAD ISZERO ISZERO PUSH2 0x3C57 JUMP JUMPDEST DUP1 PUSH1 0x0 MSTORE PUSH1 0x7 DUP3 MSTORE PUSH1 0x40 PUSH1 0x0 KECCAK256 CALLER PUSH1 0x0 MSTORE DUP3 MSTORE PUSH1 0x40 PUSH1 0x0 KECCAK256 SLOAD SWAP2 DUP2 PUSH1 0x0 MSTORE PUSH1 0x7 DUP2 MSTORE PUSH1 0x40 PUSH1 0x0 KECCAK256 CALLER PUSH1 0x0 MSTORE DUP2 MSTORE PUSH1 0x0 PUSH1 0x40 DUP2 KECCAK256 SSTORE DUP3 PUSH1 0x0 DUP2 ISZERO PUSH2 0xE90 JUMPI JUMPDEST PUSH1 0x0 DUP1 DUP1 SWAP4 DUP2 SWAP4 CALLER SWAP1 CALL ISZERO PUSH2 0xB67 JUMPI PUSH32 0x7A482FDEB6BC9A1376F597068A214A7A39472BB2EFF1B8CAD21BA04F49DDCA1B SWAP1 PUSH1 0x40 MLOAD SWAP4 DUP5 MSTORE CALLER SWAP4 LOG3 PUSH1 0x1 PUSH1 0x0 SSTORE STOP JUMPDEST POP PUSH2 0x8FC PUSH2 0xE4F JUMP JUMPDEST PUSH1 0x40 MLOAD PUSH3 0x461BCD PUSH1 0xE5 SHL DUP2 MSTORE PUSH1 0x4 DUP2 ADD DUP4 SWAP1 MSTORE PUSH1 0x17 PUSH1 0x24 DUP3 ADD MSTORE PUSH32 0x43616D706169676E20776173207375636365737366756C000000000000000000 PUSH1 0x44 DUP3 ADD MSTORE PUSH1 0x64 SWAP1 REVERT JUMPDEST POP PUSH1 0x3 SLOAD DUP2 GT ISZERO PUSH2 0xD85 JUMP JUMPDEST CALLVALUE PUSH2 0x217 JUMPI PUSH1 0x0 CALLDATASIZE PUSH1 0x3 NOT ADD SLT PUSH2 0x217 JUMPI PUSH1 0x20 PUSH1 0x40 MLOAD PUSH8 0xDE0B6B3A7640000 DUP2 MSTORE RETURN JUMPDEST CALLVALUE PUSH2 0x217 JUMPI PUSH2 0xF24 PUSH2 0xF1E CALLDATASIZE PUSH2 0x36E8 JUMP JUMPDEST SWAP1 PUSH2 0x3CF7 JUMP JUMPDEST PUSH1 0x40 MLOAD PUSH1 0x20 SWAP2 DUP3 DUP3 ADD SWAP3 DUP1 DUP4 MSTORE DUP2 MLOAD DUP1 SWAP5 MSTORE PUSH1 0x40 DUP4 ADD SWAP4 DUP2 PUSH1 0x40 DUP3 PUSH1 0x5 SHL DUP7 ADD ADD SWAP4 ADD SWAP2 PUSH1 0x0 SWAP6 JUMPDEST DUP3 DUP8 LT PUSH2 0xF59 JUMPI DUP6 DUP6 SUB DUP7 RETURN JUMPDEST SWAP1 SWAP2 SWAP3 SWAP4 DUP3 DUP1 PUSH2 0xF75 PUSH1 0x1 SWAP4 PUSH1 0x3F NOT DUP11 DUP3 SUB ADD DUP7 MSTORE DUP9 MLOAD PUSH2 0x3736 JUMP JUMPDEST SWAP7 ADD SWAP3 ADD SWAP7 ADD SWAP6 SWAP3 SWAP2 SWAP1 SWAP3 PUSH2 0xF4C JUMP JUMPDEST CALLVALUE PUSH2 0x217 JUMPI PUSH1 0x20 DUP1 PUSH1 0x3 NOT CALLDATASIZE ADD SLT PUSH2 0x217 JUMPI PUSH1 0x1 PUSH1 0x1 PUSH1 0xA0 SHL SUB PUSH2 0xFA7 PUSH2 0x34C4 JUMP JUMPDEST AND PUSH1 0x0 MSTORE PUSH1 0x9 DUP2 MSTORE PUSH1 0x40 PUSH1 0x0 KECCAK256 SWAP1 PUSH1 0x40 MLOAD DUP1 DUP4 DUP4 DUP3 SWAP6 SLOAD SWAP4 DUP5 DUP2 MSTORE ADD SWAP1 PUSH1 0x0 MSTORE DUP4 PUSH1 0x0 KECCAK256 SWAP3 PUSH1 0x0 JUMPDEST DUP6 DUP3 DUP3 LT PUSH2 0xFE6 JUMPI POP POP POP PUSH2 0x4D5 SWAP3 POP SUB DUP4 PUSH2 0x357C JUMP JUMPDEST DUP6 SLOAD DUP5 MSTORE PUSH1 0x1 SWAP6 DUP7 ADD SWAP6 DUP9 SWAP6 POP SWAP4 ADD SWAP3 ADD PUSH2 0xFCF JUMP JUMPDEST PUSH1 0xA0 CALLDATASIZE PUSH1 0x3 NOT ADD SLT PUSH2 0x217 JUMPI PUSH1 0x4 CALLDATALOAD PUSH1 0x1 PUSH1 0x1 PUSH1 0x40 SHL SUB DUP2 GT PUSH2 0x217 JUMPI PUSH2 0x1027 SWAP1 CALLDATASIZE SWAP1 PUSH1 0x4 ADD PUSH2 0x37FC JUMP JUMPDEST PUSH1 0x24 CALLDATALOAD PUSH1 0x1 PUSH1 0x1 PUSH1 0x40 SHL SUB DUP2 GT PUSH2 0x217 JUMPI PUSH2 0x1046 SWAP1 CALLDATASIZE SWAP1 PUSH1 0x4 ADD PUSH2 0x37FC JUMP JUMPDEST SWAP1 PUSH1 0x44 CALLDATALOAD PUSH1 0x1 PUSH1 0x1 PUSH1 0x40 SHL SUB DUP2 GT PUSH2 0x217 JUMPI PUSH2 0x1066 SWAP1 CALLDATASIZE SWAP1 PUSH1 0x4 ADD PUSH2 0x37FC JUMP JUMPDEST SWAP1 PUSH1 0x84 CALLDATALOAD PUSH2 0x1072 PUSH2 0x3A98 JUMP JUMPDEST PUSH2 0x107A PUSH2 0x3ADF JUMP JUMPDEST PUSH2 0x108E PUSH8 0xDE0B6B3A7640000 CALLVALUE LT ISZERO PUSH2 0x39C4 JUMP JUMPDEST PUSH1 0x64 CALLDATALOAD ISZERO PUSH2 0x16E6 JUMPI DUP1 ISZERO PUSH2 0x16A1 JUMPI DUP2 MLOAD ISZERO PUSH2 0x1664 JUMPI DUP3 MLOAD ISZERO PUSH2 0x161F JUMPI PUSH2 0x10C3 PUSH2 0x10B8 PUSH1 0x3 SLOAD PUSH2 0x3A1B JUMP JUMPDEST SWAP2 DUP3 PUSH1 0x3 SSTORE TIMESTAMP PUSH2 0x3A2A JUMP JUMPDEST SWAP4 PUSH1 0x40 MLOAD SWAP3 PUSH2 0x10D1 DUP5 PUSH2 0x352A JUMP JUMPDEST DUP3 DUP5 MSTORE CALLER PUSH1 0x20 DUP6 ADD MSTORE PUSH1 0x40 DUP5 ADD MSTORE PUSH1 0x60 DUP4 ADD MSTORE DUP3 PUSH1 0x80 DUP4 ADD MSTORE PUSH1 0x64 CALLDATALOAD PUSH1 0xA0 DUP4 ADD MSTORE PUSH1 0x0 PUSH1 0xC0 DUP4 ADD MSTORE DUP4 PUSH1 0xE0 DUP4 ADD MSTORE PUSH1 0x0 PUSH2 0x100 DUP4 ADD MSTORE PUSH1 0x1 PUSH2 0x120 DUP4 ADD MSTORE TIMESTAMP PUSH2 0x140 DUP4 ADD MSTORE PUSH1 0x0 PUSH2 0x160 DUP4 ADD MSTORE PUSH1 0x0 MSTORE PUSH1 0x4 PUSH1 0x20 MSTORE PUSH1 0x40 PUSH1 0x0 KECCAK256 SWAP1 DUP1 MLOAD DUP3 SSTORE PUSH1 0x1 DUP3 ADD PUSH1 0x1 DUP1 PUSH1 0xA0 SHL SUB PUSH1 0x20 DUP4 ADD MLOAD AND PUSH1 0x1 PUSH1 0x1 PUSH1 0x60 SHL SUB PUSH1 0xA0 SHL DUP3 SLOAD AND OR SWAP1 SSTORE PUSH1 0x40 DUP2 ADD MLOAD DUP1 MLOAD SWAP1 PUSH1 0x1 PUSH1 0x1 PUSH1 0x40 SHL SUB DUP3 GT PUSH2 0x1469 JUMPI DUP2 SWAP1 PUSH2 0x1177 PUSH1 0x2 DUP7 ADD SLOAD PUSH2 0x34F0 JUMP JUMPDEST PUSH1 0x1F DUP2 GT PUSH2 0x15CC JUMPI JUMPDEST POP PUSH1 0x20 SWAP1 PUSH1 0x1F DUP4 GT PUSH1 0x1 EQ PUSH2 0x155A JUMPI PUSH1 0x0 SWAP3 PUSH2 0x154F JUMPI JUMPDEST POP POP DUP2 PUSH1 0x1 SHL SWAP2 PUSH1 0x0 NOT SWAP1 PUSH1 0x3 SHL SHR NOT AND OR PUSH1 0x2 DUP4 ADD SSTORE JUMPDEST PUSH1 0x60 DUP2 ADD MLOAD DUP1 MLOAD SWAP1 PUSH1 0x1 PUSH1 0x1 PUSH1 0x40 SHL SUB DUP3 GT PUSH2 0x1469 JUMPI DUP2 SWAP1 PUSH2 0x11D4 PUSH1 0x3 DUP7 ADD SLOAD PUSH2 0x34F0 JUMP JUMPDEST PUSH1 0x1F DUP2 GT PUSH2 0x14FC JUMPI JUMPDEST POP PUSH1 0x20 SWAP1 PUSH1 0x1F DUP4 GT PUSH1 0x1 EQ PUSH2 0x148A JUMPI PUSH1 0x0 SWAP3 PUSH2 0x147F JUMPI JUMPDEST POP POP DUP2 PUSH1 0x1 SHL SWAP2 PUSH1 0x0 NOT SWAP1 PUSH1 0x3 SHL SHR NOT AND OR PUSH1 0x3 DUP4 ADD SSTORE JUMPDEST PUSH1 0x80 DUP2 ADD MLOAD DUP1 MLOAD SWAP1 PUSH1 0x1 PUSH1 0x1 PUSH1 0x40 SHL SUB DUP3 GT PUSH2 0x1469 JUMPI PUSH2 0x122F PUSH1 0x4 DUP6 ADD SLOAD PUSH2 0x34F0 JUMP JUMPDEST PUSH1 0x1F DUP2 GT PUSH2 0x1422 JUMPI JUMPDEST POP PUSH1 0x20 SWAP1 PUSH1 0x1F DUP4 GT PUSH1 0x1 EQ PUSH2 0x13AC JUMPI SWAP2 DUP1 PUSH1 0xA SWAP5 SWAP3 PUSH2 0x160 SWAP5 PUSH1 0x0 SWAP3 PUSH2 0x13A1 JUMPI JUMPDEST POP POP DUP2 PUSH1 0x1 SHL SWAP2 PUSH1 0x0 NOT SWAP1 PUSH1 0x3 SHL SHR NOT AND OR PUSH1 0x4 DUP6 ADD SSTORE JUMPDEST PUSH1 0xA0 DUP2 ADD MLOAD PUSH1 0x5 DUP6 ADD SSTORE PUSH1 0xC0 DUP2 ADD MLOAD PUSH1 0x6 DUP6 ADD SSTORE PUSH1 0xE0 DUP2 ADD MLOAD PUSH1 0x7 DUP6 ADD SSTORE PUSH2 0x12CF PUSH1 0x8 DUP6 ADD PUSH2 0x12B3 PUSH2 0x100 DUP5 ADD MLOAD ISZERO ISZERO DUP3 SWAP1 PUSH1 0xFF DUP1 NOT DUP4 SLOAD AND SWAP2 ISZERO ISZERO AND OR SWAP1 SSTORE JUMP JUMPDEST PUSH2 0x120 DUP4 ADD MLOAD DUP2 SLOAD PUSH2 0xFF00 NOT AND SWAP1 ISZERO ISZERO PUSH1 0x8 SHL PUSH2 0xFF00 AND OR SWAP1 SSTORE JUMP JUMPDEST PUSH2 0x140 DUP2 ADD MLOAD PUSH1 0x9 DUP6 ADD SSTORE ADD MLOAD SWAP2 ADD SSTORE CALLER PUSH1 0x0 MSTORE PUSH1 0x9 PUSH1 0x20 MSTORE PUSH2 0x12F9 PUSH1 0x40 PUSH1 0x0 KECCAK256 PUSH1 0x3 SLOAD SWAP1 PUSH2 0x3A37 JUMP JUMPDEST PUSH1 0x2 SLOAD PUSH8 0xDE0B6B3A7640000 DUP2 ADD DUP1 SWAP2 GT PUSH2 0x777 JUMPI PUSH1 0x2 SSTORE PUSH8 0xDE0B6B3A7640000 CALLVALUE GT PUSH2 0x1364 JUMPI JUMPDEST PUSH32 0x2E64DA7E06E88CCD84D69ECCB21119CA81E40E5648611E89EDFE888C8FA62597 PUSH2 0x135A PUSH1 0x3 SLOAD SWAP3 PUSH1 0x40 MLOAD SWAP2 DUP3 SWAP2 CALLER SWAP7 PUSH1 0x64 CALLDATALOAD DUP5 PUSH2 0x3A79 JUMP JUMPDEST SUB SWAP1 LOG3 PUSH1 0x1 PUSH1 0x0 SSTORE STOP JUMPDEST PUSH8 0xDE0B6B3A763FFFF NOT CALLVALUE ADD CALLVALUE DUP2 GT PUSH2 0x777 JUMPI PUSH1 0x0 DUP1 DUP1 DUP1 SWAP4 DUP2 DUP2 ISZERO PUSH2 0x1398 JUMPI JUMPDEST CALLER SWAP1 CALL PUSH2 0x1321 JUMPI PUSH1 0x40 MLOAD RETURNDATASIZE PUSH1 0x0 DUP3 RETURNDATACOPY RETURNDATASIZE SWAP1 REVERT JUMPDEST POP PUSH2 0x8FC PUSH2 0x1385 JUMP JUMPDEST ADD MLOAD SWAP1 POP DUP9 DUP1 PUSH2 0x1259 JUMP JUMPDEST SWAP1 PUSH1 0x4 DUP6 ADD PUSH1 0x0 MSTORE PUSH1 0x20 PUSH1 0x0 KECCAK256 SWAP2 PUSH1 0x0 JUMPDEST PUSH1 0x1F NOT DUP6 AND DUP2 LT PUSH2 0x140A JUMPI POP SWAP3 PUSH1 0xA SWAP5 SWAP3 PUSH1 0x1 SWAP3 PUSH2 0x160 SWAP6 DUP4 PUSH1 0x1F NOT DUP2 AND LT PUSH2 0x13F1 JUMPI JUMPDEST POP POP POP DUP2 SHL ADD PUSH1 0x4 DUP6 ADD SSTORE PUSH2 0x1271 JUMP JUMPDEST ADD MLOAD PUSH1 0x0 NOT PUSH1 0xF8 DUP5 PUSH1 0x3 SHL AND SHR NOT AND SWAP1 SSTORE DUP9 DUP1 DUP1 PUSH2 0x13E1 JUMP JUMPDEST SWAP2 SWAP3 PUSH1 0x20 PUSH1 0x1 DUP2 SWAP3 DUP7 DUP6 ADD MLOAD DUP2 SSTORE ADD SWAP5 ADD SWAP3 ADD PUSH2 0x13BD JUMP JUMPDEST PUSH1 0x4 DUP6 ADD PUSH1 0x0 MSTORE PUSH1 0x20 PUSH1 0x0 KECCAK256 PUSH1 0x1F DUP5 ADD PUSH1 0x5 SHR DUP2 ADD PUSH1 0x20 DUP6 LT PUSH2 0x1462 JUMPI JUMPDEST PUSH1 0x1F DUP4 ADD PUSH1 0x5 SHR DUP3 ADD DUP2 LT PUSH2 0x1456 JUMPI POP POP PUSH2 0x1238 JUMP JUMPDEST PUSH1 0x0 DUP2 SSTORE PUSH1 0x1 ADD PUSH2 0x1440 JUMP JUMPDEST POP DUP1 PUSH2 0x1440 JUMP JUMPDEST PUSH4 0x4E487B71 PUSH1 0xE0 SHL PUSH1 0x0 MSTORE PUSH1 0x41 PUSH1 0x4 MSTORE PUSH1 0x24 PUSH1 0x0 REVERT JUMPDEST ADD MLOAD SWAP1 POP DUP7 DUP1 PUSH2 0x11F4 JUMP JUMPDEST SWAP3 POP PUSH1 0x3 DUP6 ADD PUSH1 0x0 MSTORE PUSH1 0x20 PUSH1 0x0 KECCAK256 SWAP1 PUSH1 0x0 SWAP4 JUMPDEST PUSH1 0x1F NOT DUP5 AND DUP6 LT PUSH2 0x14E1 JUMPI PUSH1 0x1 SWAP5 POP DUP4 PUSH1 0x1F NOT DUP2 AND LT PUSH2 0x14C8 JUMPI JUMPDEST POP POP POP DUP2 SHL ADD PUSH1 0x3 DUP4 ADD SSTORE PUSH2 0x120C JUMP JUMPDEST ADD MLOAD PUSH1 0x0 NOT PUSH1 0xF8 DUP5 PUSH1 0x3 SHL AND SHR NOT AND SWAP1 SSTORE DUP7 DUP1 DUP1 PUSH2 0x14B8 JUMP JUMPDEST DUP2 DUP2 ADD MLOAD DUP4 SSTORE PUSH1 0x20 SWAP5 DUP6 ADD SWAP5 PUSH1 0x1 SWAP1 SWAP4 ADD SWAP3 SWAP1 SWAP2 ADD SWAP1 PUSH2 0x149D JUMP JUMPDEST SWAP1 SWAP2 POP PUSH1 0x3 DUP6 ADD PUSH1 0x0 MSTORE PUSH1 0x20 PUSH1 0x0 KECCAK256 PUSH1 0x1F DUP5 ADD PUSH1 0x5 SHR DUP2 ADD PUSH1 0x20 DUP6 LT PUSH2 0x1548 JUMPI JUMPDEST SWAP1 DUP5 SWAP4 SWAP3 SWAP2 JUMPDEST PUSH1 0x1F DUP4 ADD PUSH1 0x5 SHR DUP3 ADD DUP2 LT PUSH2 0x1539 JUMPI POP POP PUSH2 0x11DD JUMP JUMPDEST PUSH1 0x0 DUP2 SSTORE DUP6 SWAP5 POP PUSH1 0x1 ADD PUSH2 0x1523 JUMP JUMPDEST POP DUP1 PUSH2 0x151D JUMP JUMPDEST ADD MLOAD SWAP1 POP DUP7 DUP1 PUSH2 0x1197 JUMP JUMPDEST SWAP3 POP PUSH1 0x2 DUP6 ADD PUSH1 0x0 MSTORE PUSH1 0x20 PUSH1 0x0 KECCAK256 SWAP1 PUSH1 0x0 SWAP4 JUMPDEST PUSH1 0x1F NOT DUP5 AND DUP6 LT PUSH2 0x15B1 JUMPI PUSH1 0x1 SWAP5 POP DUP4 PUSH1 0x1F NOT DUP2 AND LT PUSH2 0x1598 JUMPI JUMPDEST POP POP POP DUP2 SHL ADD PUSH1 0x2 DUP4 ADD SSTORE PUSH2 0x11AF JUMP JUMPDEST ADD MLOAD PUSH1 0x0 NOT PUSH1 0xF8 DUP5 PUSH1 0x3 SHL AND SHR NOT AND SWAP1 SSTORE DUP7 DUP1 DUP1 PUSH2 0x1588 JUMP JUMPDEST DUP2 DUP2 ADD MLOAD DUP4 SSTORE PUSH1 0x20 SWAP5 DUP6 ADD SWAP5 PUSH1 0x1 SWAP1 SWAP4 ADD SWAP3 SWAP1 SWAP2 ADD SWAP1 PUSH2 0x156D JUMP JUMPDEST SWAP1 SWAP2 POP PUSH1 0x2 DUP6 ADD PUSH1 0x0 MSTORE PUSH1 0x20 PUSH1 0x0 KECCAK256 PUSH1 0x1F DUP5 ADD PUSH1 0x5 SHR DUP2 ADD PUSH1 0x20 DUP6 LT PUSH2 0x1618 JUMPI JUMPDEST SWAP1 DUP5 SWAP4 SWAP3 SWAP2 JUMPDEST PUSH1 0x1F DUP4 ADD PUSH1 0x5 SHR DUP3 ADD DUP2 LT PUSH2 0x1609 JUMPI POP POP PUSH2 0x1180 JUMP JUMPDEST PUSH1 0x0 DUP2 SSTORE DUP6 SWAP5 POP PUSH1 0x1 ADD PUSH2 0x15F3 JUMP JUMPDEST POP DUP1 PUSH2 0x15ED JUMP JUMPDEST PUSH1 0x40 MLOAD PUSH3 0x461BCD PUSH1 0xE5 SHL DUP2 MSTORE PUSH1 0x20 PUSH1 0x4 DUP3 ADD MSTORE PUSH1 0x1D PUSH1 0x24 DUP3 ADD MSTORE PUSH32 0x4D6574616461746120686173682063616E6E6F7420626520656D707479000000 PUSH1 0x44 DUP3 ADD MSTORE PUSH1 0x64 SWAP1 REVERT JUMPDEST PUSH1 0x40 MLOAD PUSH3 0x461BCD PUSH1 0xE5 SHL DUP2 MSTORE PUSH1 0x20 PUSH1 0x4 DUP3 ADD MSTORE PUSH1 0x15 PUSH1 0x24 DUP3 ADD MSTORE PUSH21 0x5469746C652063616E6E6F7420626520656D707479 PUSH1 0x58 SHL PUSH1 0x44 DUP3 ADD MSTORE PUSH1 0x64 SWAP1 REVERT JUMPDEST PUSH1 0x40 MLOAD PUSH3 0x461BCD PUSH1 0xE5 SHL DUP2 MSTORE PUSH1 0x20 PUSH1 0x4 DUP3 ADD MSTORE PUSH1 0x1F PUSH1 0x24 DUP3 ADD MSTORE PUSH32 0x4475726174696F6E206D7573742062652067726561746572207468616E203000 PUSH1 0x44 DUP3 ADD MSTORE PUSH1 0x64 SWAP1 REVERT JUMPDEST PUSH1 0x40 MLOAD PUSH3 0x461BCD PUSH1 0xE5 SHL DUP2 MSTORE PUSH1 0x20 PUSH1 0x4 DUP3 ADD MSTORE PUSH1 0x24 DUP1 DUP3 ADD MSTORE PUSH32 0x54617267657420616D6F756E74206D7573742062652067726561746572207468 PUSH1 0x44 DUP3 ADD MSTORE PUSH4 0x616E203 PUSH1 0xE4 SHL PUSH1 0x64 DUP3 ADD MSTORE PUSH1 0x84 SWAP1 REVERT JUMPDEST CALLVALUE PUSH2 0x217 JUMPI PUSH1 0x0 CALLDATASIZE PUSH1 0x3 NOT ADD SLT PUSH2 0x217 JUMPI PUSH1 0x1 SLOAD PUSH1 0x40 MLOAD PUSH1 0x1 PUSH1 0x1 PUSH1 0xA0 SHL SUB SWAP1 SWAP2 AND DUP2 MSTORE PUSH1 0x20 SWAP1 RETURN JUMPDEST CALLVALUE PUSH2 0x217 JUMPI PUSH1 0x0 CALLDATASIZE PUSH1 0x3 NOT ADD SLT PUSH2 0x217 JUMPI PUSH2 0x1779 PUSH2 0x396C JUMP JUMPDEST PUSH2 0x1781 PUSH2 0x3A98 JUMP JUMPDEST PUSH1 0x1 DUP1 SLOAD PUSH1 0xFF PUSH1 0xA0 SHL NOT AND PUSH1 0x1 PUSH1 0xA0 SHL OR SWAP1 SSTORE PUSH1 0x40 MLOAD CALLER DUP2 MSTORE PUSH32 0x62E78CEA01BEE320CD4E420270B5EA74000D11B0C9F74754EBDBFC544B05A258 SWAP1 PUSH1 0x20 SWAP1 LOG1 STOP JUMPDEST CALLVALUE PUSH2 0x217 JUMPI PUSH1 0x20 CALLDATASIZE PUSH1 0x3 NOT ADD SLT PUSH2 0x217 JUMPI PUSH1 0x1 PUSH1 0x1 PUSH1 0xA0 SHL SUB PUSH2 0x17E3 PUSH2 0x34C4 JUMP JUMPDEST AND PUSH1 0x0 MSTORE PUSH1 0xC PUSH1 0x20 MSTORE PUSH1 0x20 PUSH1 0x40 PUSH1 0x0 KECCAK256 SLOAD PUSH1 0x40 MLOAD SWAP1 DUP2 MSTORE RETURN JUMPDEST CALLVALUE PUSH2 0x217 JUMPI PUSH1 0x20 CALLDATASIZE PUSH1 0x3 NOT ADD SLT PUSH2 0x217 JUMPI PUSH1 0x4 CALLDATALOAD PUSH2 0x1818 PUSH2 0x396C JUMP JUMPDEST DUP1 ISZERO ISZERO DUP1 PUSH2 0x1846 JUMPI JUMPDEST PUSH2 0x182A SWAP1 PUSH2 0x3B49 JUMP JUMPDEST PUSH1 0x0 SWAP1 DUP2 MSTORE PUSH1 0x4 PUSH1 0x20 MSTORE PUSH1 0x40 SWAP1 KECCAK256 PUSH1 0x8 ADD DUP1 SLOAD PUSH2 0xFF00 NOT AND SWAP1 SSTORE STOP JUMPDEST POP PUSH1 0x3 SLOAD DUP2 GT ISZERO PUSH2 0x1821 JUMP JUMPDEST PUSH2 0x120 CALLDATASIZE PUSH1 0x3 NOT ADD SLT PUSH2 0x217 JUMPI PUSH1 0x4 CALLDATALOAD PUSH1 0x1 PUSH1 0x1 PUSH1 0x40 SHL SUB DUP2 GT PUSH2 0x217 JUMPI PUSH2 0x187E SWAP1 CALLDATASIZE SWAP1 PUSH1 0x4 ADD PUSH2 0x37FC JUMP JUMPDEST PUSH1 0x24 CALLDATALOAD PUSH1 0x1 PUSH1 0x1 PUSH1 0x40 SHL SUB DUP2 GT PUSH2 0x217 JUMPI PUSH2 0x189D SWAP1 CALLDATASIZE SWAP1 PUSH1 0x4 ADD PUSH2 0x37FC JUMP JUMPDEST SWAP1 PUSH1 0x44 CALLDATALOAD PUSH1 0x1 PUSH1 0x1 PUSH1 0x40 SHL SUB DUP2 GT PUSH2 0x217 JUMPI PUSH2 0x18BD SWAP1 CALLDATASIZE SWAP1 PUSH1 0x4 ADD PUSH2 0x37FC JUMP JUMPDEST SWAP2 PUSH1 0xA4 CALLDATALOAD PUSH1 0x1 PUSH1 0x1 PUSH1 0x40 SHL SUB DUP2 GT PUSH2 0x217 JUMPI PUSH2 0x18DD SWAP1 CALLDATASIZE SWAP1 PUSH1 0x4 ADD PUSH2 0x385A JUMP JUMPDEST SWAP3 PUSH1 0xC4 CALLDATALOAD PUSH1 0x1 PUSH1 0x1 PUSH1 0x40 SHL SUB DUP2 GT PUSH2 0x217 JUMPI PUSH2 0x18FD SWAP1 CALLDATASIZE SWAP1 PUSH1 0x4 ADD PUSH2 0x38B8 JUMP JUMPDEST PUSH1 0xE4 CALLDATALOAD PUSH1 0x1 PUSH1 0x1 PUSH1 0x40 SHL SUB DUP2 GT PUSH2 0x217 JUMPI PUSH2 0x191C SWAP1 CALLDATASIZE SWAP1 PUSH1 0x4 ADD PUSH2 0x38B8 JUMP JUMPDEST SWAP1 PUSH2 0x104 CALLDATALOAD PUSH1 0x1 PUSH1 0x1 PUSH1 0x40 SHL SUB DUP2 GT PUSH2 0x217 JUMPI PUSH2 0x193D SWAP1 CALLDATASIZE SWAP1 PUSH1 0x4 ADD PUSH2 0x385A JUMP JUMPDEST SWAP1 PUSH2 0x1946 PUSH2 0x3A98 JUMP JUMPDEST PUSH2 0x194E PUSH2 0x3ADF JUMP JUMPDEST PUSH2 0x1962 PUSH8 0xDE0B6B3A7640000 CALLVALUE LT ISZERO PUSH2 0x39C4 JUMP JUMPDEST PUSH1 0x64 CALLDATALOAD ISZERO PUSH2 0x232E JUMPI PUSH1 0x84 CALLDATALOAD ISZERO PUSH2 0x22F2 JUMPI DUP7 MLOAD ISZERO PUSH2 0x22AD JUMPI DUP7 MLOAD DUP2 MLOAD DUP2 EQ SWAP1 DUP2 PUSH2 0x22A2 JUMPI JUMPDEST DUP2 PUSH2 0x2297 JUMPI JUMPDEST POP ISZERO PUSH2 0x2248 JUMPI PUSH1 0x0 SWAP5 DUP6 JUMPDEST DUP9 MLOAD DUP8 LT ISZERO PUSH2 0x19C4 JUMPI PUSH2 0x19B8 PUSH2 0x19BE SWAP2 PUSH2 0x19B1 DUP10 DUP13 PUSH2 0x3B35 JUMP JUMPDEST MLOAD SWAP1 PUSH2 0x3A2A JUMP JUMPDEST SWAP7 PUSH2 0x3A1B JUMP JUMPDEST SWAP6 PUSH2 0x1997 JUMP JUMPDEST DUP9 SWAP7 POP DUP8 SWAP1 PUSH1 0x64 CALLDATALOAD SUB PUSH2 0x21F8 JUMPI PUSH2 0x19DC PUSH1 0x3 SLOAD PUSH2 0x3A1B JUMP JUMPDEST DUP1 PUSH1 0x3 SSTORE PUSH2 0x19EC PUSH1 0x84 CALLDATALOAD TIMESTAMP PUSH2 0x3A2A JUMP JUMPDEST SWAP3 PUSH1 0x40 MLOAD SWAP3 PUSH2 0x19FA DUP5 PUSH2 0x352A JUMP JUMPDEST DUP3 DUP5 MSTORE CALLER PUSH1 0x20 DUP6 ADD MSTORE PUSH1 0x40 DUP5 ADD MSTORE PUSH1 0x60 DUP4 ADD MSTORE DUP7 PUSH1 0x80 DUP4 ADD MSTORE PUSH1 0x64 CALLDATALOAD PUSH1 0xA0 DUP4 ADD MSTORE PUSH1 0x0 PUSH1 0xC0 DUP4 ADD MSTORE DUP3 PUSH1 0xE0 DUP4 ADD MSTORE PUSH1 0x0 PUSH2 0x100 DUP4 ADD MSTORE PUSH1 0x1 PUSH2 0x120 DUP4 ADD MSTORE TIMESTAMP PUSH2 0x140 DUP4 ADD MSTORE PUSH1 0x0 PUSH2 0x160 DUP4 ADD MSTORE PUSH1 0x0 MSTORE PUSH1 0x4 PUSH1 0x20 MSTORE PUSH1 0x40 PUSH1 0x0 KECCAK256 SWAP1 DUP1 MLOAD DUP3 SSTORE PUSH1 0x1 DUP3 ADD PUSH1 0x1 DUP1 PUSH1 0xA0 SHL SUB PUSH1 0x20 DUP4 ADD MLOAD AND PUSH1 0x1 PUSH1 0x1 PUSH1 0x60 SHL SUB PUSH1 0xA0 SHL DUP3 SLOAD AND OR SWAP1 SSTORE PUSH1 0x40 DUP2 ADD MLOAD DUP1 MLOAD SWAP1 PUSH1 0x1 PUSH1 0x1 PUSH1 0x40 SHL SUB DUP3 GT PUSH2 0x1469 JUMPI DUP2 SWAP1 PUSH2 0x1AA0 PUSH1 0x2 DUP7 ADD SLOAD PUSH2 0x34F0 JUMP JUMPDEST PUSH1 0x1F DUP2 GT PUSH2 0x21A5 JUMPI JUMPDEST POP PUSH1 0x20 SWAP1 PUSH1 0x1F DUP4 GT PUSH1 0x1 EQ PUSH2 0x2133 JUMPI PUSH1 0x0 SWAP3 PUSH2 0x2128 JUMPI JUMPDEST POP POP DUP2 PUSH1 0x1 SHL SWAP2 PUSH1 0x0 NOT SWAP1 PUSH1 0x3 SHL SHR NOT AND OR PUSH1 0x2 DUP4 ADD SSTORE JUMPDEST PUSH1 0x60 DUP2 ADD MLOAD DUP1 MLOAD SWAP1 PUSH1 0x1 PUSH1 0x1 PUSH1 0x40 SHL SUB DUP3 GT PUSH2 0x1469 JUMPI DUP2 SWAP1 PUSH2 0x1AFD PUSH1 0x3 DUP7 ADD SLOAD PUSH2 0x34F0 JUMP JUMPDEST PUSH1 0x1F DUP2 GT PUSH2 0x20D5 JUMPI JUMPDEST POP PUSH1 0x20 SWAP1 PUSH1 0x1F DUP4 GT PUSH1 0x1 EQ PUSH2 0x2063 JUMPI PUSH1 0x0 SWAP3 PUSH2 0x2058 JUMPI JUMPDEST POP POP DUP2 PUSH1 0x1 SHL SWAP2 PUSH1 0x0 NOT SWAP1 PUSH1 0x3 SHL SHR NOT AND OR PUSH1 0x3 DUP4 ADD SSTORE JUMPDEST PUSH1 0x80 DUP2 ADD MLOAD DUP1 MLOAD SWAP1 PUSH1 0x1 PUSH1 0x1 PUSH1 0x40 SHL SUB DUP3 GT PUSH2 0x1469 JUMPI PUSH2 0x1B58 PUSH1 0x4 DUP6 ADD SLOAD PUSH2 0x34F0 JUMP JUMPDEST PUSH1 0x1F DUP2 GT PUSH2 0x2011 JUMPI JUMPDEST POP PUSH1 0x20 SWAP1 PUSH1 0x1F DUP4 GT PUSH1 0x1 EQ PUSH2 0x1F9B JUMPI SWAP2 DUP1 PUSH1 0xA SWAP5 SWAP3 PUSH2 0x160 SWAP5 PUSH1 0x0 SWAP3 PUSH2 0x1F90 JUMPI JUMPDEST POP POP DUP2 PUSH1 0x1 SHL SWAP2 PUSH1 0x0 NOT SWAP1 PUSH1 0x3 SHL SHR NOT AND OR PUSH1 0x4 DUP6 ADD SSTORE JUMPDEST PUSH1 0xA0 DUP2 ADD MLOAD PUSH1 0x5 DUP6 ADD SSTORE PUSH1 0xC0 DUP2 ADD MLOAD PUSH1 0x6 DUP6 ADD SSTORE PUSH1 0xE0 DUP2 ADD MLOAD PUSH1 0x7 DUP6 ADD SSTORE PUSH2 0x1BDC PUSH1 0x8 DUP6 ADD PUSH2 0x12B3 PUSH2 0x100 DUP5 ADD MLOAD ISZERO ISZERO DUP3 SWAP1 PUSH1 0xFF DUP1 NOT DUP4 SLOAD AND SWAP2 ISZERO ISZERO AND OR SWAP1 SSTORE JUMP JUMPDEST PUSH2 0x140 DUP2 ADD MLOAD PUSH1 0x9 DUP6 ADD SSTORE ADD MLOAD SWAP2 ADD SSTORE PUSH1 0x0 JUMPDEST DUP7 MLOAD DUP2 LT ISZERO PUSH2 0x1F74 JUMPI PUSH2 0x1C02 DUP2 DUP5 PUSH2 0x3B35 JUMP JUMPDEST MLOAD PUSH2 0x1C0D DUP3 DUP8 PUSH2 0x3B35 JUMP JUMPDEST MLOAD PUSH2 0x1C18 DUP4 DUP11 PUSH2 0x3B35 JUMP JUMPDEST MLOAD PUSH2 0x1C23 DUP5 DUP9 PUSH2 0x3B35 JUMP JUMPDEST MLOAD SWAP2 PUSH1 0x40 MLOAD SWAP4 PUSH2 0x1C32 DUP6 PUSH2 0x3561 JUMP JUMPDEST DUP6 DUP6 MSTORE PUSH1 0x20 DUP6 ADD MSTORE PUSH1 0x40 DUP5 ADD MSTORE PUSH1 0x60 DUP4 ADD MSTORE PUSH1 0x80 DUP3 ADD MSTORE PUSH1 0x0 PUSH1 0xA0 DUP3 ADD MSTORE PUSH1 0x3 SLOAD PUSH1 0x0 MSTORE PUSH1 0x5 PUSH1 0x20 MSTORE PUSH1 0x40 PUSH1 0x0 KECCAK256 DUP1 SLOAD PUSH1 0x1 PUSH1 0x40 SHL DUP2 LT ISZERO PUSH2 0x1469 JUMPI PUSH2 0x1C7D SWAP2 PUSH1 0x1 DUP3 ADD DUP2 SSTORE PUSH2 0x36FE JUMP JUMPDEST SWAP2 SWAP1 SWAP2 PUSH2 0x1F5E JUMPI DUP1 MLOAD DUP3 SSTORE PUSH1 0x20 DUP2 ADD MLOAD DUP1 MLOAD SWAP1 PUSH1 0x1 PUSH1 0x1 PUSH1 0x40 SHL SUB DUP3 GT PUSH2 0x1469 JUMPI DUP2 SWAP1 PUSH2 0x1CAD PUSH1 0x1 DUP7 ADD SLOAD PUSH2 0x34F0 JUMP JUMPDEST PUSH1 0x1F DUP2 GT PUSH2 0x1F0B JUMPI JUMPDEST POP PUSH1 0x20 SWAP1 PUSH1 0x1F DUP4 GT PUSH1 0x1 EQ PUSH2 0x1E99 JUMPI PUSH1 0x0 SWAP3 PUSH2 0x1E8E JUMPI JUMPDEST POP POP DUP2 PUSH1 0x1 SHL SWAP2 PUSH1 0x0 NOT SWAP1 PUSH1 0x3 SHL SHR NOT AND OR PUSH1 0x1 DUP4 ADD SSTORE JUMPDEST PUSH1 0x40 DUP2 ADD MLOAD DUP1 MLOAD SWAP1 PUSH1 0x1 PUSH1 0x1 PUSH1 0x40 SHL SUB DUP3 GT PUSH2 0x1469 JUMPI PUSH2 0x1D08 PUSH1 0x2 DUP6 ADD SLOAD PUSH2 0x34F0 JUMP JUMPDEST PUSH1 0x1F DUP2 GT PUSH2 0x1E47 JUMPI JUMPDEST POP PUSH1 0x20 SWAP1 PUSH1 0x1F DUP4 GT PUSH1 0x1 EQ PUSH2 0x1DCA JUMPI PUSH2 0x1D7C SWAP4 DUP4 PUSH2 0x1DBA SWAP8 SWAP7 SWAP5 PUSH1 0x5 SWAP5 PUSH1 0xA0 SWAP5 PUSH1 0x0 SWAP3 PUSH2 0x1DBF JUMPI JUMPDEST POP POP DUP2 PUSH1 0x1 SHL SWAP2 PUSH1 0x0 NOT SWAP1 PUSH1 0x3 SHL SHR NOT AND OR PUSH1 0x2 DUP6 ADD SSTORE JUMPDEST PUSH1 0x60 DUP2 ADD MLOAD PUSH1 0x3 DUP6 ADD SSTORE PUSH1 0x80 DUP2 ADD MLOAD PUSH1 0x4 DUP6 ADD SSTORE ADD MLOAD ISZERO ISZERO SWAP2 ADD SWAP1 PUSH1 0xFF DUP1 NOT DUP4 SLOAD AND SWAP2 ISZERO ISZERO AND OR SWAP1 SSTORE JUMP JUMPDEST DUP1 PUSH1 0x3 SLOAD PUSH32 0xB59C2D823E6CA395C24829D80F43A97D9C6FD711596372C5A4663AF872F4B9D2 PUSH1 0x20 PUSH2 0x1DAD DUP5 DUP14 PUSH2 0x3B35 JUMP JUMPDEST MLOAD PUSH1 0x40 MLOAD SWAP1 DUP2 MSTORE LOG3 PUSH2 0x3A1B JUMP JUMPDEST PUSH2 0x1BEF JUMP JUMPDEST ADD MLOAD SWAP1 POP DUP16 DUP1 PUSH2 0x1D39 JUMP JUMPDEST SWAP1 PUSH1 0x2 DUP6 ADD PUSH1 0x0 MSTORE PUSH1 0x20 PUSH1 0x0 KECCAK256 SWAP2 PUSH1 0x0 JUMPDEST PUSH1 0x1F NOT DUP6 AND DUP2 LT PUSH2 0x1E2F JUMPI POP SWAP4 PUSH1 0x1 DUP5 PUSH1 0x5 SWAP5 PUSH1 0xA0 SWAP5 PUSH2 0x1D7C SWAP9 PUSH2 0x1DBA SWAP12 SWAP11 SWAP9 PUSH1 0x1F NOT DUP2 AND LT PUSH2 0x1E16 JUMPI JUMPDEST POP POP POP DUP2 SHL ADD PUSH1 0x2 DUP6 ADD SSTORE PUSH2 0x1D51 JUMP JUMPDEST ADD MLOAD PUSH1 0x0 NOT PUSH1 0xF8 DUP5 PUSH1 0x3 SHL AND SHR NOT AND SWAP1 SSTORE DUP16 DUP1 DUP1 PUSH2 0x1E06 JUMP JUMPDEST SWAP2 SWAP3 PUSH1 0x20 PUSH1 0x1 DUP2 SWAP3 DUP7 DUP6 ADD MLOAD DUP2 SSTORE ADD SWAP5 ADD SWAP3 ADD PUSH2 0x1DDB JUMP JUMPDEST PUSH1 0x2 DUP6 ADD PUSH1 0x0 MSTORE PUSH1 0x20 PUSH1 0x0 KECCAK256 PUSH1 0x1F DUP5 ADD PUSH1 0x5 SHR DUP2 ADD PUSH1 0x20 DUP6 LT PUSH2 0x1E87 JUMPI JUMPDEST PUSH1 0x1F DUP4 ADD PUSH1 0x5 SHR DUP3 ADD DUP2 LT PUSH2 0x1E7B JUMPI POP POP PUSH2 0x1D11 JUMP JUMPDEST PUSH1 0x0 DUP2 SSTORE PUSH1 0x1 ADD PUSH2 0x1E65 JUMP JUMPDEST POP DUP1 PUSH2 0x1E65 JUMP JUMPDEST ADD MLOAD SWAP1 POP DUP12 DUP1 PUSH2 0x1CCD JUMP JUMPDEST SWAP3 POP PUSH1 0x1 DUP6 ADD PUSH1 0x0 MSTORE PUSH1 0x20 PUSH1 0x0 KECCAK256 SWAP1 PUSH1 0x0 SWAP4 JUMPDEST PUSH1 0x1F NOT DUP5 AND DUP6 LT PUSH2 0x1EF0 JUMPI PUSH1 0x1 SWAP5 POP DUP4 PUSH1 0x1F NOT DUP2 AND LT PUSH2 0x1ED7 JUMPI JUMPDEST POP POP POP DUP2 SHL ADD PUSH1 0x1 DUP4 ADD SSTORE PUSH2 0x1CE5 JUMP JUMPDEST ADD MLOAD PUSH1 0x0 NOT PUSH1 0xF8 DUP5 PUSH1 0x3 SHL AND SHR NOT AND SWAP1 SSTORE DUP12 DUP1 DUP1 PUSH2 0x1EC7 JUMP JUMPDEST DUP2 DUP2 ADD MLOAD DUP4 SSTORE PUSH1 0x20 SWAP5 DUP6 ADD SWAP5 PUSH1 0x1 SWAP1 SWAP4 ADD SWAP3 SWAP1 SWAP2 ADD SWAP1 PUSH2 0x1EAC JUMP JUMPDEST SWAP1 SWAP2 POP PUSH1 0x1 DUP6 ADD PUSH1 0x0 MSTORE PUSH1 0x20 PUSH1 0x0 KECCAK256 PUSH1 0x1F DUP5 ADD PUSH1 0x5 SHR DUP2 ADD PUSH1 0x20 DUP6 LT PUSH2 0x1F57 JUMPI JUMPDEST SWAP1 DUP5 SWAP4 SWAP3 SWAP2 JUMPDEST PUSH1 0x1F DUP4 ADD PUSH1 0x5 SHR DUP3 ADD DUP2 LT PUSH2 0x1F48 JUMPI POP POP PUSH2 0x1CB6 JUMP JUMPDEST PUSH1 0x0 DUP2 SSTORE DUP6 SWAP5 POP PUSH1 0x1 ADD PUSH2 0x1F32 JUMP JUMPDEST POP DUP1 PUSH2 0x1F2C JUMP JUMPDEST PUSH4 0x4E487B71 PUSH1 0xE0 SHL PUSH1 0x0 MSTORE PUSH1 0x0 PUSH1 0x4 MSTORE PUSH1 0x24 PUSH1 0x0 REVERT JUMPDEST POP DUP5 CALLER PUSH1 0x0 MSTORE PUSH1 0x9 PUSH1 0x20 MSTORE PUSH2 0x12F9 PUSH1 0x40 PUSH1 0x0 KECCAK256 PUSH1 0x3 SLOAD SWAP1 PUSH2 0x3A37 JUMP JUMPDEST ADD MLOAD SWAP1 POP DUP13 DUP1 PUSH2 0x1B82 JUMP JUMPDEST SWAP1 PUSH1 0x4 DUP6 ADD PUSH1 0x0 MSTORE PUSH1 0x20 PUSH1 0x0 KECCAK256 SWAP2 PUSH1 0x0 JUMPDEST PUSH1 0x1F NOT DUP6 AND DUP2 LT PUSH2 0x1FF9 JUMPI POP SWAP3 PUSH1 0xA SWAP5 SWAP3 PUSH1 0x1 SWAP3 PUSH2 0x160 SWAP6 DUP4 PUSH1 0x1F NOT DUP2 AND LT PUSH2 0x1FE0 JUMPI JUMPDEST POP POP POP DUP2 SHL ADD PUSH1 0x4 DUP6 ADD SSTORE PUSH2 0x1B9A JUMP JUMPDEST ADD MLOAD PUSH1 0x0 NOT PUSH1 0xF8 DUP5 PUSH1 0x3 SHL AND SHR NOT AND SWAP1 SSTORE DUP13 DUP1 DUP1 PUSH2 0x1FD0 JUMP JUMPDEST SWAP2 SWAP3 PUSH1 0x20 PUSH1 0x1 DUP2 SWAP3 DUP7 DUP6 ADD MLOAD DUP2 SSTORE ADD SWAP5 ADD SWAP3 ADD PUSH2 0x1FAC JUMP JUMPDEST PUSH1 0x4 DUP6 ADD PUSH1 0x0 MSTORE PUSH1 0x20 PUSH1 0x0 KECCAK256 PUSH1 0x1F DUP5 ADD PUSH1 0x5 SHR DUP2 ADD PUSH1 0x20 DUP6 LT PUSH2 0x2051 JUMPI JUMPDEST PUSH1 0x1F DUP4 ADD PUSH1 0x5 SHR DUP3 ADD DUP2 LT PUSH2 0x2045 JUMPI POP POP PUSH2 0x1B61 JUMP JUMPDEST PUSH1 0x0 DUP2 SSTORE PUSH1 0x1 ADD PUSH2 0x202F JUMP JUMPDEST POP DUP1 PUSH2 0x202F JUMP JUMPDEST ADD MLOAD SWAP1 POP DUP11 DUP1 PUSH2 0x1B1D JUMP JUMPDEST SWAP3 POP PUSH1 0x3 DUP6 ADD PUSH1 0x0 MSTORE PUSH1 0x20 PUSH1 0x0 KECCAK256 SWAP1 PUSH1 0x0 SWAP4 JUMPDEST PUSH1 0x1F NOT DUP5 AND DUP6 LT PUSH2 0x20BA JUMPI PUSH1 0x1 SWAP5 POP DUP4 PUSH1 0x1F NOT DUP2 AND LT PUSH2 0x20A1 JUMPI JUMPDEST POP POP POP DUP2 SHL ADD PUSH1 0x3 DUP4 ADD SSTORE PUSH2 0x1B35 JUMP JUMPDEST ADD MLOAD PUSH1 0x0 NOT PUSH1 0xF8 DUP5 PUSH1 0x3 SHL AND SHR NOT AND SWAP1 SSTORE DUP11 DUP1 DUP1 PUSH2 0x2091 JUMP JUMPDEST DUP2 DUP2 ADD MLOAD DUP4 SSTORE PUSH1 0x20 SWAP5 DUP6 ADD SWAP5 PUSH1 0x1 SWAP1 SWAP4 ADD SWAP3 SWAP1 SWAP2 ADD SWAP1 PUSH2 0x2076 JUMP JUMPDEST SWAP1 SWAP2 POP PUSH1 0x3 DUP6 ADD PUSH1 0x0 MSTORE PUSH1 0x20 PUSH1 0x0 KECCAK256 PUSH1 0x1F DUP5 ADD PUSH1 0x5 SHR DUP2 ADD PUSH1 0x20 DUP6 LT PUSH2 0x2121 JUMPI JUMPDEST SWAP1 DUP5 SWAP4 SWAP3 SWAP2 JUMPDEST PUSH1 0x1F DUP4 ADD PUSH1 0x5 SHR DUP3 ADD DUP2 LT PUSH2 0x2112 JUMPI POP POP PUSH2 0x1B06 JUMP JUMPDEST PUSH1 0x0 DUP2 SSTORE DUP6 SWAP5 POP PUSH1 0x1 ADD PUSH2 0x20FC JUMP JUMPDEST POP DUP1 PUSH2 0x20F6 JUMP JUMPDEST ADD MLOAD SWAP1 POP DUP11 DUP1 PUSH2 0x1AC0 JUMP JUMPDEST SWAP3 POP PUSH1 0x2 DUP6 ADD PUSH1 0x0 MSTORE PUSH1 0x20 PUSH1 0x0 KECCAK256 SWAP1 PUSH1 0x0 SWAP4 JUMPDEST PUSH1 0x1F NOT DUP5 AND DUP6 LT PUSH2 0x218A JUMPI PUSH1 0x1 SWAP5 POP DUP4 PUSH1 0x1F NOT DUP2 AND LT PUSH2 0x2171 JUMPI JUMPDEST POP POP POP DUP2 SHL ADD PUSH1 0x2 DUP4 ADD SSTORE PUSH2 0x1AD8 JUMP JUMPDEST ADD MLOAD PUSH1 0x0 NOT PUSH1 0xF8 DUP5 PUSH1 0x3 SHL AND SHR NOT AND SWAP1 SSTORE DUP11 DUP1 DUP1 PUSH2 0x2161 JUMP JUMPDEST DUP2 DUP2 ADD MLOAD DUP4 SSTORE PUSH1 0x20 SWAP5 DUP6 ADD SWAP5 PUSH1 0x1 SWAP1 SWAP4 ADD SWAP3 SWAP1 SWAP2 ADD SWAP1 PUSH2 0x2146 JUMP JUMPDEST SWAP1 SWAP2 POP PUSH1 0x2 DUP6 ADD PUSH1 0x0 MSTORE PUSH1 0x20 PUSH1 0x0 KECCAK256 PUSH1 0x1F DUP5 ADD PUSH1 0x5 SHR DUP2 ADD PUSH1 0x20 DUP6 LT PUSH2 0x21F1 JUMPI JUMPDEST SWAP1 DUP5 SWAP4 SWAP3 SWAP2 JUMPDEST PUSH1 0x1F DUP4 ADD PUSH1 0x5 SHR DUP3 ADD DUP2 LT PUSH2 0x21E2 JUMPI POP POP PUSH2 0x1AA9 JUMP JUMPDEST PUSH1 0x0 DUP2 SSTORE DUP6 SWAP5 POP PUSH1 0x1 ADD PUSH2 0x21CC JUMP JUMPDEST POP DUP1 PUSH2 0x21C6 JUMP JUMPDEST PUSH1 0x40 MLOAD PUSH3 0x461BCD PUSH1 0xE5 SHL DUP2 MSTORE PUSH1 0x20 PUSH1 0x4 DUP3 ADD MSTORE PUSH1 0x22 PUSH1 0x24 DUP3 ADD MSTORE PUSH32 0x4D696C6573746F6E657320746F74616C206D75737420657175616C2074617267 PUSH1 0x44 DUP3 ADD MSTORE PUSH2 0x195D PUSH1 0xF2 SHL PUSH1 0x64 DUP3 ADD MSTORE PUSH1 0x84 SWAP1 REVERT JUMPDEST PUSH1 0x40 MLOAD PUSH3 0x461BCD PUSH1 0xE5 SHL DUP2 MSTORE PUSH1 0x20 PUSH1 0x4 DUP3 ADD MSTORE PUSH1 0x21 PUSH1 0x24 DUP3 ADD MSTORE PUSH32 0x4D696C6573746F6E657320617272617973206C656E677468206D69736D617463 PUSH1 0x44 DUP3 ADD MSTORE PUSH1 0xD PUSH1 0xFB SHL PUSH1 0x64 DUP3 ADD MSTORE PUSH1 0x84 SWAP1 REVERT JUMPDEST SWAP1 POP DUP3 MLOAD EQ DUP9 PUSH2 0x198C JUMP JUMPDEST DUP5 MLOAD DUP2 EQ SWAP2 POP PUSH2 0x1986 JUMP JUMPDEST PUSH1 0x40 MLOAD PUSH3 0x461BCD PUSH1 0xE5 SHL DUP2 MSTORE PUSH1 0x20 PUSH1 0x4 DUP3 ADD MSTORE PUSH1 0x1A PUSH1 0x24 DUP3 ADD MSTORE PUSH32 0x416464206174206C65617374206F6E65206D696C6573746F6E65000000000000 PUSH1 0x44 DUP3 ADD MSTORE PUSH1 0x64 SWAP1 REVERT JUMPDEST PUSH1 0x40 MLOAD PUSH3 0x461BCD PUSH1 0xE5 SHL DUP2 MSTORE PUSH1 0x20 PUSH1 0x4 DUP3 ADD MSTORE PUSH1 0x14 PUSH1 0x24 DUP3 ADD MSTORE PUSH20 0x4475726174696F6E206D757374206265203E203 PUSH1 0x64 SHL PUSH1 0x44 DUP3 ADD MSTORE PUSH1 0x64 SWAP1 REVERT JUMPDEST PUSH1 0x40 MLOAD PUSH3 0x461BCD PUSH1 0xE5 SHL DUP2 MSTORE PUSH1 0x20 PUSH1 0x4 DUP3 ADD MSTORE PUSH1 0x12 PUSH1 0x24 DUP3 ADD MSTORE PUSH18 0x546172676574206D757374206265203E203 PUSH1 0x74 SHL PUSH1 0x44 DUP3 ADD MSTORE PUSH1 0x64 SWAP1 REVERT JUMPDEST CALLVALUE PUSH2 0x217 JUMPI PUSH1 0x40 CALLDATASIZE PUSH1 0x3 NOT ADD SLT PUSH2 0x217 JUMPI PUSH2 0x2381 PUSH2 0x34C4 JUMP JUMPDEST PUSH1 0x1 PUSH1 0x1 PUSH1 0xA0 SHL SUB AND PUSH1 0x0 SWAP1 DUP2 MSTORE PUSH1 0xA PUSH1 0x20 MSTORE PUSH1 0x40 SWAP1 KECCAK256 DUP1 SLOAD PUSH1 0x24 CALLDATALOAD SWAP2 SWAP1 DUP3 LT ISZERO PUSH2 0x217 JUMPI PUSH1 0x20 SWAP2 PUSH2 0x23B2 SWAP2 PUSH2 0x36D0 JUMP JUMPDEST SWAP1 SLOAD PUSH1 0x40 MLOAD SWAP2 PUSH1 0x3 SHL SHR DUP2 MSTORE RETURN JUMPDEST CALLVALUE PUSH2 0x217 JUMPI PUSH1 0x0 CALLDATASIZE PUSH1 0x3 NOT ADD SLT PUSH2 0x217 JUMPI PUSH2 0x23D9 PUSH2 0x396C JUMP JUMPDEST PUSH1 0x1 DUP1 SLOAD PUSH1 0x1 PUSH1 0x1 PUSH1 0xA0 SHL SUB NOT DUP2 AND SWAP1 SWAP2 SSTORE PUSH1 0x0 SWAP1 PUSH1 0x1 PUSH1 0x1 PUSH1 0xA0 SHL SUB AND PUSH32 0x8BE0079C531659141344CD1FD0A4F28419497F9722A3DAAFE3B4186F6B6457E0 DUP3 DUP1 LOG3 STOP JUMPDEST CALLVALUE PUSH2 0x217 JUMPI PUSH1 0x20 CALLDATASIZE PUSH1 0x3 NOT ADD SLT PUSH2 0x217 JUMPI PUSH1 0x4 CALLDATALOAD DUP1 ISZERO ISZERO DUP1 PUSH2 0x2554 JUMPI JUMPDEST PUSH2 0x2443 SWAP1 PUSH2 0x3B49 JUMP JUMPDEST PUSH1 0x0 MSTORE PUSH1 0x4 PUSH1 0x20 MSTORE PUSH1 0xC0 PUSH1 0x40 PUSH1 0x0 KECCAK256 PUSH1 0x40 MLOAD PUSH2 0x245E DUP2 PUSH2 0x352A JUMP JUMPDEST DUP2 SLOAD DUP2 MSTORE PUSH1 0x1 DUP3 ADD SLOAD PUSH1 0x1 PUSH1 0x1 PUSH1 0xA0 SHL SUB AND PUSH1 0x20 DUP3 ADD MSTORE PUSH2 0x2481 PUSH1 0x2 DUP4 ADD PUSH2 0x359D JUMP JUMPDEST PUSH1 0x40 DUP3 ADD MSTORE PUSH2 0x2492 PUSH1 0x3 DUP4 ADD PUSH2 0x359D JUMP JUMPDEST PUSH1 0x60 DUP3 ADD MSTORE PUSH2 0x24A3 PUSH1 0x4 DUP4 ADD PUSH2 0x359D JUMP JUMPDEST PUSH1 0x80 DUP3 ADD MSTORE PUSH1 0x5 DUP3 ADD SLOAD SWAP1 PUSH1 0xA0 DUP2 ADD SWAP3 DUP3 DUP5 MSTORE PUSH2 0x160 PUSH1 0x6 DUP3 ADD SLOAD SWAP5 DUP7 DUP5 ADD SWAP4 DUP7 DUP6 MSTORE PUSH1 0x7 DUP5 ADD SLOAD SWAP1 DUP2 PUSH1 0xE0 DUP3 ADD MSTORE PUSH1 0xA PUSH1 0x8 DUP7 ADD SLOAD SWAP6 PUSH1 0xFF DUP8 AND ISZERO ISZERO PUSH2 0x100 DUP5 ADD MSTORE PUSH1 0xFF PUSH2 0x120 DUP5 ADD SWAP8 PUSH1 0x8 SHR AND ISZERO ISZERO DUP8 MSTORE PUSH1 0x9 DUP2 ADD SLOAD PUSH2 0x140 DUP5 ADD MSTORE ADD SLOAD SWAP4 DUP5 SWAP2 ADD MSTORE DUP1 TIMESTAMP LT ISZERO PUSH1 0x0 EQ PUSH2 0x2543 JUMPI POP PUSH1 0x0 SWAP3 JUMPDEST MLOAD ISZERO ISZERO SWAP4 MLOAD SWAP1 MLOAD GT ISZERO SWAP4 PUSH1 0x40 MLOAD SWAP6 DUP7 MSTORE PUSH1 0x20 DUP7 ADD MSTORE PUSH1 0x40 DUP6 ADD MSTORE PUSH1 0x60 DUP5 ADD MSTORE PUSH1 0x80 DUP4 ADD MSTORE PUSH1 0xA0 DUP3 ADD MSTORE RETURN JUMPDEST PUSH2 0x254E SWAP1 TIMESTAMP SWAP1 PUSH2 0x3A6C JUMP JUMPDEST SWAP3 PUSH2 0x2518 JUMP JUMPDEST POP PUSH1 0x3 SLOAD DUP2 GT ISZERO PUSH2 0x243A JUMP JUMPDEST CALLVALUE PUSH2 0x217 JUMPI PUSH1 0x40 CALLDATASIZE PUSH1 0x3 NOT ADD SLT PUSH2 0x217 JUMPI PUSH2 0x2579 PUSH2 0x34C4 JUMP JUMPDEST PUSH1 0x1 PUSH1 0x1 PUSH1 0xA0 SHL SUB AND PUSH1 0x0 SWAP1 DUP2 MSTORE PUSH1 0xB PUSH1 0x20 MSTORE PUSH1 0x40 SWAP1 KECCAK256 DUP1 SLOAD PUSH1 0x24 CALLDATALOAD SWAP2 SWAP1 DUP3 LT ISZERO PUSH2 0x217 JUMPI PUSH1 0x60 SWAP2 PUSH2 0x25AA SWAP2 PUSH2 0x371A JUMP JUMPDEST POP DUP1 SLOAD SWAP1 PUSH1 0xFF PUSH1 0x2 PUSH1 0x1 DUP4 ADD SLOAD SWAP3 ADD SLOAD AND SWAP1 PUSH1 0x40 MLOAD SWAP3 DUP4 MSTORE PUSH1 0x20 DUP4 ADD MSTORE ISZERO ISZERO PUSH1 0x40 DUP3 ADD MSTORE RETURN JUMPDEST CALLVALUE PUSH2 0x217 JUMPI PUSH1 0x0 CALLDATASIZE PUSH1 0x3 NOT ADD SLT PUSH2 0x217 JUMPI PUSH1 0x20 PUSH1 0x2 SLOAD PUSH1 0x40 MLOAD SWAP1 DUP2 MSTORE RETURN JUMPDEST CALLVALUE PUSH2 0x217 JUMPI PUSH1 0x20 CALLDATASIZE PUSH1 0x3 NOT ADD SLT PUSH2 0x217 JUMPI PUSH1 0x4 CALLDATALOAD PUSH2 0x260A PUSH2 0x396C JUMP JUMPDEST PUSH2 0x2612 PUSH2 0x3ADF JUMP JUMPDEST PUSH1 0x2 SLOAD DUP1 DUP3 GT PUSH2 0x26D0 JUMPI SELFBALANCE DUP3 GT PUSH2 0x268B JUMPI DUP2 PUSH2 0x262D SWAP2 PUSH2 0x3A6C JUMP JUMPDEST PUSH1 0x2 SSTORE PUSH1 0x0 DUP1 DUP1 DUP1 DUP5 PUSH1 0x1 DUP1 PUSH1 0xA0 SHL SUB PUSH1 0x1 SLOAD AND DUP3 DUP3 ISZERO PUSH2 0x2682 JUMPI JUMPDEST CALL ISZERO PUSH2 0xB67 JUMPI PUSH1 0x40 MLOAD SWAP1 DUP2 MSTORE PUSH32 0xC0819C13BE868895EB93E40EACEB96DE976442FA1D404E5C55F14BB65A8C489A PUSH1 0x20 CALLER SWAP3 LOG2 PUSH1 0x1 PUSH1 0x0 SSTORE STOP JUMPDEST POP PUSH2 0x8FC PUSH2 0x2649 JUMP JUMPDEST PUSH1 0x40 MLOAD PUSH3 0x461BCD PUSH1 0xE5 SHL DUP2 MSTORE PUSH1 0x20 PUSH1 0x4 DUP3 ADD MSTORE PUSH1 0x1D PUSH1 0x24 DUP3 ADD MSTORE PUSH32 0x496E73756666696369656E7420636F6E74726163742062616C616E6365000000 PUSH1 0x44 DUP3 ADD MSTORE PUSH1 0x64 SWAP1 REVERT JUMPDEST PUSH1 0x40 MLOAD PUSH3 0x461BCD PUSH1 0xE5 SHL DUP2 MSTORE PUSH1 0x20 PUSH1 0x4 DUP3 ADD MSTORE PUSH1 0x18 PUSH1 0x24 DUP3 ADD MSTORE PUSH32 0x496E73756666696369656E74206665652062616C616E63650000000000000000 PUSH1 0x44 DUP3 ADD MSTORE PUSH1 0x64 SWAP1 REVERT JUMPDEST CALLVALUE PUSH2 0x217 JUMPI PUSH1 0x0 CALLDATASIZE PUSH1 0x3 NOT ADD SLT PUSH2 0x217 JUMPI PUSH1 0x20 PUSH1 0xFF PUSH1 0x1 SLOAD PUSH1 0xA0 SHR AND PUSH1 0x40 MLOAD SWAP1 ISZERO ISZERO DUP2 MSTORE RETURN JUMPDEST CALLVALUE PUSH2 0x217 JUMPI PUSH1 0x20 CALLDATASIZE PUSH1 0x3 NOT ADD SLT PUSH2 0x217 JUMPI PUSH1 0x4 CALLDATALOAD PUSH2 0x2757 PUSH2 0x3C9B JUMP JUMPDEST POP DUP1 ISZERO ISZERO DUP1 PUSH2 0x2836 JUMPI JUMPDEST PUSH2 0x276A SWAP1 PUSH2 0x3B49 JUMP JUMPDEST PUSH1 0x0 MSTORE PUSH1 0x4 PUSH1 0x20 MSTORE PUSH2 0x4E9 PUSH1 0x40 PUSH1 0x0 KECCAK256 PUSH1 0xA PUSH1 0x40 MLOAD SWAP2 PUSH2 0x2789 DUP4 PUSH2 0x352A JUMP JUMPDEST DUP1 SLOAD DUP4 MSTORE PUSH1 0x1 DUP2 ADD SLOAD PUSH1 0x1 PUSH1 0x1 PUSH1 0xA0 SHL SUB AND PUSH1 0x20 DUP5 ADD MSTORE PUSH2 0x27AC PUSH1 0x2 DUP3 ADD PUSH2 0x359D JUMP JUMPDEST PUSH1 0x40 DUP5 ADD MSTORE PUSH2 0x27BD PUSH1 0x3 DUP3 ADD PUSH2 0x359D JUMP JUMPDEST PUSH1 0x60 DUP5 ADD MSTORE PUSH2 0x27CE PUSH1 0x4 DUP3 ADD PUSH2 0x359D JUMP JUMPDEST PUSH1 0x80 DUP5 ADD MSTORE PUSH1 0x5 DUP2 ADD SLOAD PUSH1 0xA0 DUP5 ADD MSTORE PUSH1 0x6 DUP2 ADD SLOAD PUSH1 0xC0 DUP5 ADD MSTORE PUSH1 0x7 DUP2 ADD SLOAD PUSH1 0xE0 DUP5 ADD MSTORE PUSH1 0xFF PUSH1 0x8 DUP3 ADD SLOAD DUP2 DUP2 AND ISZERO ISZERO PUSH2 0x100 DUP7 ADD MSTORE PUSH1 0x8 SHR AND ISZERO ISZERO PUSH2 0x120 DUP5 ADD MSTORE PUSH1 0x9 DUP2 ADD SLOAD PUSH2 0x140 DUP5 ADD MSTORE ADD SLOAD PUSH2 0x160 DUP3 ADD MSTORE PUSH1 0x40 MLOAD SWAP2 DUP3 SWAP2 PUSH1 0x20 DUP4 MSTORE PUSH1 0x20 DUP4 ADD SWAP1 PUSH2 0x3736 JUMP JUMPDEST POP PUSH1 0x3 SLOAD DUP2 GT ISZERO PUSH2 0x2761 JUMP JUMPDEST CALLVALUE PUSH2 0x217 JUMPI PUSH2 0x2850 CALLDATASIZE PUSH2 0x36E8 JUMP JUMPDEST SWAP1 PUSH1 0x0 MSTORE PUSH1 0x8 PUSH1 0x20 MSTORE PUSH1 0x40 PUSH1 0x0 KECCAK256 DUP1 SLOAD DUP3 LT ISZERO PUSH2 0x217 JUMPI PUSH1 0x60 SWAP2 PUSH2 0x2873 SWAP2 PUSH2 0x371A JUMP JUMPDEST POP PUSH1 0x1 DUP1 PUSH1 0xA0 SHL SUB DUP2 SLOAD AND SWAP1 PUSH1 0x2 PUSH1 0x1 DUP3 ADD SLOAD SWAP2 ADD SLOAD SWAP1 PUSH1 0x40 MLOAD SWAP3 DUP4 MSTORE PUSH1 0x20 DUP4 ADD MSTORE PUSH1 0x40 DUP3 ADD MSTORE RETURN JUMPDEST CALLVALUE PUSH2 0x217 JUMPI PUSH1 0x0 CALLDATASIZE PUSH1 0x3 NOT ADD SLT PUSH2 0x217 JUMPI PUSH2 0x28B5 PUSH2 0x396C JUMP JUMPDEST PUSH1 0x1 SLOAD PUSH1 0xFF DUP2 PUSH1 0xA0 SHR AND ISZERO PUSH2 0x28FC JUMPI PUSH1 0xFF PUSH1 0xA0 SHL NOT AND PUSH1 0x1 SSTORE PUSH1 0x40 MLOAD CALLER DUP2 MSTORE PUSH32 0x5DB9EE0A495BF2E6FF9C91A7834C1BA4FDD244A5E8AA4E537BD38AEAE4B073AA SWAP1 PUSH1 0x20 SWAP1 LOG1 STOP JUMPDEST PUSH1 0x40 MLOAD PUSH3 0x461BCD PUSH1 0xE5 SHL DUP2 MSTORE PUSH1 0x20 PUSH1 0x4 DUP3 ADD MSTORE PUSH1 0x14 PUSH1 0x24 DUP3 ADD MSTORE PUSH20 0x14185D5CD8589B194E881B9BDD081C185D5CD959 PUSH1 0x62 SHL PUSH1 0x44 DUP3 ADD MSTORE PUSH1 0x64 SWAP1 REVERT JUMPDEST CALLVALUE PUSH2 0x217 JUMPI PUSH1 0x0 CALLDATASIZE PUSH1 0x3 NOT ADD SLT PUSH2 0x217 JUMPI PUSH2 0x2951 PUSH2 0x3ADF JUMP JUMPDEST CALLER PUSH1 0x0 MSTORE PUSH1 0xB PUSH1 0x20 MSTORE PUSH1 0x40 PUSH1 0x0 KECCAK256 PUSH1 0x0 SWAP1 PUSH1 0x0 JUMPDEST DUP2 SLOAD DUP2 LT ISZERO PUSH2 0x29D5 JUMPI PUSH2 0x2978 DUP2 DUP4 PUSH2 0x371A JUMP JUMPDEST POP PUSH1 0xFF PUSH1 0x2 DUP1 SWAP3 ADD SLOAD AND ISZERO PUSH2 0x2997 JUMPI JUMPDEST POP PUSH2 0x2992 SWAP1 PUSH2 0x3A1B JUMP JUMPDEST PUSH2 0x2965 JUMP JUMPDEST SWAP3 SWAP1 PUSH2 0x2992 SWAP2 PUSH2 0x29B8 PUSH2 0x29AA DUP4 DUP7 PUSH2 0x371A JUMP JUMPDEST POP SWAP2 PUSH1 0x1 DUP1 SWAP4 ADD SLOAD SWAP1 PUSH2 0x3A2A JUMP JUMPDEST SWAP5 PUSH2 0x29C3 DUP4 DUP7 PUSH2 0x371A JUMP JUMPDEST POP ADD SWAP1 PUSH1 0xFF NOT DUP3 SLOAD AND OR SWAP1 SSTORE SWAP1 PUSH2 0x2988 JUMP JUMPDEST DUP3 DUP1 ISZERO PUSH2 0x2A3D JUMPI DUP1 SELFBALANCE LT PUSH2 0x29F8 JUMPI PUSH1 0x0 DUP1 DUP1 DUP1 SWAP4 CALLER DUP3 CALL ISZERO PUSH2 0xB67 JUMPI PUSH1 0x1 PUSH1 0x0 SSTORE STOP JUMPDEST PUSH1 0x40 MLOAD PUSH3 0x461BCD PUSH1 0xE5 SHL DUP2 MSTORE PUSH1 0x20 PUSH1 0x4 DUP3 ADD MSTORE PUSH1 0x1F PUSH1 0x24 DUP3 ADD MSTORE PUSH32 0x436F6E74726163742068617320696E73756666696369656E742066756E647300 PUSH1 0x44 DUP3 ADD MSTORE PUSH1 0x64 SWAP1 REVERT JUMPDEST PUSH1 0x40 MLOAD PUSH3 0x461BCD PUSH1 0xE5 SHL DUP2 MSTORE PUSH1 0x20 PUSH1 0x4 DUP3 ADD MSTORE PUSH1 0x13 PUSH1 0x24 DUP3 ADD MSTORE PUSH19 0x4E6F207265776172647320746F20636C61696D PUSH1 0x68 SHL PUSH1 0x44 DUP3 ADD MSTORE PUSH1 0x64 SWAP1 REVERT JUMPDEST CALLVALUE PUSH2 0x217 JUMPI PUSH2 0x2A86 CALLDATASIZE PUSH2 0x36E8 JUMP JUMPDEST SWAP1 PUSH1 0x0 MSTORE PUSH1 0x5 PUSH1 0x20 MSTORE PUSH1 0x40 PUSH1 0x0 KECCAK256 SWAP1 DUP2 SLOAD DUP2 LT ISZERO PUSH2 0x217 JUMPI PUSH2 0x2AA7 SWAP2 PUSH2 0x36FE JUMP JUMPDEST POP DUP1 SLOAD PUSH2 0x2AB6 PUSH1 0x1 DUP4 ADD PUSH2 0x359D JUMP JUMPDEST SWAP2 PUSH2 0x2AC3 PUSH1 0x2 DUP3 ADD PUSH2 0x359D JUMP JUMPDEST PUSH1 0x3 DUP3 ADD SLOAD SWAP2 PUSH2 0x2B04 PUSH1 0xFF PUSH1 0x5 PUSH1 0x4 DUP5 ADD SLOAD SWAP4 ADD SLOAD AND SWAP3 PUSH2 0x2AF6 PUSH1 0x40 MLOAD SWAP8 DUP9 SWAP8 DUP9 MSTORE PUSH1 0xC0 PUSH1 0x20 DUP10 ADD MSTORE PUSH1 0xC0 DUP9 ADD SWAP1 PUSH2 0x3643 JUMP JUMPDEST SWAP1 DUP7 DUP3 SUB PUSH1 0x40 DUP9 ADD MSTORE PUSH2 0x3643 JUMP JUMPDEST SWAP3 PUSH1 0x60 DUP6 ADD MSTORE PUSH1 0x80 DUP5 ADD MSTORE ISZERO ISZERO PUSH1 0xA0 DUP4 ADD MSTORE SUB SWAP1 RETURN JUMPDEST CALLVALUE PUSH2 0x217 JUMPI PUSH1 0x20 CALLDATASIZE PUSH1 0x3 NOT ADD SLT PUSH2 0x217 JUMPI PUSH1 0x4 CALLDATALOAD PUSH2 0x2B36 PUSH2 0x396C JUMP JUMPDEST DUP1 ISZERO ISZERO DUP1 PUSH2 0x2BB9 JUMPI JUMPDEST PUSH2 0x2B48 SWAP1 PUSH2 0x3B49 JUMP JUMPDEST DUP1 PUSH1 0x0 MSTORE PUSH1 0x4 PUSH1 0x20 MSTORE PUSH1 0x7 PUSH1 0x40 PUSH1 0x0 KECCAK256 ADD SLOAD TIMESTAMP LT ISZERO PUSH2 0x2B81 JUMPI PUSH1 0x0 SWAP1 DUP2 MSTORE PUSH1 0x4 PUSH1 0x20 MSTORE PUSH1 0x40 SWAP1 KECCAK256 PUSH1 0x8 ADD DUP1 SLOAD PUSH2 0xFF00 NOT AND PUSH2 0x100 OR SWAP1 SSTORE STOP JUMPDEST PUSH1 0x40 MLOAD PUSH3 0x461BCD PUSH1 0xE5 SHL DUP2 MSTORE PUSH1 0x20 PUSH1 0x4 DUP3 ADD MSTORE PUSH1 0x10 PUSH1 0x24 DUP3 ADD MSTORE PUSH16 0x10D85B5C185A59DB88195E1C1A5C9959 PUSH1 0x82 SHL PUSH1 0x44 DUP3 ADD MSTORE PUSH1 0x64 SWAP1 REVERT JUMPDEST POP PUSH1 0x3 SLOAD DUP2 GT ISZERO PUSH2 0x2B3F JUMP JUMPDEST CALLVALUE PUSH2 0x217 JUMPI PUSH1 0x40 CALLDATASIZE PUSH1 0x3 NOT ADD SLT PUSH2 0x217 JUMPI PUSH2 0x2BDE PUSH2 0x34C4 JUMP JUMPDEST PUSH1 0x1 PUSH1 0x1 PUSH1 0xA0 SHL SUB AND PUSH1 0x0 SWAP1 DUP2 MSTORE PUSH1 0x9 PUSH1 0x20 MSTORE PUSH1 0x40 SWAP1 KECCAK256 DUP1 SLOAD PUSH1 0x24 CALLDATALOAD SWAP2 SWAP1 DUP3 LT ISZERO PUSH2 0x217 JUMPI PUSH1 0x20 SWAP2 PUSH2 0x23B2 SWAP2 PUSH2 0x36D0 JUMP JUMPDEST CALLVALUE PUSH2 0x217 JUMPI PUSH1 0x20 CALLDATASIZE PUSH1 0x3 NOT ADD SLT PUSH2 0x217 JUMPI PUSH1 0x4 DUP1 CALLDATALOAD PUSH1 0x0 SWAP1 DUP2 MSTORE PUSH1 0x20 SWAP2 SWAP1 SWAP2 MSTORE PUSH1 0x40 SWAP1 KECCAK256 DUP1 SLOAD PUSH1 0x1 DUP3 ADD SLOAD PUSH1 0x1 PUSH1 0x1 PUSH1 0xA0 SHL SUB AND SWAP2 PUSH2 0x2C50 PUSH1 0x2 DUP3 ADD PUSH2 0x359D JUMP JUMPDEST PUSH2 0x2C5C PUSH1 0x3 DUP4 ADD PUSH2 0x359D JUMP JUMPDEST SWAP2 PUSH2 0x2C69 PUSH1 0x4 DUP3 ADD PUSH2 0x359D JUMP JUMPDEST SWAP3 PUSH1 0x5 DUP3 ADD SLOAD SWAP4 PUSH1 0x6 DUP4 ADD SLOAD PUSH1 0x7 DUP5 ADD SLOAD SWAP2 PUSH1 0x8 DUP6 ADD SLOAD SWAP4 PUSH1 0x9 DUP7 ADD SLOAD SWAP6 PUSH1 0xA ADD SLOAD SWAP7 PUSH1 0x40 MLOAD SWAP11 DUP12 SWAP11 DUP12 MSTORE PUSH1 0x20 DUP12 ADD MSTORE PUSH2 0x180 DUP1 PUSH1 0x40 DUP13 ADD MSTORE DUP11 ADD PUSH2 0x2CAD SWAP2 PUSH2 0x3643 JUMP JUMPDEST DUP10 DUP2 SUB PUSH1 0x60 DUP12 ADD MSTORE PUSH2 0x2CBE SWAP2 PUSH2 0x3643 JUMP JUMPDEST DUP9 DUP2 SUB PUSH1 0x80 DUP11 ADD MSTORE PUSH2 0x2CCF SWAP2 PUSH2 0x3643 JUMP JUMPDEST SWAP6 PUSH1 0xA0 DUP9 ADD MSTORE PUSH1 0xC0 DUP8 ADD MSTORE PUSH1 0xE0 DUP7 ADD MSTORE PUSH1 0xFF DUP2 AND ISZERO ISZERO PUSH2 0x100 DUP7 ADD MSTORE PUSH1 0x8 SHR PUSH1 0xFF AND ISZERO ISZERO PUSH2 0x120 DUP6 ADD MSTORE PUSH2 0x140 DUP5 ADD MSTORE PUSH2 0x160 DUP4 ADD MSTORE SUB SWAP1 RETURN JUMPDEST CALLVALUE PUSH2 0x217 JUMPI PUSH1 0x20 DUP1 PUSH1 0x3 NOT CALLDATASIZE ADD SLT PUSH2 0x217 JUMPI PUSH1 0x4 CALLDATALOAD DUP1 ISZERO ISZERO DUP1 PUSH2 0x2F1B JUMPI JUMPDEST PUSH2 0x2D30 SWAP1 PUSH2 0x3B49 JUMP JUMPDEST DUP1 PUSH1 0x0 MSTORE PUSH1 0x4 DUP3 MSTORE PUSH2 0x2D4F PUSH1 0xFF PUSH1 0x8 PUSH1 0x40 PUSH1 0x0 KECCAK256 ADD SLOAD PUSH1 0x8 SHR AND PUSH2 0x3B8B JUMP JUMPDEST DUP1 PUSH1 0x0 MSTORE PUSH1 0x4 DUP3 MSTORE PUSH1 0x1 DUP1 PUSH1 0xA0 SHL SUB PUSH2 0x2D73 DUP2 PUSH1 0x1 PUSH1 0x40 PUSH1 0x0 KECCAK256 ADD SLOAD AND CALLER EQ PUSH2 0x3BD0 JUMP JUMPDEST DUP2 PUSH1 0x0 MSTORE PUSH1 0x4 DUP4 MSTORE PUSH2 0x2D8F PUSH1 0x7 PUSH1 0x40 PUSH1 0x0 KECCAK256 ADD SLOAD TIMESTAMP LT ISZERO PUSH2 0x3C13 JUMP JUMPDEST PUSH2 0x2D97 PUSH2 0x3ADF JUMP JUMPDEST DUP2 PUSH1 0x0 MSTORE PUSH1 0x4 DUP4 MSTORE PUSH1 0x40 PUSH1 0x0 KECCAK256 PUSH1 0x8 DUP2 ADD SWAP2 DUP3 SLOAD SWAP2 PUSH1 0xFF DUP4 AND PUSH2 0x2ED6 JUMPI PUSH1 0x6 DUP2 ADD SWAP4 DUP5 SLOAD SWAP4 PUSH1 0x5 DUP4 ADD SLOAD DUP6 LT PUSH2 0x2E91 JUMPI DUP7 PUSH1 0x0 MSTORE PUSH1 0x5 DUP9 MSTORE PUSH1 0x40 PUSH1 0x0 KECCAK256 SLOAD PUSH2 0x2E3C JUMPI PUSH1 0xFF NOT AND PUSH1 0x1 SWAP1 DUP2 OR SWAP1 SWAP2 SSTORE ADD SLOAD PUSH1 0x0 SWAP3 DUP4 SWAP3 DUP4 SWAP3 DUP4 SWAP3 SWAP2 AND DUP3 DUP3 ISZERO PUSH2 0x2E33 JUMPI JUMPDEST CALL ISZERO PUSH2 0xB67 JUMPI SLOAD PUSH1 0x40 MLOAD SWAP1 DUP2 MSTORE CALLER SWAP3 PUSH32 0x76F7A439D190ED0F7882EACFF83199CDA95F20B1CF940A11192A967E6E7CDCF SWAP2 LOG3 PUSH1 0x1 PUSH1 0x0 SSTORE STOP JUMPDEST POP PUSH2 0x8FC PUSH2 0x2DFA JUMP JUMPDEST PUSH1 0x40 MLOAD PUSH3 0x461BCD PUSH1 0xE5 SHL DUP2 MSTORE PUSH1 0x4 DUP2 ADD DUP10 SWAP1 MSTORE PUSH1 0x27 PUSH1 0x24 DUP3 ADD MSTORE PUSH32 0x57697468647261772064697361626C6564207768656E206D696C6573746F6E65 PUSH1 0x44 DUP3 ADD MSTORE PUSH7 0x1CC8195E1A5CDD PUSH1 0xCA SHL PUSH1 0x64 DUP3 ADD MSTORE PUSH1 0x84 SWAP1 REVERT JUMPDEST PUSH1 0x40 MLOAD PUSH3 0x461BCD PUSH1 0xE5 SHL DUP2 MSTORE PUSH1 0x4 DUP2 ADD DUP10 SWAP1 MSTORE PUSH1 0x1B PUSH1 0x24 DUP3 ADD MSTORE PUSH32 0x43616D706169676E20746172676574206E6F7420726561636865640000000000 PUSH1 0x44 DUP3 ADD MSTORE PUSH1 0x64 SWAP1 REVERT JUMPDEST PUSH1 0x40 MLOAD PUSH3 0x461BCD PUSH1 0xE5 SHL DUP2 MSTORE PUSH1 0x4 DUP2 ADD DUP8 SWAP1 MSTORE PUSH1 0x17 PUSH1 0x24 DUP3 ADD MSTORE PUSH32 0x46756E647320616C72656164792077697468647261776E000000000000000000 PUSH1 0x44 DUP3 ADD MSTORE PUSH1 0x64 SWAP1 REVERT JUMPDEST POP PUSH1 0x3 SLOAD DUP2 GT ISZERO PUSH2 0x2D27 JUMP JUMPDEST PUSH1 0x20 DUP1 PUSH1 0x3 NOT CALLDATASIZE ADD SLT PUSH2 0x217 JUMPI PUSH1 0x4 CALLDATALOAD DUP1 ISZERO ISZERO DUP1 PUSH2 0x32D4 JUMPI JUMPDEST PUSH2 0x2F49 SWAP1 PUSH2 0x3B49 JUMP JUMPDEST DUP1 PUSH1 0x0 MSTORE PUSH1 0x4 DUP3 MSTORE PUSH2 0x2F68 PUSH1 0xFF PUSH1 0x8 PUSH1 0x40 PUSH1 0x0 KECCAK256 ADD SLOAD PUSH1 0x8 SHR AND PUSH2 0x3B8B JUMP JUMPDEST DUP1 PUSH1 0x0 MSTORE PUSH1 0x4 DUP3 MSTORE PUSH1 0x7 PUSH1 0x40 PUSH1 0x0 KECCAK256 ADD SLOAD TIMESTAMP LT ISZERO PUSH2 0x329A JUMPI PUSH2 0x2F88 PUSH2 0x3A98 JUMP JUMPDEST PUSH2 0x2F90 PUSH2 0x3ADF JUMP JUMPDEST CALLVALUE ISZERO PUSH2 0x3249 JUMPI DUP1 PUSH1 0x0 MSTORE PUSH1 0x4 DUP3 MSTORE PUSH1 0x1 DUP1 PUSH1 0xA0 SHL SUB PUSH1 0x1 SWAP3 DUP2 DUP5 PUSH1 0x40 PUSH1 0x0 KECCAK256 ADD SLOAD AND CALLER EQ PUSH2 0x31FB JUMPI DUP3 PUSH1 0x0 MSTORE PUSH1 0x4 DUP2 MSTORE PUSH1 0x40 PUSH1 0x0 KECCAK256 SWAP2 PUSH1 0x7 DUP3 MSTORE PUSH1 0x40 PUSH1 0x0 KECCAK256 CALLER PUSH1 0x0 MSTORE DUP3 MSTORE PUSH1 0x40 PUSH1 0x0 KECCAK256 SLOAD ISZERO PUSH2 0x31D0 JUMPI JUMPDEST CALLER PUSH1 0x0 MSTORE PUSH1 0xC DUP3 MSTORE PUSH1 0x40 PUSH1 0x0 KECCAK256 SLOAD ISZERO PUSH2 0x319B JUMPI JUMPDEST CALLER PUSH1 0x0 MSTORE PUSH1 0xC DUP3 MSTORE PUSH1 0x40 PUSH1 0x0 KECCAK256 PUSH2 0x300D CALLVALUE DUP3 SLOAD PUSH2 0x3A2A JUMP JUMPDEST SWAP1 SSTORE DUP4 PUSH1 0x0 MSTORE PUSH1 0x7 DUP3 MSTORE PUSH1 0x40 PUSH1 0x0 KECCAK256 CALLER PUSH1 0x0 MSTORE DUP3 MSTORE PUSH1 0x40 PUSH1 0x0 KECCAK256 PUSH2 0x3032 CALLVALUE DUP3 SLOAD PUSH2 0x3A2A JUMP JUMPDEST SWAP1 SSTORE PUSH1 0x6 DUP4 ADD PUSH2 0x3043 CALLVALUE DUP3 SLOAD PUSH2 0x3A2A JUMP JUMPDEST DUP2 SSTORE DUP5 PUSH1 0x0 MSTORE PUSH1 0x8 DUP4 MSTORE PUSH1 0x40 PUSH1 0x0 KECCAK256 SWAP2 PUSH1 0x40 MLOAD PUSH2 0x305F DUP2 PUSH2 0x3546 JUMP JUMPDEST CALLER DUP2 MSTORE DUP5 DUP2 ADD CALLVALUE DUP2 MSTORE PUSH1 0x40 DUP3 ADD SWAP1 TIMESTAMP DUP3 MSTORE DUP6 SLOAD SWAP6 PUSH1 0x1 PUSH1 0x40 SHL SWAP7 DUP8 DUP2 LT ISZERO PUSH2 0x1469 JUMPI PUSH2 0x308F SWAP2 DUP13 DUP3 ADD DUP2 SSTORE PUSH2 0x371A JUMP JUMPDEST SWAP5 SWAP1 SWAP5 PUSH2 0x1F5E JUMPI PUSH1 0x2 SWAP4 MLOAD AND PUSH1 0x1 PUSH1 0x1 PUSH1 0x60 SHL SUB PUSH1 0xA0 SHL DUP6 SLOAD AND OR DUP5 SSTORE MLOAD DUP10 DUP5 ADD SSTORE MLOAD SWAP2 ADD SSTORE CALLER PUSH1 0x0 MSTORE PUSH1 0xB DUP4 MSTORE PUSH1 0x40 PUSH1 0x0 KECCAK256 PUSH1 0x40 MLOAD PUSH2 0x30CE DUP2 PUSH2 0x3546 JUMP JUMPDEST DUP8 DUP2 MSTORE DUP5 DUP2 ADD SWAP2 PUSH1 0xA CALLVALUE DIV DUP4 MSTORE PUSH1 0x40 DUP3 ADD SWAP5 PUSH1 0x0 DUP7 MSTORE DUP2 SLOAD SWAP1 DUP2 LT ISZERO PUSH2 0x1469 JUMPI PUSH2 0x30FC SWAP2 DUP11 DUP3 ADD DUP2 SSTORE PUSH2 0x371A JUMP JUMPDEST SWAP2 SWAP1 SWAP2 PUSH2 0x1F5E JUMPI PUSH1 0x5 SWAP5 PUSH2 0x312B SWAP4 PUSH1 0x2 SWAP3 MLOAD DUP5 SSTORE MLOAD DUP11 DUP5 ADD SSTORE MLOAD ISZERO ISZERO SWAP2 ADD SWAP1 PUSH1 0xFF DUP1 NOT DUP4 SLOAD AND SWAP2 ISZERO ISZERO AND OR SWAP1 SSTORE JUMP JUMPDEST PUSH1 0x40 MLOAD CALLVALUE DUP2 MSTORE DUP6 PUSH32 0xA4A91237423E0A1766A761C7CB029311D8B95D6B1B81DB1B949A70C98B4E08E DUP6 CALLER SWAP4 LOG3 SLOAD SWAP3 ADD SLOAD DUP3 LT ISZERO PUSH2 0x316A JUMPI JUMPDEST PUSH1 0x0 DUP5 SWAP1 SSTORE STOP JUMPDEST PUSH32 0x318DAF69D77E946364E804495B2184222324B99FDDEB42AB5FD25A919F596E8C SWAP2 PUSH1 0x40 MLOAD SWAP1 DUP2 MSTORE LOG2 DUP2 DUP1 DUP1 PUSH2 0x3163 JUMP JUMPDEST PUSH1 0xD SLOAD PUSH1 0x1 PUSH1 0x40 SHL DUP2 LT ISZERO PUSH2 0x1469 JUMPI DUP1 DUP7 PUSH2 0x31B9 SWAP3 ADD PUSH1 0xD SSTORE PUSH2 0x3683 JUMP JUMPDEST DUP2 SLOAD SWAP1 PUSH1 0x3 SHL SWAP1 DUP4 CALLER DUP4 SHL SWAP3 SHL NOT AND OR SWAP1 SSTORE PUSH2 0x2FF5 JUMP JUMPDEST PUSH1 0xA DUP4 ADD PUSH2 0x31DE DUP2 SLOAD PUSH2 0x3A1B JUMP JUMPDEST SWAP1 SSTORE CALLER PUSH1 0x0 MSTORE PUSH1 0xA DUP3 MSTORE PUSH2 0x31F6 DUP5 PUSH1 0x40 PUSH1 0x0 KECCAK256 PUSH2 0x3A37 JUMP JUMPDEST PUSH2 0x2FE1 JUMP JUMPDEST PUSH1 0x84 SWAP1 PUSH1 0x40 MLOAD SWAP1 PUSH3 0x461BCD PUSH1 0xE5 SHL DUP3 MSTORE PUSH1 0x4 DUP3 ADD MSTORE PUSH1 0x21 PUSH1 0x24 DUP3 ADD MSTORE PUSH32 0x43616E6E6F7420636F6E7472696275746520746F206F776E2063616D70616967 PUSH1 0x44 DUP3 ADD MSTORE PUSH1 0x37 PUSH1 0xF9 SHL PUSH1 0x64 DUP3 ADD MSTORE REVERT JUMPDEST PUSH1 0x40 MLOAD PUSH3 0x461BCD PUSH1 0xE5 SHL DUP2 MSTORE PUSH1 0x4 DUP2 ADD DUP4 SWAP1 MSTORE PUSH1 0x23 PUSH1 0x24 DUP3 ADD MSTORE PUSH32 0x436F6E747269627574696F6E206D757374206265206772656174657220746861 PUSH1 0x44 DUP3 ADD MSTORE PUSH3 0x6E203 PUSH1 0xEC SHL PUSH1 0x64 DUP3 ADD MSTORE PUSH1 0x84 SWAP1 REVERT JUMPDEST PUSH1 0x40 MLOAD PUSH3 0x461BCD PUSH1 0xE5 SHL DUP2 MSTORE PUSH1 0x4 DUP2 ADD DUP4 SWAP1 MSTORE PUSH1 0x12 PUSH1 0x24 DUP3 ADD MSTORE PUSH18 0x10D85B5C185A59DB881A185CC8195B991959 PUSH1 0x72 SHL PUSH1 0x44 DUP3 ADD MSTORE PUSH1 0x64 SWAP1 REVERT JUMPDEST POP PUSH1 0x3 SLOAD DUP2 GT ISZERO PUSH2 0x2F40 JUMP JUMPDEST CALLVALUE PUSH2 0x217 JUMPI PUSH1 0x20 DUP1 PUSH1 0x3 NOT CALLDATASIZE ADD SLT PUSH2 0x217 JUMPI PUSH1 0x1 PUSH1 0x1 PUSH1 0xA0 SHL SUB PUSH2 0x3302 PUSH2 0x34C4 JUMP JUMPDEST AND PUSH1 0x0 MSTORE PUSH1 0xB DUP2 MSTORE PUSH1 0x40 PUSH1 0x0 KECCAK256 SWAP1 DUP2 SLOAD PUSH2 0x331B DUP2 PUSH2 0x3843 JUMP JUMPDEST SWAP1 PUSH2 0x3329 PUSH1 0x40 MLOAD SWAP3 DUP4 PUSH2 0x357C JUMP JUMPDEST DUP1 DUP3 MSTORE DUP3 DUP3 ADD DUP1 SWAP5 PUSH1 0x0 MSTORE DUP4 PUSH1 0x0 KECCAK256 PUSH1 0x0 SWAP2 JUMPDEST DUP4 DUP4 LT PUSH2 0x3394 JUMPI PUSH1 0x40 DUP1 MLOAD DUP8 DUP2 MSTORE DUP7 MLOAD DUP2 DUP10 ADD DUP2 SWAP1 MSTORE DUP10 SWAP3 DUP3 ADD SWAP1 DUP10 PUSH1 0x0 JUMPDEST DUP3 DUP2 LT PUSH2 0x3368 JUMPI DUP5 DUP5 SUB DUP6 RETURN JUMPDEST DUP6 MLOAD DUP1 MLOAD DUP6 MSTORE DUP1 DUP4 ADD MLOAD DUP6 DUP5 ADD MSTORE PUSH1 0x40 SWAP1 DUP2 ADD MLOAD ISZERO ISZERO SWAP1 DUP6 ADD MSTORE SWAP5 DUP2 ADD SWAP5 PUSH1 0x60 SWAP1 SWAP4 ADD SWAP3 PUSH1 0x1 ADD PUSH2 0x335B JUMP JUMPDEST PUSH1 0x3 DUP7 PUSH1 0x1 SWAP3 PUSH1 0x40 MLOAD PUSH2 0x33A6 DUP2 PUSH2 0x3546 JUMP JUMPDEST DUP6 SLOAD DUP2 MSTORE DUP5 DUP7 ADD SLOAD DUP4 DUP3 ADD MSTORE PUSH1 0xFF PUSH1 0x2 DUP8 ADD SLOAD AND ISZERO ISZERO PUSH1 0x40 DUP3 ADD MSTORE DUP2 MSTORE ADD SWAP3 ADD SWAP3 ADD SWAP2 SWAP1 PUSH2 0x333C JUMP JUMPDEST CALLVALUE PUSH2 0x217 JUMPI PUSH1 0x20 CALLDATASIZE PUSH1 0x3 NOT ADD SLT PUSH2 0x217 JUMPI PUSH1 0x4 CALLDATALOAD DUP1 ISZERO ISZERO DUP1 PUSH2 0x34B8 JUMPI JUMPDEST PUSH2 0x33F5 SWAP1 PUSH2 0x3B49 JUMP JUMPDEST PUSH1 0x0 MSTORE PUSH1 0x4 PUSH1 0x20 MSTORE PUSH1 0x20 PUSH1 0x40 PUSH1 0x0 KECCAK256 PUSH1 0x40 MLOAD PUSH2 0x3410 DUP2 PUSH2 0x352A JUMP JUMPDEST DUP2 SLOAD DUP2 MSTORE PUSH1 0x1 DUP3 ADD SLOAD PUSH1 0x1 PUSH1 0x1 PUSH1 0xA0 SHL SUB AND DUP4 DUP3 ADD MSTORE PUSH2 0x3432 PUSH1 0x2 DUP4 ADD PUSH2 0x359D JUMP JUMPDEST PUSH1 0x40 DUP3 ADD MSTORE PUSH2 0x3443 PUSH1 0x3 DUP4 ADD PUSH2 0x359D JUMP JUMPDEST PUSH1 0x60 DUP3 ADD MSTORE PUSH2 0x3454 PUSH1 0x4 DUP4 ADD PUSH2 0x359D JUMP JUMPDEST PUSH1 0x80 DUP3 ADD MSTORE PUSH1 0x5 DUP3 ADD SLOAD SWAP1 DUP2 PUSH1 0xA0 DUP3 ADD MSTORE PUSH2 0x160 PUSH1 0xA PUSH1 0x6 DUP6 ADD SLOAD SWAP5 DUP6 PUSH1 0xC0 DUP6 ADD MSTORE PUSH1 0x7 DUP2 ADD SLOAD PUSH1 0xE0 DUP6 ADD MSTORE PUSH1 0xFF PUSH1 0x8 DUP3 ADD SLOAD DUP2 DUP2 AND ISZERO ISZERO PUSH2 0x100 DUP8 ADD MSTORE PUSH1 0x8 SHR AND ISZERO ISZERO PUSH2 0x120 DUP6 ADD MSTORE PUSH1 0x9 DUP2 ADD SLOAD PUSH2 0x140 DUP6 ADD MSTORE ADD SLOAD SWAP2 ADD MSTORE PUSH1 0x40 MLOAD SWAP2 LT ISZERO DUP2 MSTORE RETURN JUMPDEST POP PUSH1 0x3 SLOAD DUP2 GT ISZERO PUSH2 0x33EC JUMP JUMPDEST PUSH1 0x4 CALLDATALOAD SWAP1 PUSH1 0x1 PUSH1 0x1 PUSH1 0xA0 SHL SUB DUP3 AND DUP3 SUB PUSH2 0x217 JUMPI JUMP JUMPDEST PUSH1 0x24 CALLDATALOAD SWAP1 PUSH1 0x1 PUSH1 0x1 PUSH1 0xA0 SHL SUB DUP3 AND DUP3 SUB PUSH2 0x217 JUMPI JUMP JUMPDEST SWAP1 PUSH1 0x1 DUP3 DUP2 SHR SWAP3 AND DUP1 ISZERO PUSH2 0x3520 JUMPI JUMPDEST PUSH1 0x20 DUP4 LT EQ PUSH2 0x350A JUMPI JUMP JUMPDEST PUSH4 0x4E487B71 PUSH1 0xE0 SHL PUSH1 0x0 MSTORE PUSH1 0x22 PUSH1 0x4 MSTORE PUSH1 0x24 PUSH1 0x0 REVERT JUMPDEST SWAP2 PUSH1 0x7F AND SWAP2 PUSH2 0x34FF JUMP JUMPDEST PUSH2 0x180 DUP2 ADD SWAP1 DUP2 LT PUSH1 0x1 PUSH1 0x1 PUSH1 0x40 SHL SUB DUP3 GT OR PUSH2 0x1469 JUMPI PUSH1 0x40 MSTORE JUMP JUMPDEST PUSH1 0x60 DUP2 ADD SWAP1 DUP2 LT PUSH1 0x1 PUSH1 0x1 PUSH1 0x40 SHL SUB DUP3 GT OR PUSH2 0x1469 JUMPI PUSH1 0x40 MSTORE JUMP JUMPDEST PUSH1 0xC0 DUP2 ADD SWAP1 DUP2 LT PUSH1 0x1 PUSH1 0x1 PUSH1 0x40 SHL SUB DUP3 GT OR PUSH2 0x1469 JUMPI PUSH1 0x40 MSTORE JUMP JUMPDEST SWAP1 PUSH1 0x1F DUP1 NOT SWAP2 ADD AND DUP2 ADD SWAP1 DUP2 LT PUSH1 0x1 PUSH1 0x1 PUSH1 0x40 SHL SUB DUP3 GT OR PUSH2 0x1469 JUMPI PUSH1 0x40 MSTORE JUMP JUMPDEST SWAP1 PUSH1 0x40 MLOAD SWAP2 DUP3 PUSH1 0x0 DUP3 SLOAD SWAP3 PUSH2 0x35B1 DUP5 PUSH2 0x34F0 JUMP JUMPDEST SWAP1 DUP2 DUP5 MSTORE PUSH1 0x1 SWAP5 DUP6 DUP2 AND SWAP1 DUP2 PUSH1 0x0 EQ PUSH2 0x3620 JUMPI POP PUSH1 0x1 EQ PUSH2 0x35DD JUMPI JUMPDEST POP POP PUSH2 0x35DB SWAP3 POP SUB DUP4 PUSH2 0x357C JUMP JUMPDEST JUMP JUMPDEST SWAP1 SWAP4 SWAP2 POP PUSH1 0x0 MSTORE PUSH1 0x20 SWAP1 DUP2 PUSH1 0x0 KECCAK256 SWAP4 PUSH1 0x0 SWAP2 JUMPDEST DUP2 DUP4 LT PUSH2 0x3608 JUMPI POP POP PUSH2 0x35DB SWAP4 POP DUP3 ADD ADD CODESIZE DUP1 PUSH2 0x35CD JUMP JUMPDEST DUP6 SLOAD DUP9 DUP5 ADD DUP6 ADD MSTORE SWAP5 DUP6 ADD SWAP5 DUP8 SWAP5 POP SWAP2 DUP4 ADD SWAP2 PUSH2 0x35F0 JUMP JUMPDEST SWAP2 POP POP PUSH2 0x35DB SWAP5 POP PUSH1 0x20 SWAP3 POP PUSH1 0xFF NOT AND DUP3 DUP5 ADD MSTORE ISZERO ISZERO PUSH1 0x5 SHL DUP3 ADD ADD CODESIZE DUP1 PUSH2 0x35CD JUMP JUMPDEST SWAP2 SWAP1 DUP3 MLOAD SWAP3 DUP4 DUP3 MSTORE PUSH1 0x0 JUMPDEST DUP5 DUP2 LT PUSH2 0x366F JUMPI POP POP DUP3 PUSH1 0x0 PUSH1 0x20 DUP1 SWAP5 SWAP6 DUP5 ADD ADD MSTORE PUSH1 0x1F DUP1 NOT SWAP2 ADD AND ADD ADD SWAP1 JUMP JUMPDEST PUSH1 0x20 DUP2 DUP4 ADD DUP2 ADD MLOAD DUP5 DUP4 ADD DUP3 ADD MSTORE ADD PUSH2 0x364E JUMP JUMPDEST PUSH1 0xD SLOAD DUP2 LT ISZERO PUSH2 0x36BA JUMPI PUSH1 0xD PUSH1 0x0 MSTORE PUSH32 0xD7B6990105719101DABEB77144F2A3385C8033ACD3AF97E9423A695E81AD1EB5 ADD SWAP1 PUSH1 0x0 SWAP1 JUMP JUMPDEST PUSH4 0x4E487B71 PUSH1 0xE0 SHL PUSH1 0x0 MSTORE PUSH1 0x32 PUSH1 0x4 MSTORE PUSH1 0x24 PUSH1 0x0 REVERT JUMPDEST DUP1 SLOAD DUP3 LT ISZERO PUSH2 0x36BA JUMPI PUSH1 0x0 MSTORE PUSH1 0x20 PUSH1 0x0 KECCAK256 ADD SWAP1 PUSH1 0x0 SWAP1 JUMP JUMPDEST PUSH1 0x40 SWAP1 PUSH1 0x3 NOT ADD SLT PUSH2 0x217 JUMPI PUSH1 0x4 CALLDATALOAD SWAP1 PUSH1 0x24 CALLDATALOAD SWAP1 JUMP JUMPDEST DUP1 SLOAD DUP3 LT ISZERO PUSH2 0x36BA JUMPI PUSH1 0x0 MSTORE PUSH1 0x6 PUSH1 0x20 PUSH1 0x0 KECCAK256 SWAP2 MUL ADD SWAP1 PUSH1 0x0 SWAP1 JUMP JUMPDEST DUP1 SLOAD DUP3 LT ISZERO PUSH2 0x36BA JUMPI PUSH1 0x0 MSTORE PUSH1 0x3 PUSH1 0x20 PUSH1 0x0 KECCAK256 SWAP2 MUL ADD SWAP1 PUSH1 0x0 SWAP1 JUMP JUMPDEST SWAP1 DUP2 MLOAD DUP2 MSTORE PUSH1 0x1 DUP1 PUSH1 0xA0 SHL SUB PUSH1 0x20 DUP4 ADD MLOAD AND PUSH1 0x20 DUP3 ADD MSTORE PUSH2 0x3790 PUSH2 0x377E PUSH2 0x376C PUSH1 0x40 DUP6 ADD MLOAD PUSH2 0x180 DUP1 PUSH1 0x40 DUP8 ADD MSTORE DUP6 ADD SWAP1 PUSH2 0x3643 JUMP JUMPDEST PUSH1 0x60 DUP6 ADD MLOAD DUP5 DUP3 SUB PUSH1 0x60 DUP7 ADD MSTORE PUSH2 0x3643 JUMP JUMPDEST PUSH1 0x80 DUP5 ADD MLOAD DUP4 DUP3 SUB PUSH1 0x80 DUP6 ADD MSTORE PUSH2 0x3643 JUMP JUMPDEST SWAP2 PUSH1 0xA0 DUP2 ADD MLOAD PUSH1 0xA0 DUP4 ADD MSTORE PUSH1 0xC0 DUP2 ADD MLOAD PUSH1 0xC0 DUP4 ADD MSTORE PUSH1 0xE0 DUP2 ADD MLOAD PUSH1 0xE0 DUP4 ADD MSTORE PUSH2 0x100 DUP1 DUP3 ADD MLOAD ISZERO ISZERO SWAP1 DUP4 ADD MSTORE PUSH2 0x120 DUP1 DUP3 ADD MLOAD ISZERO ISZERO SWAP1 DUP4 ADD MSTORE PUSH2 0x140 DUP1 DUP3 ADD MLOAD SWAP1 DUP4 ADD MSTORE PUSH2 0x160 DUP1 SWAP2 ADD MLOAD SWAP2 ADD MSTORE SWAP1 JUMP JUMPDEST PUSH1 0x1 PUSH1 0x1 PUSH1 0x40 SHL SUB DUP2 GT PUSH2 0x1469 JUMPI PUSH1 0x1F ADD PUSH1 0x1F NOT AND PUSH1 0x20 ADD SWAP1 JUMP JUMPDEST DUP2 PUSH1 0x1F DUP3 ADD SLT ISZERO PUSH2 0x217 JUMPI DUP1 CALLDATALOAD SWAP1 PUSH2 0x3813 DUP3 PUSH2 0x37E1 JUMP JUMPDEST SWAP3 PUSH2 0x3821 PUSH1 0x40 MLOAD SWAP5 DUP6 PUSH2 0x357C JUMP JUMPDEST DUP3 DUP5 MSTORE PUSH1 0x20 DUP4 DUP4 ADD ADD GT PUSH2 0x217 JUMPI DUP2 PUSH1 0x0 SWAP3 PUSH1 0x20 DUP1 SWAP4 ADD DUP4 DUP7 ADD CALLDATACOPY DUP4 ADD ADD MSTORE SWAP1 JUMP JUMPDEST PUSH1 0x1 PUSH1 0x1 PUSH1 0x40 SHL SUB DUP2 GT PUSH2 0x1469 JUMPI PUSH1 0x5 SHL PUSH1 0x20 ADD SWAP1 JUMP JUMPDEST DUP2 PUSH1 0x1F DUP3 ADD SLT ISZERO PUSH2 0x217 JUMPI DUP1 CALLDATALOAD SWAP2 PUSH2 0x3871 DUP4 PUSH2 0x3843 JUMP JUMPDEST SWAP3 PUSH2 0x387F PUSH1 0x40 MLOAD SWAP5 DUP6 PUSH2 0x357C JUMP JUMPDEST DUP1 DUP5 MSTORE PUSH1 0x20 SWAP3 DUP4 DUP1 DUP7 ADD SWAP3 PUSH1 0x5 SHL DUP3 ADD ADD SWAP3 DUP4 GT PUSH2 0x217 JUMPI DUP4 ADD SWAP1 JUMPDEST DUP3 DUP3 LT PUSH2 0x38A9 JUMPI POP POP POP POP SWAP1 JUMP JUMPDEST DUP2 CALLDATALOAD DUP2 MSTORE SWAP1 DUP4 ADD SWAP1 DUP4 ADD PUSH2 0x389B JUMP JUMPDEST SWAP1 DUP1 PUSH1 0x1F DUP4 ADD SLT ISZERO PUSH2 0x217 JUMPI DUP2 CALLDATALOAD SWAP1 PUSH2 0x38D0 DUP3 PUSH2 0x3843 JUMP JUMPDEST SWAP3 PUSH2 0x38DE PUSH1 0x40 MLOAD SWAP5 DUP6 PUSH2 0x357C JUMP JUMPDEST DUP3 DUP5 MSTORE PUSH1 0x20 SWAP3 DUP4 DUP1 DUP7 ADD SWAP2 PUSH1 0x5 SHL DUP4 ADD ADD SWAP3 DUP1 DUP5 GT PUSH2 0x217 JUMPI DUP5 DUP4 ADD SWAP2 JUMPDEST DUP5 DUP4 LT PUSH2 0x390C JUMPI POP POP POP POP POP POP SWAP1 JUMP JUMPDEST DUP3 CALLDATALOAD PUSH1 0x1 PUSH1 0x1 PUSH1 0x40 SHL SUB DUP2 GT PUSH2 0x217 JUMPI DUP7 SWAP2 PUSH2 0x392D DUP5 DUP5 DUP1 SWAP5 DUP10 ADD ADD PUSH2 0x37FC JUMP JUMPDEST DUP2 MSTORE ADD SWAP3 ADD SWAP2 PUSH2 0x38FC JUMP JUMPDEST SWAP1 DUP2 MLOAD DUP1 DUP3 MSTORE PUSH1 0x20 DUP1 DUP1 SWAP4 ADD SWAP4 ADD SWAP2 PUSH1 0x0 JUMPDEST DUP3 DUP2 LT PUSH2 0x3958 JUMPI POP POP POP POP SWAP1 JUMP JUMPDEST DUP4 MLOAD DUP6 MSTORE SWAP4 DUP2 ADD SWAP4 SWAP3 DUP2 ADD SWAP3 PUSH1 0x1 ADD PUSH2 0x394A JUMP JUMPDEST PUSH1 0x1 SLOAD PUSH1 0x1 PUSH1 0x1 PUSH1 0xA0 SHL SUB AND CALLER SUB PUSH2 0x3980 JUMPI JUMP JUMPDEST PUSH1 0x64 PUSH1 0x40 MLOAD PUSH3 0x461BCD PUSH1 0xE5 SHL DUP2 MSTORE PUSH1 0x20 PUSH1 0x4 DUP3 ADD MSTORE PUSH1 0x20 PUSH1 0x24 DUP3 ADD MSTORE PUSH32 0x4F776E61626C653A2063616C6C6572206973206E6F7420746865206F776E6572 PUSH1 0x44 DUP3 ADD MSTORE REVERT JUMPDEST ISZERO PUSH2 0x39CB JUMPI JUMP JUMPDEST PUSH1 0x40 MLOAD PUSH3 0x461BCD PUSH1 0xE5 SHL DUP2 MSTORE PUSH1 0x20 PUSH1 0x4 DUP3 ADD MSTORE PUSH1 0x22 PUSH1 0x24 DUP3 ADD MSTORE PUSH32 0x496E73756666696369656E742063616D706169676E206372656174696F6E2066 PUSH1 0x44 DUP3 ADD MSTORE PUSH2 0x6565 PUSH1 0xF0 SHL PUSH1 0x64 DUP3 ADD MSTORE PUSH1 0x84 SWAP1 REVERT JUMPDEST PUSH1 0x0 NOT DUP2 EQ PUSH2 0x777 JUMPI PUSH1 0x1 ADD SWAP1 JUMP JUMPDEST SWAP2 SWAP1 DUP3 ADD DUP1 SWAP3 GT PUSH2 0x777 JUMPI JUMP JUMPDEST DUP1 SLOAD PUSH1 0x1 PUSH1 0x40 SHL DUP2 LT ISZERO PUSH2 0x1469 JUMPI PUSH2 0x3A54 SWAP2 PUSH1 0x1 DUP3 ADD DUP2 SSTORE PUSH2 0x36D0 JUMP JUMPDEST DUP2 SWAP3 SWAP2 SLOAD SWAP1 PUSH1 0x3 SHL SWAP2 DUP3 SHL SWAP2 PUSH1 0x0 NOT SWAP1 SHL NOT AND OR SWAP1 SSTORE JUMP JUMPDEST SWAP2 SWAP1 DUP3 SUB SWAP2 DUP3 GT PUSH2 0x777 JUMPI JUMP JUMPDEST PUSH2 0x3A95 SWAP4 SWAP3 PUSH1 0x60 SWAP3 DUP3 MSTORE PUSH1 0x20 DUP3 ADD MSTORE DUP2 PUSH1 0x40 DUP3 ADD MSTORE ADD SWAP1 PUSH2 0x3643 JUMP JUMPDEST SWAP1 JUMP JUMPDEST PUSH1 0xFF PUSH1 0x1 SLOAD PUSH1 0xA0 SHR AND PUSH2 0x3AA7 JUMPI JUMP JUMPDEST PUSH1 0x40 MLOAD PUSH3 0x461BCD PUSH1 0xE5 SHL DUP2 MSTORE PUSH1 0x20 PUSH1 0x4 DUP3 ADD MSTORE PUSH1 0x10 PUSH1 0x24 DUP3 ADD MSTORE PUSH16 0x14185D5CD8589B194E881C185D5CD959 PUSH1 0x82 SHL PUSH1 0x44 DUP3 ADD MSTORE PUSH1 0x64 SWAP1 REVERT JUMPDEST PUSH1 0x2 PUSH1 0x0 SLOAD EQ PUSH2 0x3AF0 JUMPI PUSH1 0x2 PUSH1 0x0 SSTORE JUMP JUMPDEST PUSH1 0x40 MLOAD PUSH3 0x461BCD PUSH1 0xE5 SHL DUP2 MSTORE PUSH1 0x20 PUSH1 0x4 DUP3 ADD MSTORE PUSH1 0x1F PUSH1 0x24 DUP3 ADD MSTORE PUSH32 0x5265656E7472616E637947756172643A207265656E7472616E742063616C6C00 PUSH1 0x44 DUP3 ADD MSTORE PUSH1 0x64 SWAP1 REVERT JUMPDEST DUP1 MLOAD DUP3 LT ISZERO PUSH2 0x36BA JUMPI PUSH1 0x20 SWAP2 PUSH1 0x5 SHL ADD ADD SWAP1 JUMP JUMPDEST ISZERO PUSH2 0x3B50 JUMPI JUMP JUMPDEST PUSH1 0x40 MLOAD PUSH3 0x461BCD PUSH1 0xE5 SHL DUP2 MSTORE PUSH1 0x20 PUSH1 0x4 DUP3 ADD MSTORE PUSH1 0x13 PUSH1 0x24 DUP3 ADD MSTORE PUSH19 0x125B9D985B1A590818D85B5C185A59DB881251 PUSH1 0x6A SHL PUSH1 0x44 DUP3 ADD MSTORE PUSH1 0x64 SWAP1 REVERT JUMPDEST ISZERO PUSH2 0x3B92 JUMPI JUMP JUMPDEST PUSH1 0x40 MLOAD PUSH3 0x461BCD PUSH1 0xE5 SHL DUP2 MSTORE PUSH1 0x20 PUSH1 0x4 DUP3 ADD MSTORE PUSH1 0x16 PUSH1 0x24 DUP3 ADD MSTORE PUSH22 0x43616D706169676E206973206E6F7420616374697665 PUSH1 0x50 SHL PUSH1 0x44 DUP3 ADD MSTORE PUSH1 0x64 SWAP1 REVERT JUMPDEST ISZERO PUSH2 0x3BD7 JUMPI JUMP JUMPDEST PUSH1 0x40 MLOAD PUSH3 0x461BCD PUSH1 0xE5 SHL DUP2 MSTORE PUSH1 0x20 PUSH1 0x4 DUP3 ADD MSTORE PUSH1 0x14 PUSH1 0x24 DUP3 ADD MSTORE PUSH20 0x2737BA1031B0B6B830B4B3B71031B932B0BA37B9 PUSH1 0x61 SHL PUSH1 0x44 DUP3 ADD MSTORE PUSH1 0x64 SWAP1 REVERT JUMPDEST ISZERO PUSH2 0x3C1A JUMPI JUMP JUMPDEST PUSH1 0x40 MLOAD PUSH3 0x461BCD PUSH1 0xE5 SHL DUP2 MSTORE PUSH1 0x20 PUSH1 0x4 DUP3 ADD MSTORE PUSH1 0x15 PUSH1 0x24 DUP3 ADD MSTORE PUSH21 0x43616D706169676E207374696C6C20616374697665 PUSH1 0x58 SHL PUSH1 0x44 DUP3 ADD MSTORE PUSH1 0x64 SWAP1 REVERT JUMPDEST ISZERO PUSH2 0x3C5E JUMPI JUMP JUMPDEST PUSH1 0x40 MLOAD PUSH3 0x461BCD PUSH1 0xE5 SHL DUP2 MSTORE PUSH1 0x20 PUSH1 0x4 DUP3 ADD MSTORE PUSH1 0x15 PUSH1 0x24 DUP3 ADD MSTORE PUSH21 0x139BC818DBDB9D1C9A589D5D1A5BDB88199BDD5B99 PUSH1 0x5A SHL PUSH1 0x44 DUP3 ADD MSTORE PUSH1 0x64 SWAP1 REVERT JUMPDEST PUSH1 0x40 MLOAD SWAP1 PUSH2 0x3CA8 DUP3 PUSH2 0x352A JUMP JUMPDEST DUP2 PUSH2 0x160 PUSH1 0x0 SWAP2 DUP3 DUP2 MSTORE DUP3 PUSH1 0x20 DUP3 ADD MSTORE PUSH1 0x60 PUSH1 0x40 DUP3 ADD MSTORE PUSH1 0x60 DUP1 DUP3 ADD MSTORE PUSH1 0x60 PUSH1 0x80 DUP3 ADD MSTORE DUP3 PUSH1 0xA0 DUP3 ADD MSTORE DUP3 PUSH1 0xC0 DUP3 ADD MSTORE DUP3 PUSH1 0xE0 DUP3 ADD MSTORE DUP3 PUSH2 0x100 DUP3 ADD MSTORE DUP3 PUSH2 0x120 DUP3 ADD MSTORE DUP3 PUSH2 0x140 DUP3 ADD MSTORE ADD MSTORE JUMP JUMPDEST DUP2 ISZERO ISZERO DUP1 PUSH2 0x3F96 JUMPI JUMPDEST ISZERO PUSH2 0x3F61 JUMPI PUSH1 0x3 DUP1 SLOAD SWAP3 SWAP1 PUSH1 0x0 PUSH1 0x1 JUMPDEST DUP6 DUP2 GT ISZERO PUSH2 0x3F21 JUMPI POP DUP1 DUP5 LT ISZERO PUSH2 0x3EF9 JUMPI DUP1 DUP5 SWAP2 PUSH2 0x3D2E DUP6 DUP5 PUSH2 0x3A2A JUMP JUMPDEST GT PUSH2 0x3EE6 JUMPI JUMPDEST POP POP PUSH2 0x3D3F DUP3 PUSH2 0x3843 JUMP JUMPDEST PUSH1 0x40 SWAP2 PUSH2 0x3D4E DUP4 MLOAD SWAP3 DUP4 PUSH2 0x357C JUMP JUMPDEST DUP4 DUP3 MSTORE PUSH1 0x1F NOT PUSH2 0x3D5D DUP6 PUSH2 0x3843 JUMP JUMPDEST ADD PUSH1 0x0 JUMPDEST DUP2 DUP2 LT PUSH2 0x3ECF JUMPI POP POP PUSH1 0x0 SWAP2 DUP3 SWAP5 PUSH1 0x1 JUMPDEST DUP9 DUP2 GT ISZERO DUP1 PUSH2 0x3EC6 JUMPI JUMPDEST ISZERO PUSH2 0x3EBA JUMPI DUP1 PUSH1 0x0 MSTORE PUSH1 0x4 PUSH1 0x20 SWAP1 DUP1 DUP3 MSTORE DUP10 DUP9 PUSH1 0x0 KECCAK256 SWAP2 PUSH1 0x8 DUP1 DUP5 ADD SLOAD SWAP2 DUP3 SWAP2 PUSH1 0xFF SWAP4 DUP5 SWAP2 SHR AND SWAP4 DUP5 PUSH2 0x3DBF JUMPI JUMPDEST POP POP POP POP POP POP POP PUSH2 0x3DBA SWAP1 PUSH2 0x3A1B JUMP JUMPDEST PUSH2 0x3D72 JUMP JUMPDEST DUP13 SWAP1 DUP15 SWAP9 SWAP15 LT ISZERO PUSH2 0x3DEB JUMPI JUMPDEST POP POP POP POP POP POP POP PUSH2 0x3DDE PUSH2 0x3DBA SWAP2 PUSH2 0x3A1B JUMP JUMPDEST SWAP7 SWAP1 CODESIZE DUP1 DUP1 DUP1 DUP1 DUP14 PUSH2 0x3DAA JUMP JUMPDEST SWAP4 PUSH2 0x3DDE SWAP7 SWAP4 PUSH1 0xA SWAP4 PUSH2 0x3E4C PUSH2 0x3EAE SWAP9 SWAP5 PUSH2 0x3DBA SWAP12 SWAP16 SWAP9 DUP16 DUP2 PUSH2 0x3E40 SWAP3 MLOAD SWAP11 PUSH2 0x3E13 DUP13 PUSH2 0x352A JUMP JUMPDEST DUP10 SLOAD DUP13 MSTORE PUSH1 0x1 DUP11 ADD SLOAD PUSH1 0x1 PUSH1 0x1 PUSH1 0xA0 SHL SUB AND SWAP1 DUP13 ADD MSTORE PUSH2 0x3E35 PUSH1 0x2 DUP11 ADD PUSH2 0x359D JUMP JUMPDEST SWAP1 DUP12 ADD MSTORE DUP8 ADD PUSH2 0x359D JUMP JUMPDEST PUSH1 0x60 DUP10 ADD MSTORE DUP6 ADD PUSH2 0x359D JUMP JUMPDEST PUSH1 0x80 DUP8 ADD MSTORE PUSH1 0x5 DUP5 ADD SLOAD PUSH1 0xA0 DUP8 ADD MSTORE PUSH1 0x6 DUP5 ADD SLOAD PUSH1 0xC0 DUP8 ADD MSTORE PUSH1 0x7 DUP5 ADD SLOAD PUSH1 0xE0 DUP8 ADD MSTORE AND ISZERO ISZERO PUSH2 0x100 DUP6 ADD MSTORE ISZERO ISZERO PUSH2 0x120 DUP5 ADD MSTORE PUSH1 0x9 DUP2 ADD SLOAD PUSH2 0x140 DUP5 ADD MSTORE ADD SLOAD PUSH2 0x160 DUP3 ADD MSTORE PUSH2 0x3E9D DUP3 DUP9 PUSH2 0x3B35 JUMP JUMPDEST MSTORE PUSH2 0x3EA8 DUP2 DUP8 PUSH2 0x3B35 JUMP JUMPDEST POP PUSH2 0x3A1B JUMP JUMPDEST SWAP6 SWAP2 CODESIZE DUP1 DUP1 DUP1 DUP12 PUSH2 0x3DCB JUMP JUMPDEST POP POP SWAP6 POP POP POP POP POP POP SWAP1 JUMP JUMPDEST POP DUP2 DUP6 LT PUSH2 0x3D7C JUMP JUMPDEST PUSH1 0x20 SWAP1 PUSH2 0x3EDA PUSH2 0x3C9B JUMP JUMPDEST DUP3 DUP3 DUP8 ADD ADD MSTORE ADD PUSH2 0x3D61 JUMP JUMPDEST PUSH2 0x3EF1 SWAP3 SWAP4 POP PUSH2 0x3A6C JUMP JUMPDEST SWAP1 DUP3 CODESIZE PUSH2 0x3D34 JUMP JUMPDEST POP POP POP POP POP PUSH1 0x40 MLOAD PUSH1 0x20 DUP2 ADD DUP2 DUP2 LT PUSH1 0x1 PUSH1 0x1 PUSH1 0x40 SHL SUB DUP3 GT OR PUSH2 0x1469 JUMPI PUSH1 0x40 MSTORE PUSH1 0x0 DUP2 MSTORE SWAP1 JUMP JUMPDEST DUP1 PUSH1 0x0 MSTORE PUSH1 0x4 PUSH1 0x20 MSTORE PUSH1 0xFF PUSH1 0x8 DUP1 PUSH1 0x40 PUSH1 0x0 KECCAK256 ADD SLOAD SWAP1 SHR AND PUSH2 0x3F4C JUMPI JUMPDEST PUSH2 0x3F47 SWAP1 PUSH2 0x3A1B JUMP JUMPDEST PUSH2 0x3D10 JUMP JUMPDEST SWAP1 PUSH2 0x3F59 PUSH2 0x3F47 SWAP2 PUSH2 0x3A1B JUMP JUMPDEST SWAP2 SWAP1 POP PUSH2 0x3F3E JUMP JUMPDEST PUSH1 0x40 MLOAD PUSH3 0x461BCD PUSH1 0xE5 SHL DUP2 MSTORE PUSH1 0x20 PUSH1 0x4 DUP3 ADD MSTORE PUSH1 0xD PUSH1 0x24 DUP3 ADD MSTORE PUSH13 0x125B9D985B1A59081B1A5B5A5D PUSH1 0x9A SHL PUSH1 0x44 DUP3 ADD MSTORE PUSH1 0x64 SWAP1 REVERT JUMPDEST POP PUSH1 0x64 DUP3 GT ISZERO PUSH2 0x3D00 JUMP JUMPDEST SWAP1 PUSH2 0x3FAB DUP3 PUSH2 0x3843 JUMP JUMPDEST PUSH2 0x3FB8 PUSH1 0x40 MLOAD SWAP2 DUP3 PUSH2 0x357C JUMP JUMPDEST DUP3 DUP2 MSTORE DUP1 SWAP3 PUSH2 0x3FC9 PUSH1 0x1F NOT SWAP2 PUSH2 0x3843 JUMP JUMPDEST ADD SWAP1 PUSH1 0x20 CALLDATASIZE SWAP2 ADD CALLDATACOPY JUMP INVALID LOG2 PUSH5 0x6970667358 0x22 SLT KECCAK256 0xB4 MOD 0xB8 DUP14 0xD 0xD9 0xB1 CHAINID 0xE3 0xF8 0xB0 0xE 0xC3 0xC7 0xBA 0xF8 0xED 0xE5 0xED 0xB0 SWAP8 MSIZE PC PUSH12 0xC619B8A18930A8A064736F6C PUSH4 0x43000813 STOP CALLER "},"methodIdentifiers":{"CAMPAIGN_CREATION_FEE()":"c4b8d53d","allContributors(uint256)":"e07439f7","campaignContributions(uint256,uint256)":"539157bd","campaignCounter()":"fca604d7","campaignMilestones(uint256,uint256)":"3178492a","campaignReleasedAmount(uint256)":"f755a8fb","campaigns(uint256)":"141961bc","claimRewards()":"372500ab","contributeToCampaign(uint256)":"0b7ef89b","contributions(uint256,address)":"3d891f59","createCampaign(string,string,string,uint256,uint256)":"980f2e66","createCampaignWithMilestones(string,string,string,uint256,uint256,uint256[],string[],string[],uint256[])":"77719516","deactivateCampaign(uint256)":"7eca30fe","emergencyRefund(uint256,address)":"dae21c58","emergencyWithdraw()":"db2e21bc","getActiveCampaigns(uint256,uint256)":"b6531458","getCampaign(uint256)":"5598f8cc","getCampaignContributions(uint256)":"d3b0c32c","getCampaignMilestones(uint256)":"f91e4b29","getCampaignStats(uint256)":"660bf9de","getContractStats()":"dfe6b5d6","getContribution(uint256,address)":"e081dbf9","getRefund(uint256)":"d2f0be99","getTopContributors(uint256)":"de710365","getUserCampaigns(address)":"a1e5084c","getUserContributions(address)":"e36465a3","getUserRewards(address)":"078b0fb7","isCampaignSuccessful(uint256)":"06db57bb","owner()":"8da5cb5b","pause()":"8456cb59","paused()":"5c975abb","reactivateCampaign(uint256)":"1fdc217c","releaseMilestone(uint256,uint256)":"dbaf0910","renounceOwnership()":"715018a6","totalContributions(address)":"7ed3deba","totalFeesCollected()":"60c6d8ae","transferOwnership(address)":"f2fde38b","unpause()":"3f4ba83a","userCampaigns(address,uint256)":"19ac74bd","userContributions(address,uint256)":"7331fa95","userRewards(address,uint256)":"63c2a20a","withdrawCampaignFunds(uint256)":"14169e2a","withdrawFees(uint256)":"5e318e07"}}}}}